{
	"data": {
		"bytecode": {
			"linkReferences": {},
			"object": "608060405234801561001057600080fd5b50336000806101000a81548173ffffffffffffffffffffffffffffffffffffffff021916908373ffffffffffffffffffffffffffffffffffffffff160217905550615e9e80620000616000396000f3fe608060405234801561001057600080fd5b50600436106101375760003560e01c806373a8bb3b116100b8578063a526eece1161007c578063a526eece14610363578063aeac0bb11461037f578063cf65daea1461039b578063db9f0b57146103cc578063dc3f11d914610406578063fd2e5e611461042257610137565b806373a8bb3b146102a35780637b5a1be2146102d35780637ba8e3d21461030d5780637f1d100614610329578063986490881461034557610137565b80635f102c42116100ff5780635f102c42146101ea57806360160b2f1461021a5780636057361d1461023657806363ce15bb1461025257806366773ee31461027057610137565b8063192ff1ca1461013c5780632150c518146101585780632ca80a61146101765780632fed5620146101b05780633d7e8e2f146101cc575b600080fd5b61015660048036038101906101519190614e20565b61043e565b005b610160610b06565b60405161016d9190615192565b60405180910390f35b610190600480360381019061018b91906151b4565b610c6d565b6040516101a79b9a999897969594939291906152d9565b60405180910390f35b6101ca60048036038101906101c591906151b4565b611511565b005b6101d46115e3565b6040516101e19190615192565b60405180910390f35b61020460048036038101906101ff91906151b4565b61174a565b6040516102119190615598565b60405180910390f35b610234600480360381019061022f91906155ba565b6120ca565b005b610250600480360381019061024b9190615668565b612195565b005b61025a61219f565b6040516102679190615695565b60405180910390f35b61028a600480360381019061028591906151b4565b61222d565b60405161029a94939291906156b7565b60405180910390f35b6102bd60048036038101906102b891906151b4565b612493565b6040516102ca9190615695565b60405180910390f35b6102ed60048036038101906102e891906151b4565b6125d4565b6040516103049b9a999897969594939291906152d9565b60405180910390f35b610327600480360381019061032291906151b4565b612e78565b005b610343600480360381019061033e91906151b4565b613207565b005b61034d6134df565b60405161035a9190615727565b60405180910390f35b61037d600480360381019061037891906155ba565b6134e9565b005b61039960048036038101906103949190615742565b613693565b005b6103b560048036038101906103b091906151b4565b61383b565b6040516103c3929190615819565b60405180910390f35b6103e660048036038101906103e191906151b4565b613985565b6040516103fd9b9a999897969594939291906152d9565b60405180910390f35b610420600480360381019061041b91906155ba565b614229565b005b61043c60048036038101906104379190614e20565b6142f1565b005b60008054906101000a900473ffffffffffffffffffffffffffffffffffffffff1673ffffffffffffffffffffffffffffffffffffffff163373ffffffffffffffffffffffffffffffffffffffff16146104cc576040517f08c379a00000000000000000000000000000000000000000000000000000000081526004016104c39061589c565b60405180910390fd5b6104d46149a5565b610567600780546104e4906158eb565b80601f0160208091040260200160405190810160405280929190818152602001828054610510906158eb565b801561055d5780601f106105325761010080835404028352916020019161055d565b820191906000526020600020905b81548152906001019060200180831161054057829003601f168201915b505050505061174a565b90506040516020016105789061594d565b6040516020818303038152906040528051906020012060018d60405161059e9190615993565b90815260200160405180910390206000016040516020016105bf9190615a3e565b60405160208183030381529060405280519060200120148061063057508b6040516020016105ed9190615993565b6040516020818303038152906040528051906020012081600001516040516020016106189190615993565b60405160208183030381529060405280519060200120145b61066f576040517f08c379a000000000000000000000000000000000000000000000000000000000815260040161066690615ac7565b60405180910390fd5b60405160200161067e9061594d565b6040516020818303038152906040528051906020012060038c6040516106a49190615993565b90815260200160405180910390206001016040516020016106c59190615a3e565b60405160208183030381529060405280519060200120148061073657508a6040516020016106f39190615993565b60405160208183030381529060405280519060200120816020015160405160200161071e9190615993565b60405160208183030381529060405280519060200120145b610775576040517f08c379a000000000000000000000000000000000000000000000000000000000815260040161076c90615b59565b60405180910390fd5b8b60018d6040516107869190615993565b908152602001604051809103902060000190805190602001906107aa929190614a05565b508a60018d6040516107bc9190615993565b908152602001604051809103902060010190805190602001906107e0929190614a05565b508960018d6040516107f29190615993565b90815260200160405180910390206002019080519060200190610816929190614a05565b508860018d6040516108289190615993565b9081526020016040518091039020600301908051906020019061084c929190614a05565b508760018d60405161085e9190615993565b90815260200160405180910390206004019080519060200190610882929190614a05565b508660018d6040516108949190615993565b908152602001604051809103902060050190805190602001906108b8929190614a05565b508560018d6040516108ca9190615993565b908152602001604051809103902060060190805190602001906108ee929190614a05565b508460018d6040516109009190615993565b90815260200160405180910390206007019080519060200190610924929190614a05565b508360018d6040516109369190615993565b9081526020016040518091039020600801908051906020019061095a929190614a05565b508260018d60405161096c9190615993565b90815260200160405180910390206009019080519060200190610990929190614a05565b50816000015160018d6040516109a69190615993565b9081526020016040518091039020600a0160000190805190602001906109cd929190614a05565b50816020015160018d6040516109e39190615993565b9081526020016040518091039020600a016001019080519060200190610a0a929190614a05565b50816040015160018d604051610a209190615993565b9081526020016040518091039020600a016002019080519060200190610a47929190614a05565b50816060015160018d604051610a5d9190615993565b9081526020016040518091039020600a016003019080519060200190610a84929190614a05565b50816080015160018d604051610a9a9190615993565b9081526020016040518091039020600a016004019080519060200190610ac1929190614a05565b508a60038c604051610ad39190615993565b90815260200160405180910390206001019080519060200190610af7929190614a05565b50505050505050505050505050565b606060008054906101000a900473ffffffffffffffffffffffffffffffffffffffff1673ffffffffffffffffffffffffffffffffffffffff163373ffffffffffffffffffffffffffffffffffffffff1614610b96576040517f08c379a0000000000000000000000000000000000000000000000000000000008152600401610b8d9061589c565b60405180910390fd5b6004805480602002602001604051908101604052809291908181526020016000905b82821015610c64578382906000526020600020018054610bd7906158eb565b80601f0160208091040260200160405190810160405280929190818152602001828054610c03906158eb565b8015610c505780601f10610c2557610100808354040283529160200191610c50565b820191906000526020600020905b815481529060010190602001808311610c3357829003601f168201915b505050505081526020019060010190610bb8565b50505050905090565b600381805160208101820180518482526020830160208501208183528095505050505050600091509050806000018054610ca6906158eb565b80601f0160208091040260200160405190810160405280929190818152602001828054610cd2906158eb565b8015610d1f5780601f10610cf457610100808354040283529160200191610d1f565b820191906000526020600020905b815481529060010190602001808311610d0257829003601f168201915b505050505090806001018054610d34906158eb565b80601f0160208091040260200160405190810160405280929190818152602001828054610d60906158eb565b8015610dad5780601f10610d8257610100808354040283529160200191610dad565b820191906000526020600020905b815481529060010190602001808311610d9057829003601f168201915b505050505090806002018054610dc2906158eb565b80601f0160208091040260200160405190810160405280929190818152602001828054610dee906158eb565b8015610e3b5780601f10610e1057610100808354040283529160200191610e3b565b820191906000526020600020905b815481529060010190602001808311610e1e57829003601f168201915b505050505090806003018054610e50906158eb565b80601f0160208091040260200160405190810160405280929190818152602001828054610e7c906158eb565b8015610ec95780601f10610e9e57610100808354040283529160200191610ec9565b820191906000526020600020905b815481529060010190602001808311610eac57829003601f168201915b505050505090806004018054610ede906158eb565b80601f0160208091040260200160405190810160405280929190818152602001828054610f0a906158eb565b8015610f575780601f10610f2c57610100808354040283529160200191610f57565b820191906000526020600020905b815481529060010190602001808311610f3a57829003601f168201915b505050505090806005018054610f6c906158eb565b80601f0160208091040260200160405190810160405280929190818152602001828054610f98906158eb565b8015610fe55780601f10610fba57610100808354040283529160200191610fe5565b820191906000526020600020905b815481529060010190602001808311610fc857829003601f168201915b505050505090806006018054610ffa906158eb565b80601f0160208091040260200160405190810160405280929190818152602001828054611026906158eb565b80156110735780601f1061104857610100808354040283529160200191611073565b820191906000526020600020905b81548152906001019060200180831161105657829003601f168201915b505050505090806007018054611088906158eb565b80601f01602080910402602001604051908101604052809291908181526020018280546110b4906158eb565b80156111015780601f106110d657610100808354040283529160200191611101565b820191906000526020600020905b8154815290600101906020018083116110e457829003601f168201915b505050505090806008018054611116906158eb565b80601f0160208091040260200160405190810160405280929190818152602001828054611142906158eb565b801561118f5780601f106111645761010080835404028352916020019161118f565b820191906000526020600020905b81548152906001019060200180831161117257829003601f168201915b5050505050908060090180546111a4906158eb565b80601f01602080910402602001604051908101604052809291908181526020018280546111d0906158eb565b801561121d5780601f106111f25761010080835404028352916020019161121d565b820191906000526020600020905b81548152906001019060200180831161120057829003601f168201915b50505050509080600a016040518060a0016040529081600082018054611242906158eb565b80601f016020809104026020016040519081016040528092919081815260200182805461126e906158eb565b80156112bb5780601f10611290576101008083540402835291602001916112bb565b820191906000526020600020905b81548152906001019060200180831161129e57829003601f168201915b505050505081526020016001820180546112d4906158eb565b80601f0160208091040260200160405190810160405280929190818152602001828054611300906158eb565b801561134d5780601f106113225761010080835404028352916020019161134d565b820191906000526020600020905b81548152906001019060200180831161133057829003601f168201915b50505050508152602001600282018054611366906158eb565b80601f0160208091040260200160405190810160405280929190818152602001828054611392906158eb565b80156113df5780601f106113b4576101008083540402835291602001916113df565b820191906000526020600020905b8154815290600101906020018083116113c257829003601f168201915b505050505081526020016003820180546113f8906158eb565b80601f0160208091040260200160405190810160405280929190818152602001828054611424906158eb565b80156114715780601f1061144657610100808354040283529160200191611471565b820191906000526020600020905b81548152906001019060200180831161145457829003601f168201915b5050505050815260200160048201805461148a906158eb565b80601f01602080910402602001604051908101604052809291908181526020018280546114b6906158eb565b80156115035780601f106114d857610100808354040283529160200191611503565b820191906000526020600020905b8154815290600101906020018083116114e657829003601f168201915b50505050508152505090508b565b60008054906101000a900473ffffffffffffffffffffffffffffffffffffffff1673ffffffffffffffffffffffffffffffffffffffff163373ffffffffffffffffffffffffffffffffffffffff161461159f576040517f08c379a00000000000000000000000000000000000000000000000000000000081526004016115969061589c565b60405180910390fd5b6009816040516115af9190615993565b9081526020016040518091039020600080820160006115ce9190614a8b565b6001820160006115de9190614a8b565b505050565b606060008054906101000a900473ffffffffffffffffffffffffffffffffffffffff1673ffffffffffffffffffffffffffffffffffffffff163373ffffffffffffffffffffffffffffffffffffffff1614611673576040517f08c379a000000000000000000000000000000000000000000000000000000000815260040161166a9061589c565b60405180910390fd5b6005805480602002602001604051908101604052809291908181526020016000905b828210156117415783829060005260206000200180546116b4906158eb565b80601f01602080910402602001604051908101604052809291908181526020018280546116e0906158eb565b801561172d5780601f106117025761010080835404028352916020019161172d565b820191906000526020600020905b81548152906001019060200180831161171057829003601f168201915b505050505081526020019060010190611695565b50505050905090565b6117526149a5565b60008054906101000a900473ffffffffffffffffffffffffffffffffffffffff1673ffffffffffffffffffffffffffffffffffffffff163373ffffffffffffffffffffffffffffffffffffffff16146117e0576040517f08c379a00000000000000000000000000000000000000000000000000000000081526004016117d79061589c565b60405180910390fd5b81600790805190602001906117f6929190614a05565b506001826040516118079190615993565b908152602001604051809103902060405180610160016040529081600082018054611831906158eb565b80601f016020809104026020016040519081016040528092919081815260200182805461185d906158eb565b80156118aa5780601f1061187f576101008083540402835291602001916118aa565b820191906000526020600020905b81548152906001019060200180831161188d57829003601f168201915b505050505081526020016001820180546118c3906158eb565b80601f01602080910402602001604051908101604052809291908181526020018280546118ef906158eb565b801561193c5780601f106119115761010080835404028352916020019161193c565b820191906000526020600020905b81548152906001019060200180831161191f57829003601f168201915b50505050508152602001600282018054611955906158eb565b80601f0160208091040260200160405190810160405280929190818152602001828054611981906158eb565b80156119ce5780601f106119a3576101008083540402835291602001916119ce565b820191906000526020600020905b8154815290600101906020018083116119b157829003601f168201915b505050505081526020016003820180546119e7906158eb565b80601f0160208091040260200160405190810160405280929190818152602001828054611a13906158eb565b8015611a605780601f10611a3557610100808354040283529160200191611a60565b820191906000526020600020905b815481529060010190602001808311611a4357829003601f168201915b50505050508152602001600482018054611a79906158eb565b80601f0160208091040260200160405190810160405280929190818152602001828054611aa5906158eb565b8015611af25780601f10611ac757610100808354040283529160200191611af2565b820191906000526020600020905b815481529060010190602001808311611ad557829003601f168201915b50505050508152602001600582018054611b0b906158eb565b80601f0160208091040260200160405190810160405280929190818152602001828054611b37906158eb565b8015611b845780601f10611b5957610100808354040283529160200191611b84565b820191906000526020600020905b815481529060010190602001808311611b6757829003601f168201915b50505050508152602001600682018054611b9d906158eb565b80601f0160208091040260200160405190810160405280929190818152602001828054611bc9906158eb565b8015611c165780601f10611beb57610100808354040283529160200191611c16565b820191906000526020600020905b815481529060010190602001808311611bf957829003601f168201915b50505050508152602001600782018054611c2f906158eb565b80601f0160208091040260200160405190810160405280929190818152602001828054611c5b906158eb565b8015611ca85780601f10611c7d57610100808354040283529160200191611ca8565b820191906000526020600020905b815481529060010190602001808311611c8b57829003601f168201915b50505050508152602001600882018054611cc1906158eb565b80601f0160208091040260200160405190810160405280929190818152602001828054611ced906158eb565b8015611d3a5780601f10611d0f57610100808354040283529160200191611d3a565b820191906000526020600020905b815481529060010190602001808311611d1d57829003601f168201915b50505050508152602001600982018054611d53906158eb565b80601f0160208091040260200160405190810160405280929190818152602001828054611d7f906158eb565b8015611dcc5780601f10611da157610100808354040283529160200191611dcc565b820191906000526020600020905b815481529060010190602001808311611daf57829003601f168201915b50505050508152602001600a82016040518060a0016040529081600082018054611df5906158eb565b80601f0160208091040260200160405190810160405280929190818152602001828054611e21906158eb565b8015611e6e5780601f10611e4357610100808354040283529160200191611e6e565b820191906000526020600020905b815481529060010190602001808311611e5157829003601f168201915b50505050508152602001600182018054611e87906158eb565b80601f0160208091040260200160405190810160405280929190818152602001828054611eb3906158eb565b8015611f005780601f10611ed557610100808354040283529160200191611f00565b820191906000526020600020905b815481529060010190602001808311611ee357829003601f168201915b50505050508152602001600282018054611f19906158eb565b80601f0160208091040260200160405190810160405280929190818152602001828054611f45906158eb565b8015611f925780601f10611f6757610100808354040283529160200191611f92565b820191906000526020600020905b815481529060010190602001808311611f7557829003601f168201915b50505050508152602001600382018054611fab906158eb565b80601f0160208091040260200160405190810160405280929190818152602001828054611fd7906158eb565b80156120245780601f10611ff957610100808354040283529160200191612024565b820191906000526020600020905b81548152906001019060200180831161200757829003601f168201915b5050505050815260200160048201805461203d906158eb565b80601f0160208091040260200160405190810160405280929190818152602001828054612069906158eb565b80156120b65780601f1061208b576101008083540402835291602001916120b6565b820191906000526020600020905b81548152906001019060200180831161209957829003601f168201915b505050505081525050815250509050919050565b60008054906101000a900473ffffffffffffffffffffffffffffffffffffffff1673ffffffffffffffffffffffffffffffffffffffff163373ffffffffffffffffffffffffffffffffffffffff1614612158576040517f08c379a000000000000000000000000000000000000000000000000000000000815260040161214f9061589c565b60405180910390fd5b806001836040516121699190615993565b9081526020016040518091039020600a016000019080519060200190612190929190614a05565b505050565b80600c8190555050565b600780546121ac906158eb565b80601f01602080910402602001604051908101604052809291908181526020018280546121d8906158eb565b80156122255780601f106121fa57610100808354040283529160200191612225565b820191906000526020600020905b81548152906001019060200180831161220857829003601f168201915b505050505081565b600a81805160208101820180518482526020830160208501208183528095505050505050600091509050806000018054612266906158eb565b80601f0160208091040260200160405190810160405280929190818152602001828054612292906158eb565b80156122df5780601f106122b4576101008083540402835291602001916122df565b820191906000526020600020905b8154815290600101906020018083116122c257829003601f168201915b5050505050908060010180546122f4906158eb565b80601f0160208091040260200160405190810160405280929190818152602001828054612320906158eb565b801561236d5780601f106123425761010080835404028352916020019161236d565b820191906000526020600020905b81548152906001019060200180831161235057829003601f168201915b505050505090806002018054612382906158eb565b80601f01602080910402602001604051908101604052809291908181526020018280546123ae906158eb565b80156123fb5780601f106123d0576101008083540402835291602001916123fb565b820191906000526020600020905b8154815290600101906020018083116123de57829003601f168201915b505050505090806003018054612410906158eb565b80601f016020809104026020016040519081016040528092919081815260200182805461243c906158eb565b80156124895780601f1061245e57610100808354040283529160200191612489565b820191906000526020600020905b81548152906001019060200180831161246c57829003601f168201915b5050505050905084565b606060008054906101000a900473ffffffffffffffffffffffffffffffffffffffff1673ffffffffffffffffffffffffffffffffffffffff163373ffffffffffffffffffffffffffffffffffffffff1614612523576040517f08c379a000000000000000000000000000000000000000000000000000000000815260040161251a9061589c565b60405180910390fd5b6009826040516125339190615993565b9081526020016040518091039020600101805461254f906158eb565b80601f016020809104026020016040519081016040528092919081815260200182805461257b906158eb565b80156125c85780601f1061259d576101008083540402835291602001916125c8565b820191906000526020600020905b8154815290600101906020018083116125ab57829003601f168201915b50505050509050919050565b60018180516020810182018051848252602083016020850120818352809550505050505060009150905080600001805461260d906158eb565b80601f0160208091040260200160405190810160405280929190818152602001828054612639906158eb565b80156126865780601f1061265b57610100808354040283529160200191612686565b820191906000526020600020905b81548152906001019060200180831161266957829003601f168201915b50505050509080600101805461269b906158eb565b80601f01602080910402602001604051908101604052809291908181526020018280546126c7906158eb565b80156127145780601f106126e957610100808354040283529160200191612714565b820191906000526020600020905b8154815290600101906020018083116126f757829003601f168201915b505050505090806002018054612729906158eb565b80601f0160208091040260200160405190810160405280929190818152602001828054612755906158eb565b80156127a25780601f10612777576101008083540402835291602001916127a2565b820191906000526020600020905b81548152906001019060200180831161278557829003601f168201915b5050505050908060030180546127b7906158eb565b80601f01602080910402602001604051908101604052809291908181526020018280546127e3906158eb565b80156128305780601f1061280557610100808354040283529160200191612830565b820191906000526020600020905b81548152906001019060200180831161281357829003601f168201915b505050505090806004018054612845906158eb565b80601f0160208091040260200160405190810160405280929190818152602001828054612871906158eb565b80156128be5780601f10612893576101008083540402835291602001916128be565b820191906000526020600020905b8154815290600101906020018083116128a157829003601f168201915b5050505050908060050180546128d3906158eb565b80601f01602080910402602001604051908101604052809291908181526020018280546128ff906158eb565b801561294c5780601f106129215761010080835404028352916020019161294c565b820191906000526020600020905b81548152906001019060200180831161292f57829003601f168201915b505050505090806006018054612961906158eb565b80601f016020809104026020016040519081016040528092919081815260200182805461298d906158eb565b80156129da5780601f106129af576101008083540402835291602001916129da565b820191906000526020600020905b8154815290600101906020018083116129bd57829003601f168201915b5050505050908060070180546129ef906158eb565b80601f0160208091040260200160405190810160405280929190818152602001828054612a1b906158eb565b8015612a685780601f10612a3d57610100808354040283529160200191612a68565b820191906000526020600020905b815481529060010190602001808311612a4b57829003601f168201915b505050505090806008018054612a7d906158eb565b80601f0160208091040260200160405190810160405280929190818152602001828054612aa9906158eb565b8015612af65780601f10612acb57610100808354040283529160200191612af6565b820191906000526020600020905b815481529060010190602001808311612ad957829003601f168201915b505050505090806009018054612b0b906158eb565b80601f0160208091040260200160405190810160405280929190818152602001828054612b37906158eb565b8015612b845780601f10612b5957610100808354040283529160200191612b84565b820191906000526020600020905b815481529060010190602001808311612b6757829003601f168201915b50505050509080600a016040518060a0016040529081600082018054612ba9906158eb565b80601f0160208091040260200160405190810160405280929190818152602001828054612bd5906158eb565b8015612c225780601f10612bf757610100808354040283529160200191612c22565b820191906000526020600020905b815481529060010190602001808311612c0557829003601f168201915b50505050508152602001600182018054612c3b906158eb565b80601f0160208091040260200160405190810160405280929190818152602001828054612c67906158eb565b8015612cb45780601f10612c8957610100808354040283529160200191612cb4565b820191906000526020600020905b815481529060010190602001808311612c9757829003601f168201915b50505050508152602001600282018054612ccd906158eb565b80601f0160208091040260200160405190810160405280929190818152602001828054612cf9906158eb565b8015612d465780601f10612d1b57610100808354040283529160200191612d46565b820191906000526020600020905b815481529060010190602001808311612d2957829003601f168201915b50505050508152602001600382018054612d5f906158eb565b80601f0160208091040260200160405190810160405280929190818152602001828054612d8b906158eb565b8015612dd85780601f10612dad57610100808354040283529160200191612dd8565b820191906000526020600020905b815481529060010190602001808311612dbb57829003601f168201915b50505050508152602001600482018054612df1906158eb565b80601f0160208091040260200160405190810160405280929190818152602001828054612e1d906158eb565b8015612e6a5780601f10612e3f57610100808354040283529160200191612e6a565b820191906000526020600020905b815481529060010190602001808311612e4d57829003601f168201915b50505050508152505090508b565b60008054906101000a900473ffffffffffffffffffffffffffffffffffffffff1673ffffffffffffffffffffffffffffffffffffffff163373ffffffffffffffffffffffffffffffffffffffff1614612f06576040517f08c379a0000000000000000000000000000000000000000000000000000000008152600401612efd9061589c565b60405180910390fd5b6000600182604051612f189190615993565b908152602001604051809103902060008082016000612f379190614a8b565b600182016000612f479190614a8b565b600282016000612f579190614a8b565b600382016000612f679190614a8b565b600482016000612f779190614a8b565b600582016000612f879190614a8b565b600682016000612f979190614a8b565b600782016000612fa79190614a8b565b600882016000612fb79190614a8b565b600982016000612fc79190614a8b565b600a820160008082016000612fdc9190614a8b565b600182016000612fec9190614a8b565b600282016000612ffc9190614a8b565b60038201600061300c9190614a8b565b60048201600061301c9190614a8b565b5050505060005b6004805490508110156131fe57826040516020016130419190615993565b604051602081830303815290604052805190602001206004828154811061306b5761306a615b79565b5b906000526020600020016040516020016130859190615a3e565b604051602081830303815290604052805190602001200361311c5760016004805490506130b29190615bd7565b81036130ed5760048054806130ca576130c9615c0b565b5b6001900381819060005260206000200160006130e69190614a8b565b90556131fe565b6004818154811061310157613100615b79565b5b9060005260206000200160006131179190614a8b565b600191505b60018214801561313c575060016004805490506131399190615bd7565b81105b156131a25760046001826131509190615c3a565b8154811061316157613160615b79565b5b906000526020600020016004828154811061317f5761317e615b79565b5b90600052602060002001908054613195906158eb565b6131a0929190614acb565b505b60016004805490506131b49190615bd7565b81036131eb5760048054806131cc576131cb615c0b565b5b6001900381819060005260206000200160006131e89190614a8b565b90555b80806131f690615c90565b915050613023565b50600090505050565b60008054906101000a900473ffffffffffffffffffffffffffffffffffffffff1673ffffffffffffffffffffffffffffffffffffffff163373ffffffffffffffffffffffffffffffffffffffff1614613295576040517f08c379a000000000000000000000000000000000000000000000000000000000815260040161328c9061589c565b60405180910390fd5b6000600a826040516132a79190615993565b9081526020016040518091039020600080820160006132c69190614a8b565b6001820160006132d69190614a8b565b6002820160006132e69190614a8b565b6003820160006132f69190614a8b565b505060005b6005805490508110156134d657826040516020016133199190615993565b604051602081830303815290604052805190602001206005828154811061334357613342615b79565b5b9060005260206000200160405160200161335d9190615a3e565b60405160208183030381529060405280519060200120036133f457600160058054905061338a9190615bd7565b81036133c55760058054806133a2576133a1615c0b565b5b6001900381819060005260206000200160006133be9190614a8b565b90556134d6565b600581815481106133d9576133d8615b79565b5b9060005260206000200160006133ef9190614a8b565b600191505b600182148015613414575060016005805490506134119190615bd7565b81105b1561347a5760056001826134289190615c3a565b8154811061343957613438615b79565b5b906000526020600020016005828154811061345757613456615b79565b5b9060005260206000200190805461346d906158eb565b613478929190614acb565b505b600160058054905061348c9190615bd7565b81036134c35760058054806134a4576134a3615c0b565b5b6001900381819060005260206000200160006134c09190614a8b565b90555b80806134ce90615c90565b9150506132fb565b50600090505050565b6000600c54905090565b60008054906101000a900473ffffffffffffffffffffffffffffffffffffffff1673ffffffffffffffffffffffffffffffffffffffff163373ffffffffffffffffffffffffffffffffffffffff1614613577576040517f08c379a000000000000000000000000000000000000000000000000000000000815260040161356e9061589c565b60405180910390fd5b6040516020016135869061594d565b604051602081830303815290604052805190602001206009836040516135ac9190615993565b90815260200160405180910390206000016040516020016135cd9190615a3e565b6040516020818303038152906040528051906020012014613623576040517f08c379a000000000000000000000000000000000000000000000000000000000815260040161361a90615d24565b60405180910390fd5b816009836040516136349190615993565b90815260200160405180910390206000019080519060200190613658929190614a05565b508060098360405161366a9190615993565b9081526020016040518091039020600101908051906020019061368e929190614a05565b505050565b60008054906101000a900473ffffffffffffffffffffffffffffffffffffffff1673ffffffffffffffffffffffffffffffffffffffff163373ffffffffffffffffffffffffffffffffffffffff1614613721576040517f08c379a00000000000000000000000000000000000000000000000000000000081526004016137189061589c565b60405180910390fd5b60058490806001815401808255809150506001900390600052602060002001600090919091909150908051906020019061375c929190614a05565b5083600a8560405161376e9190615993565b90815260200160405180910390206000019080519060200190613792929190614a05565b5082600a856040516137a49190615993565b908152602001604051809103902060010190805190602001906137c8929190614a05565b5081600a856040516137da9190615993565b908152602001604051809103902060020190805190602001906137fe929190614a05565b5080600a856040516138109190615993565b90815260200160405180910390206003019080519060200190613834929190614a05565b5050505050565b600981805160208101820180518482526020830160208501208183528095505050505050600091509050806000018054613874906158eb565b80601f01602080910402602001604051908101604052809291908181526020018280546138a0906158eb565b80156138ed5780601f106138c2576101008083540402835291602001916138ed565b820191906000526020600020905b8154815290600101906020018083116138d057829003601f168201915b505050505090806001018054613902906158eb565b80601f016020809104026020016040519081016040528092919081815260200182805461392e906158eb565b801561397b5780601f106139505761010080835404028352916020019161397b565b820191906000526020600020905b81548152906001019060200180831161395e57829003601f168201915b5050505050905082565b6002818051602081018201805184825260208301602085012081835280955050505050506000915090508060000180546139be906158eb565b80601f01602080910402602001604051908101604052809291908181526020018280546139ea906158eb565b8015613a375780601f10613a0c57610100808354040283529160200191613a37565b820191906000526020600020905b815481529060010190602001808311613a1a57829003601f168201915b505050505090806001018054613a4c906158eb565b80601f0160208091040260200160405190810160405280929190818152602001828054613a78906158eb565b8015613ac55780601f10613a9a57610100808354040283529160200191613ac5565b820191906000526020600020905b815481529060010190602001808311613aa857829003601f168201915b505050505090806002018054613ada906158eb565b80601f0160208091040260200160405190810160405280929190818152602001828054613b06906158eb565b8015613b535780601f10613b2857610100808354040283529160200191613b53565b820191906000526020600020905b815481529060010190602001808311613b3657829003601f168201915b505050505090806003018054613b68906158eb565b80601f0160208091040260200160405190810160405280929190818152602001828054613b94906158eb565b8015613be15780601f10613bb657610100808354040283529160200191613be1565b820191906000526020600020905b815481529060010190602001808311613bc457829003601f168201915b505050505090806004018054613bf6906158eb565b80601f0160208091040260200160405190810160405280929190818152602001828054613c22906158eb565b8015613c6f5780601f10613c4457610100808354040283529160200191613c6f565b820191906000526020600020905b815481529060010190602001808311613c5257829003601f168201915b505050505090806005018054613c84906158eb565b80601f0160208091040260200160405190810160405280929190818152602001828054613cb0906158eb565b8015613cfd5780601f10613cd257610100808354040283529160200191613cfd565b820191906000526020600020905b815481529060010190602001808311613ce057829003601f168201915b505050505090806006018054613d12906158eb565b80601f0160208091040260200160405190810160405280929190818152602001828054613d3e906158eb565b8015613d8b5780601f10613d6057610100808354040283529160200191613d8b565b820191906000526020600020905b815481529060010190602001808311613d6e57829003601f168201915b505050505090806007018054613da0906158eb565b80601f0160208091040260200160405190810160405280929190818152602001828054613dcc906158eb565b8015613e195780601f10613dee57610100808354040283529160200191613e19565b820191906000526020600020905b815481529060010190602001808311613dfc57829003601f168201915b505050505090806008018054613e2e906158eb565b80601f0160208091040260200160405190810160405280929190818152602001828054613e5a906158eb565b8015613ea75780601f10613e7c57610100808354040283529160200191613ea7565b820191906000526020600020905b815481529060010190602001808311613e8a57829003601f168201915b505050505090806009018054613ebc906158eb565b80601f0160208091040260200160405190810160405280929190818152602001828054613ee8906158eb565b8015613f355780601f10613f0a57610100808354040283529160200191613f35565b820191906000526020600020905b815481529060010190602001808311613f1857829003601f168201915b50505050509080600a016040518060a0016040529081600082018054613f5a906158eb565b80601f0160208091040260200160405190810160405280929190818152602001828054613f86906158eb565b8015613fd35780601f10613fa857610100808354040283529160200191613fd3565b820191906000526020600020905b815481529060010190602001808311613fb657829003601f168201915b50505050508152602001600182018054613fec906158eb565b80601f0160208091040260200160405190810160405280929190818152602001828054614018906158eb565b80156140655780601f1061403a57610100808354040283529160200191614065565b820191906000526020600020905b81548152906001019060200180831161404857829003601f168201915b5050505050815260200160028201805461407e906158eb565b80601f01602080910402602001604051908101604052809291908181526020018280546140aa906158eb565b80156140f75780601f106140cc576101008083540402835291602001916140f7565b820191906000526020600020905b8154815290600101906020018083116140da57829003601f168201915b50505050508152602001600382018054614110906158eb565b80601f016020809104026020016040519081016040528092919081815260200182805461413c906158eb565b80156141895780601f1061415e57610100808354040283529160200191614189565b820191906000526020600020905b81548152906001019060200180831161416c57829003601f168201915b505050505081526020016004820180546141a2906158eb565b80601f01602080910402602001604051908101604052809291908181526020018280546141ce906158eb565b801561421b5780601f106141f05761010080835404028352916020019161421b565b820191906000526020600020905b8154815290600101906020018083116141fe57829003601f168201915b50505050508152505090508b565b60008054906101000a900473ffffffffffffffffffffffffffffffffffffffff1673ffffffffffffffffffffffffffffffffffffffff163373ffffffffffffffffffffffffffffffffffffffff16146142b7576040517f08c379a00000000000000000000000000000000000000000000000000000000081526004016142ae9061589c565b60405180910390fd5b80600a836040516142c89190615993565b908152602001604051809103902060030190805190602001906142ec929190614a05565b505050565b60008054906101000a900473ffffffffffffffffffffffffffffffffffffffff1673ffffffffffffffffffffffffffffffffffffffff163373ffffffffffffffffffffffffffffffffffffffff161461437f576040517f08c379a00000000000000000000000000000000000000000000000000000000081526004016143769061589c565b60405180910390fd5b60405160200161438e9061594d565b6040516020818303038152906040528051906020012060018c6040516143b49190615993565b90815260200160405180910390206000016040516020016143d59190615a3e565b604051602081830303815290604052805190602001201461442b576040517f08c379a000000000000000000000000000000000000000000000000000000000815260040161442290615db6565b60405180910390fd5b60405160200161443a9061594d565b6040516020818303038152906040528051906020012060038b6040516144609190615993565b90815260200160405180910390206001016040516020016144819190615a3e565b60405160208183030381529060405280519060200120146144d7576040517f08c379a00000000000000000000000000000000000000000000000000000000081526004016144ce90615e48565b60405180910390fd5b60048b908060018154018082558091505060019003906000526020600020016000909190919091509080519060200190614512929190614a05565b5061451b6149a5565b8b81600001819052508a8160200181905250898160400181905250888160600181905250878160800181905250868160a00181905250858160c00181905250848160e0018190525083816101000181905250828161012001819052508160000151816101400151600001819052508160200151816101400151602001819052508160400151816101400151604001819052508160600151816101400151606001819052508160800151816101400151608001819052508060018d6040516145e29190615993565b9081526020016040518091039020600082015181600001908051906020019061460c929190614a05565b506020820151816001019080519060200190614629929190614a05565b506040820151816002019080519060200190614646929190614a05565b506060820151816003019080519060200190614663929190614a05565b506080820151816004019080519060200190614680929190614a05565b5060a082015181600501908051906020019061469d929190614a05565b5060c08201518160060190805190602001906146ba929190614a05565b5060e08201518160070190805190602001906146d7929190614a05565b506101008201518160080190805190602001906146f5929190614a05565b50610120820151816009019080519060200190614713929190614a05565b5061014082015181600a01600082015181600001908051906020019061473a929190614a05565b506020820151816001019080519060200190614757929190614a05565b506040820151816002019080519060200190614774929190614a05565b506060820151816003019080519060200190614791929190614a05565b5060808201518160040190805190602001906147ae929190614a05565b5050509050508060038c6040516147c59190615993565b908152602001604051809103902060008201518160000190805190602001906147ef929190614a05565b50602082015181600101908051906020019061480c929190614a05565b506040820151816002019080519060200190614829929190614a05565b506060820151816003019080519060200190614846929190614a05565b506080820151816004019080519060200190614863929190614a05565b5060a0820151816005019080519060200190614880929190614a05565b5060c082015181600601908051906020019061489d929190614a05565b5060e08201518160070190805190602001906148ba929190614a05565b506101008201518160080190805190602001906148d8929190614a05565b506101208201518160090190805190602001906148f6929190614a05565b5061014082015181600a01600082015181600001908051906020019061491d929190614a05565b50602082015181600101908051906020019061493a929190614a05565b506040820151816002019080519060200190614957929190614a05565b506060820151816003019080519060200190614974929190614a05565b506080820151816004019080519060200190614991929190614a05565b505050905050505050505050505050505050565b604051806101600160405280606081526020016060815260200160608152602001606081526020016060815260200160608152602001606081526020016060815260200160608152602001606081526020016149ff614b58565b81525090565b828054614a11906158eb565b90600052602060002090601f016020900481019282614a335760008555614a7a565b82601f10614a4c57805160ff1916838001178555614a7a565b82800160010185558215614a7a579182015b82811115614a79578251825591602001919060010190614a5e565b5b509050614a879190614b87565b5090565b508054614a97906158eb565b6000825580601f10614aa95750614ac8565b601f016020900490600052602060002090810190614ac79190614b87565b5b50565b828054614ad7906158eb565b90600052602060002090601f016020900481019282614af95760008555614b47565b82601f10614b0a5780548555614b47565b82800160010185558215614b4757600052602060002091601f016020900482015b82811115614b46578254825591600101919060010190614b2b565b5b509050614b549190614b87565b5090565b6040518060a0016040528060608152602001606081526020016060815260200160608152602001606081525090565b5b80821115614ba0576000816000905550600101614b88565b5090565b6000604051905090565b600080fd5b600080fd5b600080fd5b600080fd5b6000601f19601f8301169050919050565b7f4e487b7100000000000000000000000000000000000000000000000000000000600052604160045260246000fd5b614c0b82614bc2565b810181811067ffffffffffffffff82111715614c2a57614c29614bd3565b5b80604052505050565b6000614c3d614ba4565b9050614c498282614c02565b919050565b600067ffffffffffffffff821115614c6957614c68614bd3565b5b614c7282614bc2565b9050602081019050919050565b82818337600083830152505050565b6000614ca1614c9c84614c4e565b614c33565b905082815260208101848484011115614cbd57614cbc614bbd565b5b614cc8848285614c7f565b509392505050565b600082601f830112614ce557614ce4614bb8565b5b8135614cf5848260208601614c8e565b91505092915050565b600080fd5b600080fd5b600060a08284031215614d1e57614d1d614cfe565b5b614d2860a0614c33565b9050600082013567ffffffffffffffff811115614d4857614d47614d03565b5b614d5484828501614cd0565b600083015250602082013567ffffffffffffffff811115614d7857614d77614d03565b5b614d8484828501614cd0565b602083015250604082013567ffffffffffffffff811115614da857614da7614d03565b5b614db484828501614cd0565b604083015250606082013567ffffffffffffffff811115614dd857614dd7614d03565b5b614de484828501614cd0565b606083015250608082013567ffffffffffffffff811115614e0857614e07614d03565b5b614e1484828501614cd0565b60808301525092915050565b60008060008060008060008060008060006101608c8e031215614e4657614e45614bae565b5b60008c013567ffffffffffffffff811115614e6457614e63614bb3565b5b614e708e828f01614cd0565b9b505060208c013567ffffffffffffffff811115614e9157614e90614bb3565b5b614e9d8e828f01614cd0565b9a505060408c013567ffffffffffffffff811115614ebe57614ebd614bb3565b5b614eca8e828f01614cd0565b99505060608c013567ffffffffffffffff811115614eeb57614eea614bb3565b5b614ef78e828f01614cd0565b98505060808c013567ffffffffffffffff811115614f1857614f17614bb3565b5b614f248e828f01614cd0565b97505060a08c013567ffffffffffffffff811115614f4557614f44614bb3565b5b614f518e828f01614cd0565b96505060c08c013567ffffffffffffffff811115614f7257614f71614bb3565b5b614f7e8e828f01614cd0565b95505060e08c013567ffffffffffffffff811115614f9f57614f9e614bb3565b5b614fab8e828f01614cd0565b9450506101008c013567ffffffffffffffff811115614fcd57614fcc614bb3565b5b614fd98e828f01614cd0565b9350506101208c013567ffffffffffffffff811115614ffb57614ffa614bb3565b5b6150078e828f01614cd0565b9250506101408c013567ffffffffffffffff81111561502957615028614bb3565b5b6150358e828f01614d08565b9150509295989b509295989b9093969950565b600081519050919050565b600082825260208201905092915050565b6000819050602082019050919050565b600081519050919050565b600082825260208201905092915050565b60005b838110156150ae578082015181840152602081019050615093565b838111156150bd576000848401525b50505050565b60006150ce82615074565b6150d8818561507f565b93506150e8818560208601615090565b6150f181614bc2565b840191505092915050565b600061510883836150c3565b905092915050565b6000602082019050919050565b600061512882615048565b6151328185615053565b93508360208202850161514485615064565b8060005b85811015615180578484038952815161516185826150fc565b945061516c83615110565b925060208a01995050600181019050615148565b50829750879550505050505092915050565b600060208201905081810360008301526151ac818461511d565b905092915050565b6000602082840312156151ca576151c9614bae565b5b600082013567ffffffffffffffff8111156151e8576151e7614bb3565b5b6151f484828501614cd0565b91505092915050565b600082825260208201905092915050565b600061521982615074565b61522381856151fd565b9350615233818560208601615090565b61523c81614bc2565b840191505092915050565b600060a083016000830151848203600086015261526482826150c3565b9150506020830151848203602086015261527e82826150c3565b9150506040830151848203604086015261529882826150c3565b915050606083015184820360608601526152b282826150c3565b915050608083015184820360808601526152cc82826150c3565b9150508091505092915050565b60006101608201905081810360008301526152f4818e61520e565b90508181036020830152615308818d61520e565b9050818103604083015261531c818c61520e565b90508181036060830152615330818b61520e565b90508181036080830152615344818a61520e565b905081810360a0830152615358818961520e565b905081810360c083015261536c818861520e565b905081810360e0830152615380818761520e565b9050818103610100830152615395818661520e565b90508181036101208301526153aa818561520e565b90508181036101408301526153bf8184615247565b90509c9b505050505050505050505050565b600060a08301600083015184820360008601526153ee82826150c3565b9150506020830151848203602086015261540882826150c3565b9150506040830151848203604086015261542282826150c3565b9150506060830151848203606086015261543c82826150c3565b9150506080830151848203608086015261545682826150c3565b9150508091505092915050565b600061016083016000830151848203600086015261548182826150c3565b9150506020830151848203602086015261549b82826150c3565b915050604083015184820360408601526154b582826150c3565b915050606083015184820360608601526154cf82826150c3565b915050608083015184820360808601526154e982826150c3565b91505060a083015184820360a086015261550382826150c3565b91505060c083015184820360c086015261551d82826150c3565b91505060e083015184820360e086015261553782826150c3565b91505061010083015184820361010086015261555382826150c3565b91505061012083015184820361012086015261556f82826150c3565b91505061014083015184820361014086015261558b82826153d1565b9150508091505092915050565b600060208201905081810360008301526155b28184615463565b905092915050565b600080604083850312156155d1576155d0614bae565b5b600083013567ffffffffffffffff8111156155ef576155ee614bb3565b5b6155fb85828601614cd0565b925050602083013567ffffffffffffffff81111561561c5761561b614bb3565b5b61562885828601614cd0565b9150509250929050565b6000819050919050565b61564581615632565b811461565057600080fd5b50565b6000813590506156628161563c565b92915050565b60006020828403121561567e5761567d614bae565b5b600061568c84828501615653565b91505092915050565b600060208201905081810360008301526156af818461520e565b905092915050565b600060808201905081810360008301526156d1818761520e565b905081810360208301526156e5818661520e565b905081810360408301526156f9818561520e565b9050818103606083015261570d818461520e565b905095945050505050565b61572181615632565b82525050565b600060208201905061573c6000830184615718565b92915050565b6000806000806080858703121561575c5761575b614bae565b5b600085013567ffffffffffffffff81111561577a57615779614bb3565b5b61578687828801614cd0565b945050602085013567ffffffffffffffff8111156157a7576157a6614bb3565b5b6157b387828801614cd0565b935050604085013567ffffffffffffffff8111156157d4576157d3614bb3565b5b6157e087828801614cd0565b925050606085013567ffffffffffffffff81111561580157615800614bb3565b5b61580d87828801614cd0565b91505092959194509250565b60006040820190508181036000830152615833818561520e565b90508181036020830152615847818461520e565b90509392505050565b7f596f752063616e20757365207468697320636f6e747261637400000000000000600082015250565b60006158866019836151fd565b915061589182615850565b602082019050919050565b600060208201905081810360008301526158b581615879565b9050919050565b7f4e487b7100000000000000000000000000000000000000000000000000000000600052602260045260246000fd5b6000600282049050600182168061590357607f821691505b602082108103615916576159156158bc565b5b50919050565b600081905092915050565b50565b600061593760008361591c565b915061594282615927565b600082019050919050565b60006159588261592a565b9150819050919050565b600061596d82615074565b615977818561591c565b9350615987818560208601615090565b80840191505092915050565b600061599f8284615962565b915081905092915050565b60008190508160005260206000209050919050565b600081546159cc816158eb565b6159d6818661591c565b945060018216600081146159f15760018114615a0257615a35565b60ff19831686528186019350615a35565b615a0b856159aa565b60005b83811015615a2d57815481890152600182019150602081019050615a0e565b838801955050505b50505092915050565b6000615a4a82846159bf565b915081905092915050565b7f74686973206d656d62657220697320616c726561647920657869737420696e2060008201527f6368616e67650000000000000000000000000000000000000000000000000000602082015250565b6000615ab16026836151fd565b9150615abc82615a55565b604082019050919050565b60006020820190508181036000830152615ae081615aa4565b9050919050565b7f74686973206e616d6520697320616c726561647920657869737420696e20636860008201527f616e676500000000000000000000000000000000000000000000000000000000602082015250565b6000615b436024836151fd565b9150615b4e82615ae7565b604082019050919050565b60006020820190508181036000830152615b7281615b36565b9050919050565b7f4e487b7100000000000000000000000000000000000000000000000000000000600052603260045260246000fd5b7f4e487b7100000000000000000000000000000000000000000000000000000000600052601160045260246000fd5b6000615be282615632565b9150615bed83615632565b925082821015615c0057615bff615ba8565b5b828203905092915050565b7f4e487b7100000000000000000000000000000000000000000000000000000000600052603160045260246000fd5b6000615c4582615632565b9150615c5083615632565b9250827fffffffffffffffffffffffffffffffffffffffffffffffffffffffffffffffff03821115615c8557615c84615ba8565b5b828201905092915050565b6000615c9b82615632565b91507fffffffffffffffffffffffffffffffffffffffffffffffffffffffffffffffff8203615ccd57615ccc615ba8565b5b600182019050919050565b7f74686973206d616e6167657220697320616c7265616479206578697374000000600082015250565b6000615d0e601d836151fd565b9150615d1982615cd8565b602082019050919050565b60006020820190508181036000830152615d3d81615d01565b9050919050565b7f74686973206d656d62657220697320616c726561647920657869737420696e2060008201527f6164640000000000000000000000000000000000000000000000000000000000602082015250565b6000615da06023836151fd565b9150615dab82615d44565b604082019050919050565b60006020820190508181036000830152615dcf81615d93565b9050919050565b7f74686973206e616d6520697320616c726561647920657869737420696e20616460008201527f6400000000000000000000000000000000000000000000000000000000000000602082015250565b6000615e326021836151fd565b9150615e3d82615dd6565b604082019050919050565b60006020820190508181036000830152615e6181615e25565b905091905056fea2646970667358221220c889c56ac394df62e023c18f8d22e87215f28917b9e934c78d4e6e4ad3717d7e64736f6c634300080e0033",
			"opcodes": "PUSH1 0x80 PUSH1 0x40 MSTORE CALLVALUE DUP1 ISZERO PUSH2 0x10 JUMPI PUSH1 0x0 DUP1 REVERT JUMPDEST POP CALLER PUSH1 0x0 DUP1 PUSH2 0x100 EXP DUP2 SLOAD DUP2 PUSH20 0xFFFFFFFFFFFFFFFFFFFFFFFFFFFFFFFFFFFFFFFF MUL NOT AND SWAP1 DUP4 PUSH20 0xFFFFFFFFFFFFFFFFFFFFFFFFFFFFFFFFFFFFFFFF AND MUL OR SWAP1 SSTORE POP PUSH2 0x5E9E DUP1 PUSH3 0x61 PUSH1 0x0 CODECOPY PUSH1 0x0 RETURN INVALID PUSH1 0x80 PUSH1 0x40 MSTORE CALLVALUE DUP1 ISZERO PUSH2 0x10 JUMPI PUSH1 0x0 DUP1 REVERT JUMPDEST POP PUSH1 0x4 CALLDATASIZE LT PUSH2 0x137 JUMPI PUSH1 0x0 CALLDATALOAD PUSH1 0xE0 SHR DUP1 PUSH4 0x73A8BB3B GT PUSH2 0xB8 JUMPI DUP1 PUSH4 0xA526EECE GT PUSH2 0x7C JUMPI DUP1 PUSH4 0xA526EECE EQ PUSH2 0x363 JUMPI DUP1 PUSH4 0xAEAC0BB1 EQ PUSH2 0x37F JUMPI DUP1 PUSH4 0xCF65DAEA EQ PUSH2 0x39B JUMPI DUP1 PUSH4 0xDB9F0B57 EQ PUSH2 0x3CC JUMPI DUP1 PUSH4 0xDC3F11D9 EQ PUSH2 0x406 JUMPI DUP1 PUSH4 0xFD2E5E61 EQ PUSH2 0x422 JUMPI PUSH2 0x137 JUMP JUMPDEST DUP1 PUSH4 0x73A8BB3B EQ PUSH2 0x2A3 JUMPI DUP1 PUSH4 0x7B5A1BE2 EQ PUSH2 0x2D3 JUMPI DUP1 PUSH4 0x7BA8E3D2 EQ PUSH2 0x30D JUMPI DUP1 PUSH4 0x7F1D1006 EQ PUSH2 0x329 JUMPI DUP1 PUSH4 0x98649088 EQ PUSH2 0x345 JUMPI PUSH2 0x137 JUMP JUMPDEST DUP1 PUSH4 0x5F102C42 GT PUSH2 0xFF JUMPI DUP1 PUSH4 0x5F102C42 EQ PUSH2 0x1EA JUMPI DUP1 PUSH4 0x60160B2F EQ PUSH2 0x21A JUMPI DUP1 PUSH4 0x6057361D EQ PUSH2 0x236 JUMPI DUP1 PUSH4 0x63CE15BB EQ PUSH2 0x252 JUMPI DUP1 PUSH4 0x66773EE3 EQ PUSH2 0x270 JUMPI PUSH2 0x137 JUMP JUMPDEST DUP1 PUSH4 0x192FF1CA EQ PUSH2 0x13C JUMPI DUP1 PUSH4 0x2150C518 EQ PUSH2 0x158 JUMPI DUP1 PUSH4 0x2CA80A61 EQ PUSH2 0x176 JUMPI DUP1 PUSH4 0x2FED5620 EQ PUSH2 0x1B0 JUMPI DUP1 PUSH4 0x3D7E8E2F EQ PUSH2 0x1CC JUMPI JUMPDEST PUSH1 0x0 DUP1 REVERT JUMPDEST PUSH2 0x156 PUSH1 0x4 DUP1 CALLDATASIZE SUB DUP2 ADD SWAP1 PUSH2 0x151 SWAP2 SWAP1 PUSH2 0x4E20 JUMP JUMPDEST PUSH2 0x43E JUMP JUMPDEST STOP JUMPDEST PUSH2 0x160 PUSH2 0xB06 JUMP JUMPDEST PUSH1 0x40 MLOAD PUSH2 0x16D SWAP2 SWAP1 PUSH2 0x5192 JUMP JUMPDEST PUSH1 0x40 MLOAD DUP1 SWAP2 SUB SWAP1 RETURN JUMPDEST PUSH2 0x190 PUSH1 0x4 DUP1 CALLDATASIZE SUB DUP2 ADD SWAP1 PUSH2 0x18B SWAP2 SWAP1 PUSH2 0x51B4 JUMP JUMPDEST PUSH2 0xC6D JUMP JUMPDEST PUSH1 0x40 MLOAD PUSH2 0x1A7 SWAP12 SWAP11 SWAP10 SWAP9 SWAP8 SWAP7 SWAP6 SWAP5 SWAP4 SWAP3 SWAP2 SWAP1 PUSH2 0x52D9 JUMP JUMPDEST PUSH1 0x40 MLOAD DUP1 SWAP2 SUB SWAP1 RETURN JUMPDEST PUSH2 0x1CA PUSH1 0x4 DUP1 CALLDATASIZE SUB DUP2 ADD SWAP1 PUSH2 0x1C5 SWAP2 SWAP1 PUSH2 0x51B4 JUMP JUMPDEST PUSH2 0x1511 JUMP JUMPDEST STOP JUMPDEST PUSH2 0x1D4 PUSH2 0x15E3 JUMP JUMPDEST PUSH1 0x40 MLOAD PUSH2 0x1E1 SWAP2 SWAP1 PUSH2 0x5192 JUMP JUMPDEST PUSH1 0x40 MLOAD DUP1 SWAP2 SUB SWAP1 RETURN JUMPDEST PUSH2 0x204 PUSH1 0x4 DUP1 CALLDATASIZE SUB DUP2 ADD SWAP1 PUSH2 0x1FF SWAP2 SWAP1 PUSH2 0x51B4 JUMP JUMPDEST PUSH2 0x174A JUMP JUMPDEST PUSH1 0x40 MLOAD PUSH2 0x211 SWAP2 SWAP1 PUSH2 0x5598 JUMP JUMPDEST PUSH1 0x40 MLOAD DUP1 SWAP2 SUB SWAP1 RETURN JUMPDEST PUSH2 0x234 PUSH1 0x4 DUP1 CALLDATASIZE SUB DUP2 ADD SWAP1 PUSH2 0x22F SWAP2 SWAP1 PUSH2 0x55BA JUMP JUMPDEST PUSH2 0x20CA JUMP JUMPDEST STOP JUMPDEST PUSH2 0x250 PUSH1 0x4 DUP1 CALLDATASIZE SUB DUP2 ADD SWAP1 PUSH2 0x24B SWAP2 SWAP1 PUSH2 0x5668 JUMP JUMPDEST PUSH2 0x2195 JUMP JUMPDEST STOP JUMPDEST PUSH2 0x25A PUSH2 0x219F JUMP JUMPDEST PUSH1 0x40 MLOAD PUSH2 0x267 SWAP2 SWAP1 PUSH2 0x5695 JUMP JUMPDEST PUSH1 0x40 MLOAD DUP1 SWAP2 SUB SWAP1 RETURN JUMPDEST PUSH2 0x28A PUSH1 0x4 DUP1 CALLDATASIZE SUB DUP2 ADD SWAP1 PUSH2 0x285 SWAP2 SWAP1 PUSH2 0x51B4 JUMP JUMPDEST PUSH2 0x222D JUMP JUMPDEST PUSH1 0x40 MLOAD PUSH2 0x29A SWAP5 SWAP4 SWAP3 SWAP2 SWAP1 PUSH2 0x56B7 JUMP JUMPDEST PUSH1 0x40 MLOAD DUP1 SWAP2 SUB SWAP1 RETURN JUMPDEST PUSH2 0x2BD PUSH1 0x4 DUP1 CALLDATASIZE SUB DUP2 ADD SWAP1 PUSH2 0x2B8 SWAP2 SWAP1 PUSH2 0x51B4 JUMP JUMPDEST PUSH2 0x2493 JUMP JUMPDEST PUSH1 0x40 MLOAD PUSH2 0x2CA SWAP2 SWAP1 PUSH2 0x5695 JUMP JUMPDEST PUSH1 0x40 MLOAD DUP1 SWAP2 SUB SWAP1 RETURN JUMPDEST PUSH2 0x2ED PUSH1 0x4 DUP1 CALLDATASIZE SUB DUP2 ADD SWAP1 PUSH2 0x2E8 SWAP2 SWAP1 PUSH2 0x51B4 JUMP JUMPDEST PUSH2 0x25D4 JUMP JUMPDEST PUSH1 0x40 MLOAD PUSH2 0x304 SWAP12 SWAP11 SWAP10 SWAP9 SWAP8 SWAP7 SWAP6 SWAP5 SWAP4 SWAP3 SWAP2 SWAP1 PUSH2 0x52D9 JUMP JUMPDEST PUSH1 0x40 MLOAD DUP1 SWAP2 SUB SWAP1 RETURN JUMPDEST PUSH2 0x327 PUSH1 0x4 DUP1 CALLDATASIZE SUB DUP2 ADD SWAP1 PUSH2 0x322 SWAP2 SWAP1 PUSH2 0x51B4 JUMP JUMPDEST PUSH2 0x2E78 JUMP JUMPDEST STOP JUMPDEST PUSH2 0x343 PUSH1 0x4 DUP1 CALLDATASIZE SUB DUP2 ADD SWAP1 PUSH2 0x33E SWAP2 SWAP1 PUSH2 0x51B4 JUMP JUMPDEST PUSH2 0x3207 JUMP JUMPDEST STOP JUMPDEST PUSH2 0x34D PUSH2 0x34DF JUMP JUMPDEST PUSH1 0x40 MLOAD PUSH2 0x35A SWAP2 SWAP1 PUSH2 0x5727 JUMP JUMPDEST PUSH1 0x40 MLOAD DUP1 SWAP2 SUB SWAP1 RETURN JUMPDEST PUSH2 0x37D PUSH1 0x4 DUP1 CALLDATASIZE SUB DUP2 ADD SWAP1 PUSH2 0x378 SWAP2 SWAP1 PUSH2 0x55BA JUMP JUMPDEST PUSH2 0x34E9 JUMP JUMPDEST STOP JUMPDEST PUSH2 0x399 PUSH1 0x4 DUP1 CALLDATASIZE SUB DUP2 ADD SWAP1 PUSH2 0x394 SWAP2 SWAP1 PUSH2 0x5742 JUMP JUMPDEST PUSH2 0x3693 JUMP JUMPDEST STOP JUMPDEST PUSH2 0x3B5 PUSH1 0x4 DUP1 CALLDATASIZE SUB DUP2 ADD SWAP1 PUSH2 0x3B0 SWAP2 SWAP1 PUSH2 0x51B4 JUMP JUMPDEST PUSH2 0x383B JUMP JUMPDEST PUSH1 0x40 MLOAD PUSH2 0x3C3 SWAP3 SWAP2 SWAP1 PUSH2 0x5819 JUMP JUMPDEST PUSH1 0x40 MLOAD DUP1 SWAP2 SUB SWAP1 RETURN JUMPDEST PUSH2 0x3E6 PUSH1 0x4 DUP1 CALLDATASIZE SUB DUP2 ADD SWAP1 PUSH2 0x3E1 SWAP2 SWAP1 PUSH2 0x51B4 JUMP JUMPDEST PUSH2 0x3985 JUMP JUMPDEST PUSH1 0x40 MLOAD PUSH2 0x3FD SWAP12 SWAP11 SWAP10 SWAP9 SWAP8 SWAP7 SWAP6 SWAP5 SWAP4 SWAP3 SWAP2 SWAP1 PUSH2 0x52D9 JUMP JUMPDEST PUSH1 0x40 MLOAD DUP1 SWAP2 SUB SWAP1 RETURN JUMPDEST PUSH2 0x420 PUSH1 0x4 DUP1 CALLDATASIZE SUB DUP2 ADD SWAP1 PUSH2 0x41B SWAP2 SWAP1 PUSH2 0x55BA JUMP JUMPDEST PUSH2 0x4229 JUMP JUMPDEST STOP JUMPDEST PUSH2 0x43C PUSH1 0x4 DUP1 CALLDATASIZE SUB DUP2 ADD SWAP1 PUSH2 0x437 SWAP2 SWAP1 PUSH2 0x4E20 JUMP JUMPDEST PUSH2 0x42F1 JUMP JUMPDEST STOP JUMPDEST PUSH1 0x0 DUP1 SLOAD SWAP1 PUSH2 0x100 EXP SWAP1 DIV PUSH20 0xFFFFFFFFFFFFFFFFFFFFFFFFFFFFFFFFFFFFFFFF AND PUSH20 0xFFFFFFFFFFFFFFFFFFFFFFFFFFFFFFFFFFFFFFFF AND CALLER PUSH20 0xFFFFFFFFFFFFFFFFFFFFFFFFFFFFFFFFFFFFFFFF AND EQ PUSH2 0x4CC JUMPI PUSH1 0x40 MLOAD PUSH32 0x8C379A000000000000000000000000000000000000000000000000000000000 DUP2 MSTORE PUSH1 0x4 ADD PUSH2 0x4C3 SWAP1 PUSH2 0x589C JUMP JUMPDEST PUSH1 0x40 MLOAD DUP1 SWAP2 SUB SWAP1 REVERT JUMPDEST PUSH2 0x4D4 PUSH2 0x49A5 JUMP JUMPDEST PUSH2 0x567 PUSH1 0x7 DUP1 SLOAD PUSH2 0x4E4 SWAP1 PUSH2 0x58EB JUMP JUMPDEST DUP1 PUSH1 0x1F ADD PUSH1 0x20 DUP1 SWAP2 DIV MUL PUSH1 0x20 ADD PUSH1 0x40 MLOAD SWAP1 DUP2 ADD PUSH1 0x40 MSTORE DUP1 SWAP3 SWAP2 SWAP1 DUP2 DUP2 MSTORE PUSH1 0x20 ADD DUP3 DUP1 SLOAD PUSH2 0x510 SWAP1 PUSH2 0x58EB JUMP JUMPDEST DUP1 ISZERO PUSH2 0x55D JUMPI DUP1 PUSH1 0x1F LT PUSH2 0x532 JUMPI PUSH2 0x100 DUP1 DUP4 SLOAD DIV MUL DUP4 MSTORE SWAP2 PUSH1 0x20 ADD SWAP2 PUSH2 0x55D JUMP JUMPDEST DUP3 ADD SWAP2 SWAP1 PUSH1 0x0 MSTORE PUSH1 0x20 PUSH1 0x0 KECCAK256 SWAP1 JUMPDEST DUP2 SLOAD DUP2 MSTORE SWAP1 PUSH1 0x1 ADD SWAP1 PUSH1 0x20 ADD DUP1 DUP4 GT PUSH2 0x540 JUMPI DUP3 SWAP1 SUB PUSH1 0x1F AND DUP3 ADD SWAP2 JUMPDEST POP POP POP POP POP PUSH2 0x174A JUMP JUMPDEST SWAP1 POP PUSH1 0x40 MLOAD PUSH1 0x20 ADD PUSH2 0x578 SWAP1 PUSH2 0x594D JUMP JUMPDEST PUSH1 0x40 MLOAD PUSH1 0x20 DUP2 DUP4 SUB SUB DUP2 MSTORE SWAP1 PUSH1 0x40 MSTORE DUP1 MLOAD SWAP1 PUSH1 0x20 ADD KECCAK256 PUSH1 0x1 DUP14 PUSH1 0x40 MLOAD PUSH2 0x59E SWAP2 SWAP1 PUSH2 0x5993 JUMP JUMPDEST SWAP1 DUP2 MSTORE PUSH1 0x20 ADD PUSH1 0x40 MLOAD DUP1 SWAP2 SUB SWAP1 KECCAK256 PUSH1 0x0 ADD PUSH1 0x40 MLOAD PUSH1 0x20 ADD PUSH2 0x5BF SWAP2 SWAP1 PUSH2 0x5A3E JUMP JUMPDEST PUSH1 0x40 MLOAD PUSH1 0x20 DUP2 DUP4 SUB SUB DUP2 MSTORE SWAP1 PUSH1 0x40 MSTORE DUP1 MLOAD SWAP1 PUSH1 0x20 ADD KECCAK256 EQ DUP1 PUSH2 0x630 JUMPI POP DUP12 PUSH1 0x40 MLOAD PUSH1 0x20 ADD PUSH2 0x5ED SWAP2 SWAP1 PUSH2 0x5993 JUMP JUMPDEST PUSH1 0x40 MLOAD PUSH1 0x20 DUP2 DUP4 SUB SUB DUP2 MSTORE SWAP1 PUSH1 0x40 MSTORE DUP1 MLOAD SWAP1 PUSH1 0x20 ADD KECCAK256 DUP2 PUSH1 0x0 ADD MLOAD PUSH1 0x40 MLOAD PUSH1 0x20 ADD PUSH2 0x618 SWAP2 SWAP1 PUSH2 0x5993 JUMP JUMPDEST PUSH1 0x40 MLOAD PUSH1 0x20 DUP2 DUP4 SUB SUB DUP2 MSTORE SWAP1 PUSH1 0x40 MSTORE DUP1 MLOAD SWAP1 PUSH1 0x20 ADD KECCAK256 EQ JUMPDEST PUSH2 0x66F JUMPI PUSH1 0x40 MLOAD PUSH32 0x8C379A000000000000000000000000000000000000000000000000000000000 DUP2 MSTORE PUSH1 0x4 ADD PUSH2 0x666 SWAP1 PUSH2 0x5AC7 JUMP JUMPDEST PUSH1 0x40 MLOAD DUP1 SWAP2 SUB SWAP1 REVERT JUMPDEST PUSH1 0x40 MLOAD PUSH1 0x20 ADD PUSH2 0x67E SWAP1 PUSH2 0x594D JUMP JUMPDEST PUSH1 0x40 MLOAD PUSH1 0x20 DUP2 DUP4 SUB SUB DUP2 MSTORE SWAP1 PUSH1 0x40 MSTORE DUP1 MLOAD SWAP1 PUSH1 0x20 ADD KECCAK256 PUSH1 0x3 DUP13 PUSH1 0x40 MLOAD PUSH2 0x6A4 SWAP2 SWAP1 PUSH2 0x5993 JUMP JUMPDEST SWAP1 DUP2 MSTORE PUSH1 0x20 ADD PUSH1 0x40 MLOAD DUP1 SWAP2 SUB SWAP1 KECCAK256 PUSH1 0x1 ADD PUSH1 0x40 MLOAD PUSH1 0x20 ADD PUSH2 0x6C5 SWAP2 SWAP1 PUSH2 0x5A3E JUMP JUMPDEST PUSH1 0x40 MLOAD PUSH1 0x20 DUP2 DUP4 SUB SUB DUP2 MSTORE SWAP1 PUSH1 0x40 MSTORE DUP1 MLOAD SWAP1 PUSH1 0x20 ADD KECCAK256 EQ DUP1 PUSH2 0x736 JUMPI POP DUP11 PUSH1 0x40 MLOAD PUSH1 0x20 ADD PUSH2 0x6F3 SWAP2 SWAP1 PUSH2 0x5993 JUMP JUMPDEST PUSH1 0x40 MLOAD PUSH1 0x20 DUP2 DUP4 SUB SUB DUP2 MSTORE SWAP1 PUSH1 0x40 MSTORE DUP1 MLOAD SWAP1 PUSH1 0x20 ADD KECCAK256 DUP2 PUSH1 0x20 ADD MLOAD PUSH1 0x40 MLOAD PUSH1 0x20 ADD PUSH2 0x71E SWAP2 SWAP1 PUSH2 0x5993 JUMP JUMPDEST PUSH1 0x40 MLOAD PUSH1 0x20 DUP2 DUP4 SUB SUB DUP2 MSTORE SWAP1 PUSH1 0x40 MSTORE DUP1 MLOAD SWAP1 PUSH1 0x20 ADD KECCAK256 EQ JUMPDEST PUSH2 0x775 JUMPI PUSH1 0x40 MLOAD PUSH32 0x8C379A000000000000000000000000000000000000000000000000000000000 DUP2 MSTORE PUSH1 0x4 ADD PUSH2 0x76C SWAP1 PUSH2 0x5B59 JUMP JUMPDEST PUSH1 0x40 MLOAD DUP1 SWAP2 SUB SWAP1 REVERT JUMPDEST DUP12 PUSH1 0x1 DUP14 PUSH1 0x40 MLOAD PUSH2 0x786 SWAP2 SWAP1 PUSH2 0x5993 JUMP JUMPDEST SWAP1 DUP2 MSTORE PUSH1 0x20 ADD PUSH1 0x40 MLOAD DUP1 SWAP2 SUB SWAP1 KECCAK256 PUSH1 0x0 ADD SWAP1 DUP1 MLOAD SWAP1 PUSH1 0x20 ADD SWAP1 PUSH2 0x7AA SWAP3 SWAP2 SWAP1 PUSH2 0x4A05 JUMP JUMPDEST POP DUP11 PUSH1 0x1 DUP14 PUSH1 0x40 MLOAD PUSH2 0x7BC SWAP2 SWAP1 PUSH2 0x5993 JUMP JUMPDEST SWAP1 DUP2 MSTORE PUSH1 0x20 ADD PUSH1 0x40 MLOAD DUP1 SWAP2 SUB SWAP1 KECCAK256 PUSH1 0x1 ADD SWAP1 DUP1 MLOAD SWAP1 PUSH1 0x20 ADD SWAP1 PUSH2 0x7E0 SWAP3 SWAP2 SWAP1 PUSH2 0x4A05 JUMP JUMPDEST POP DUP10 PUSH1 0x1 DUP14 PUSH1 0x40 MLOAD PUSH2 0x7F2 SWAP2 SWAP1 PUSH2 0x5993 JUMP JUMPDEST SWAP1 DUP2 MSTORE PUSH1 0x20 ADD PUSH1 0x40 MLOAD DUP1 SWAP2 SUB SWAP1 KECCAK256 PUSH1 0x2 ADD SWAP1 DUP1 MLOAD SWAP1 PUSH1 0x20 ADD SWAP1 PUSH2 0x816 SWAP3 SWAP2 SWAP1 PUSH2 0x4A05 JUMP JUMPDEST POP DUP9 PUSH1 0x1 DUP14 PUSH1 0x40 MLOAD PUSH2 0x828 SWAP2 SWAP1 PUSH2 0x5993 JUMP JUMPDEST SWAP1 DUP2 MSTORE PUSH1 0x20 ADD PUSH1 0x40 MLOAD DUP1 SWAP2 SUB SWAP1 KECCAK256 PUSH1 0x3 ADD SWAP1 DUP1 MLOAD SWAP1 PUSH1 0x20 ADD SWAP1 PUSH2 0x84C SWAP3 SWAP2 SWAP1 PUSH2 0x4A05 JUMP JUMPDEST POP DUP8 PUSH1 0x1 DUP14 PUSH1 0x40 MLOAD PUSH2 0x85E SWAP2 SWAP1 PUSH2 0x5993 JUMP JUMPDEST SWAP1 DUP2 MSTORE PUSH1 0x20 ADD PUSH1 0x40 MLOAD DUP1 SWAP2 SUB SWAP1 KECCAK256 PUSH1 0x4 ADD SWAP1 DUP1 MLOAD SWAP1 PUSH1 0x20 ADD SWAP1 PUSH2 0x882 SWAP3 SWAP2 SWAP1 PUSH2 0x4A05 JUMP JUMPDEST POP DUP7 PUSH1 0x1 DUP14 PUSH1 0x40 MLOAD PUSH2 0x894 SWAP2 SWAP1 PUSH2 0x5993 JUMP JUMPDEST SWAP1 DUP2 MSTORE PUSH1 0x20 ADD PUSH1 0x40 MLOAD DUP1 SWAP2 SUB SWAP1 KECCAK256 PUSH1 0x5 ADD SWAP1 DUP1 MLOAD SWAP1 PUSH1 0x20 ADD SWAP1 PUSH2 0x8B8 SWAP3 SWAP2 SWAP1 PUSH2 0x4A05 JUMP JUMPDEST POP DUP6 PUSH1 0x1 DUP14 PUSH1 0x40 MLOAD PUSH2 0x8CA SWAP2 SWAP1 PUSH2 0x5993 JUMP JUMPDEST SWAP1 DUP2 MSTORE PUSH1 0x20 ADD PUSH1 0x40 MLOAD DUP1 SWAP2 SUB SWAP1 KECCAK256 PUSH1 0x6 ADD SWAP1 DUP1 MLOAD SWAP1 PUSH1 0x20 ADD SWAP1 PUSH2 0x8EE SWAP3 SWAP2 SWAP1 PUSH2 0x4A05 JUMP JUMPDEST POP DUP5 PUSH1 0x1 DUP14 PUSH1 0x40 MLOAD PUSH2 0x900 SWAP2 SWAP1 PUSH2 0x5993 JUMP JUMPDEST SWAP1 DUP2 MSTORE PUSH1 0x20 ADD PUSH1 0x40 MLOAD DUP1 SWAP2 SUB SWAP1 KECCAK256 PUSH1 0x7 ADD SWAP1 DUP1 MLOAD SWAP1 PUSH1 0x20 ADD SWAP1 PUSH2 0x924 SWAP3 SWAP2 SWAP1 PUSH2 0x4A05 JUMP JUMPDEST POP DUP4 PUSH1 0x1 DUP14 PUSH1 0x40 MLOAD PUSH2 0x936 SWAP2 SWAP1 PUSH2 0x5993 JUMP JUMPDEST SWAP1 DUP2 MSTORE PUSH1 0x20 ADD PUSH1 0x40 MLOAD DUP1 SWAP2 SUB SWAP1 KECCAK256 PUSH1 0x8 ADD SWAP1 DUP1 MLOAD SWAP1 PUSH1 0x20 ADD SWAP1 PUSH2 0x95A SWAP3 SWAP2 SWAP1 PUSH2 0x4A05 JUMP JUMPDEST POP DUP3 PUSH1 0x1 DUP14 PUSH1 0x40 MLOAD PUSH2 0x96C SWAP2 SWAP1 PUSH2 0x5993 JUMP JUMPDEST SWAP1 DUP2 MSTORE PUSH1 0x20 ADD PUSH1 0x40 MLOAD DUP1 SWAP2 SUB SWAP1 KECCAK256 PUSH1 0x9 ADD SWAP1 DUP1 MLOAD SWAP1 PUSH1 0x20 ADD SWAP1 PUSH2 0x990 SWAP3 SWAP2 SWAP1 PUSH2 0x4A05 JUMP JUMPDEST POP DUP2 PUSH1 0x0 ADD MLOAD PUSH1 0x1 DUP14 PUSH1 0x40 MLOAD PUSH2 0x9A6 SWAP2 SWAP1 PUSH2 0x5993 JUMP JUMPDEST SWAP1 DUP2 MSTORE PUSH1 0x20 ADD PUSH1 0x40 MLOAD DUP1 SWAP2 SUB SWAP1 KECCAK256 PUSH1 0xA ADD PUSH1 0x0 ADD SWAP1 DUP1 MLOAD SWAP1 PUSH1 0x20 ADD SWAP1 PUSH2 0x9CD SWAP3 SWAP2 SWAP1 PUSH2 0x4A05 JUMP JUMPDEST POP DUP2 PUSH1 0x20 ADD MLOAD PUSH1 0x1 DUP14 PUSH1 0x40 MLOAD PUSH2 0x9E3 SWAP2 SWAP1 PUSH2 0x5993 JUMP JUMPDEST SWAP1 DUP2 MSTORE PUSH1 0x20 ADD PUSH1 0x40 MLOAD DUP1 SWAP2 SUB SWAP1 KECCAK256 PUSH1 0xA ADD PUSH1 0x1 ADD SWAP1 DUP1 MLOAD SWAP1 PUSH1 0x20 ADD SWAP1 PUSH2 0xA0A SWAP3 SWAP2 SWAP1 PUSH2 0x4A05 JUMP JUMPDEST POP DUP2 PUSH1 0x40 ADD MLOAD PUSH1 0x1 DUP14 PUSH1 0x40 MLOAD PUSH2 0xA20 SWAP2 SWAP1 PUSH2 0x5993 JUMP JUMPDEST SWAP1 DUP2 MSTORE PUSH1 0x20 ADD PUSH1 0x40 MLOAD DUP1 SWAP2 SUB SWAP1 KECCAK256 PUSH1 0xA ADD PUSH1 0x2 ADD SWAP1 DUP1 MLOAD SWAP1 PUSH1 0x20 ADD SWAP1 PUSH2 0xA47 SWAP3 SWAP2 SWAP1 PUSH2 0x4A05 JUMP JUMPDEST POP DUP2 PUSH1 0x60 ADD MLOAD PUSH1 0x1 DUP14 PUSH1 0x40 MLOAD PUSH2 0xA5D SWAP2 SWAP1 PUSH2 0x5993 JUMP JUMPDEST SWAP1 DUP2 MSTORE PUSH1 0x20 ADD PUSH1 0x40 MLOAD DUP1 SWAP2 SUB SWAP1 KECCAK256 PUSH1 0xA ADD PUSH1 0x3 ADD SWAP1 DUP1 MLOAD SWAP1 PUSH1 0x20 ADD SWAP1 PUSH2 0xA84 SWAP3 SWAP2 SWAP1 PUSH2 0x4A05 JUMP JUMPDEST POP DUP2 PUSH1 0x80 ADD MLOAD PUSH1 0x1 DUP14 PUSH1 0x40 MLOAD PUSH2 0xA9A SWAP2 SWAP1 PUSH2 0x5993 JUMP JUMPDEST SWAP1 DUP2 MSTORE PUSH1 0x20 ADD PUSH1 0x40 MLOAD DUP1 SWAP2 SUB SWAP1 KECCAK256 PUSH1 0xA ADD PUSH1 0x4 ADD SWAP1 DUP1 MLOAD SWAP1 PUSH1 0x20 ADD SWAP1 PUSH2 0xAC1 SWAP3 SWAP2 SWAP1 PUSH2 0x4A05 JUMP JUMPDEST POP DUP11 PUSH1 0x3 DUP13 PUSH1 0x40 MLOAD PUSH2 0xAD3 SWAP2 SWAP1 PUSH2 0x5993 JUMP JUMPDEST SWAP1 DUP2 MSTORE PUSH1 0x20 ADD PUSH1 0x40 MLOAD DUP1 SWAP2 SUB SWAP1 KECCAK256 PUSH1 0x1 ADD SWAP1 DUP1 MLOAD SWAP1 PUSH1 0x20 ADD SWAP1 PUSH2 0xAF7 SWAP3 SWAP2 SWAP1 PUSH2 0x4A05 JUMP JUMPDEST POP POP POP POP POP POP POP POP POP POP POP POP POP JUMP JUMPDEST PUSH1 0x60 PUSH1 0x0 DUP1 SLOAD SWAP1 PUSH2 0x100 EXP SWAP1 DIV PUSH20 0xFFFFFFFFFFFFFFFFFFFFFFFFFFFFFFFFFFFFFFFF AND PUSH20 0xFFFFFFFFFFFFFFFFFFFFFFFFFFFFFFFFFFFFFFFF AND CALLER PUSH20 0xFFFFFFFFFFFFFFFFFFFFFFFFFFFFFFFFFFFFFFFF AND EQ PUSH2 0xB96 JUMPI PUSH1 0x40 MLOAD PUSH32 0x8C379A000000000000000000000000000000000000000000000000000000000 DUP2 MSTORE PUSH1 0x4 ADD PUSH2 0xB8D SWAP1 PUSH2 0x589C JUMP JUMPDEST PUSH1 0x40 MLOAD DUP1 SWAP2 SUB SWAP1 REVERT JUMPDEST PUSH1 0x4 DUP1 SLOAD DUP1 PUSH1 0x20 MUL PUSH1 0x20 ADD PUSH1 0x40 MLOAD SWAP1 DUP2 ADD PUSH1 0x40 MSTORE DUP1 SWAP3 SWAP2 SWAP1 DUP2 DUP2 MSTORE PUSH1 0x20 ADD PUSH1 0x0 SWAP1 JUMPDEST DUP3 DUP3 LT ISZERO PUSH2 0xC64 JUMPI DUP4 DUP3 SWAP1 PUSH1 0x0 MSTORE PUSH1 0x20 PUSH1 0x0 KECCAK256 ADD DUP1 SLOAD PUSH2 0xBD7 SWAP1 PUSH2 0x58EB JUMP JUMPDEST DUP1 PUSH1 0x1F ADD PUSH1 0x20 DUP1 SWAP2 DIV MUL PUSH1 0x20 ADD PUSH1 0x40 MLOAD SWAP1 DUP2 ADD PUSH1 0x40 MSTORE DUP1 SWAP3 SWAP2 SWAP1 DUP2 DUP2 MSTORE PUSH1 0x20 ADD DUP3 DUP1 SLOAD PUSH2 0xC03 SWAP1 PUSH2 0x58EB JUMP JUMPDEST DUP1 ISZERO PUSH2 0xC50 JUMPI DUP1 PUSH1 0x1F LT PUSH2 0xC25 JUMPI PUSH2 0x100 DUP1 DUP4 SLOAD DIV MUL DUP4 MSTORE SWAP2 PUSH1 0x20 ADD SWAP2 PUSH2 0xC50 JUMP JUMPDEST DUP3 ADD SWAP2 SWAP1 PUSH1 0x0 MSTORE PUSH1 0x20 PUSH1 0x0 KECCAK256 SWAP1 JUMPDEST DUP2 SLOAD DUP2 MSTORE SWAP1 PUSH1 0x1 ADD SWAP1 PUSH1 0x20 ADD DUP1 DUP4 GT PUSH2 0xC33 JUMPI DUP3 SWAP1 SUB PUSH1 0x1F AND DUP3 ADD SWAP2 JUMPDEST POP POP POP POP POP DUP2 MSTORE PUSH1 0x20 ADD SWAP1 PUSH1 0x1 ADD SWAP1 PUSH2 0xBB8 JUMP JUMPDEST POP POP POP POP SWAP1 POP SWAP1 JUMP JUMPDEST PUSH1 0x3 DUP2 DUP1 MLOAD PUSH1 0x20 DUP2 ADD DUP3 ADD DUP1 MLOAD DUP5 DUP3 MSTORE PUSH1 0x20 DUP4 ADD PUSH1 0x20 DUP6 ADD KECCAK256 DUP2 DUP4 MSTORE DUP1 SWAP6 POP POP POP POP POP POP PUSH1 0x0 SWAP2 POP SWAP1 POP DUP1 PUSH1 0x0 ADD DUP1 SLOAD PUSH2 0xCA6 SWAP1 PUSH2 0x58EB JUMP JUMPDEST DUP1 PUSH1 0x1F ADD PUSH1 0x20 DUP1 SWAP2 DIV MUL PUSH1 0x20 ADD PUSH1 0x40 MLOAD SWAP1 DUP2 ADD PUSH1 0x40 MSTORE DUP1 SWAP3 SWAP2 SWAP1 DUP2 DUP2 MSTORE PUSH1 0x20 ADD DUP3 DUP1 SLOAD PUSH2 0xCD2 SWAP1 PUSH2 0x58EB JUMP JUMPDEST DUP1 ISZERO PUSH2 0xD1F JUMPI DUP1 PUSH1 0x1F LT PUSH2 0xCF4 JUMPI PUSH2 0x100 DUP1 DUP4 SLOAD DIV MUL DUP4 MSTORE SWAP2 PUSH1 0x20 ADD SWAP2 PUSH2 0xD1F JUMP JUMPDEST DUP3 ADD SWAP2 SWAP1 PUSH1 0x0 MSTORE PUSH1 0x20 PUSH1 0x0 KECCAK256 SWAP1 JUMPDEST DUP2 SLOAD DUP2 MSTORE SWAP1 PUSH1 0x1 ADD SWAP1 PUSH1 0x20 ADD DUP1 DUP4 GT PUSH2 0xD02 JUMPI DUP3 SWAP1 SUB PUSH1 0x1F AND DUP3 ADD SWAP2 JUMPDEST POP POP POP POP POP SWAP1 DUP1 PUSH1 0x1 ADD DUP1 SLOAD PUSH2 0xD34 SWAP1 PUSH2 0x58EB JUMP JUMPDEST DUP1 PUSH1 0x1F ADD PUSH1 0x20 DUP1 SWAP2 DIV MUL PUSH1 0x20 ADD PUSH1 0x40 MLOAD SWAP1 DUP2 ADD PUSH1 0x40 MSTORE DUP1 SWAP3 SWAP2 SWAP1 DUP2 DUP2 MSTORE PUSH1 0x20 ADD DUP3 DUP1 SLOAD PUSH2 0xD60 SWAP1 PUSH2 0x58EB JUMP JUMPDEST DUP1 ISZERO PUSH2 0xDAD JUMPI DUP1 PUSH1 0x1F LT PUSH2 0xD82 JUMPI PUSH2 0x100 DUP1 DUP4 SLOAD DIV MUL DUP4 MSTORE SWAP2 PUSH1 0x20 ADD SWAP2 PUSH2 0xDAD JUMP JUMPDEST DUP3 ADD SWAP2 SWAP1 PUSH1 0x0 MSTORE PUSH1 0x20 PUSH1 0x0 KECCAK256 SWAP1 JUMPDEST DUP2 SLOAD DUP2 MSTORE SWAP1 PUSH1 0x1 ADD SWAP1 PUSH1 0x20 ADD DUP1 DUP4 GT PUSH2 0xD90 JUMPI DUP3 SWAP1 SUB PUSH1 0x1F AND DUP3 ADD SWAP2 JUMPDEST POP POP POP POP POP SWAP1 DUP1 PUSH1 0x2 ADD DUP1 SLOAD PUSH2 0xDC2 SWAP1 PUSH2 0x58EB JUMP JUMPDEST DUP1 PUSH1 0x1F ADD PUSH1 0x20 DUP1 SWAP2 DIV MUL PUSH1 0x20 ADD PUSH1 0x40 MLOAD SWAP1 DUP2 ADD PUSH1 0x40 MSTORE DUP1 SWAP3 SWAP2 SWAP1 DUP2 DUP2 MSTORE PUSH1 0x20 ADD DUP3 DUP1 SLOAD PUSH2 0xDEE SWAP1 PUSH2 0x58EB JUMP JUMPDEST DUP1 ISZERO PUSH2 0xE3B JUMPI DUP1 PUSH1 0x1F LT PUSH2 0xE10 JUMPI PUSH2 0x100 DUP1 DUP4 SLOAD DIV MUL DUP4 MSTORE SWAP2 PUSH1 0x20 ADD SWAP2 PUSH2 0xE3B JUMP JUMPDEST DUP3 ADD SWAP2 SWAP1 PUSH1 0x0 MSTORE PUSH1 0x20 PUSH1 0x0 KECCAK256 SWAP1 JUMPDEST DUP2 SLOAD DUP2 MSTORE SWAP1 PUSH1 0x1 ADD SWAP1 PUSH1 0x20 ADD DUP1 DUP4 GT PUSH2 0xE1E JUMPI DUP3 SWAP1 SUB PUSH1 0x1F AND DUP3 ADD SWAP2 JUMPDEST POP POP POP POP POP SWAP1 DUP1 PUSH1 0x3 ADD DUP1 SLOAD PUSH2 0xE50 SWAP1 PUSH2 0x58EB JUMP JUMPDEST DUP1 PUSH1 0x1F ADD PUSH1 0x20 DUP1 SWAP2 DIV MUL PUSH1 0x20 ADD PUSH1 0x40 MLOAD SWAP1 DUP2 ADD PUSH1 0x40 MSTORE DUP1 SWAP3 SWAP2 SWAP1 DUP2 DUP2 MSTORE PUSH1 0x20 ADD DUP3 DUP1 SLOAD PUSH2 0xE7C SWAP1 PUSH2 0x58EB JUMP JUMPDEST DUP1 ISZERO PUSH2 0xEC9 JUMPI DUP1 PUSH1 0x1F LT PUSH2 0xE9E JUMPI PUSH2 0x100 DUP1 DUP4 SLOAD DIV MUL DUP4 MSTORE SWAP2 PUSH1 0x20 ADD SWAP2 PUSH2 0xEC9 JUMP JUMPDEST DUP3 ADD SWAP2 SWAP1 PUSH1 0x0 MSTORE PUSH1 0x20 PUSH1 0x0 KECCAK256 SWAP1 JUMPDEST DUP2 SLOAD DUP2 MSTORE SWAP1 PUSH1 0x1 ADD SWAP1 PUSH1 0x20 ADD DUP1 DUP4 GT PUSH2 0xEAC JUMPI DUP3 SWAP1 SUB PUSH1 0x1F AND DUP3 ADD SWAP2 JUMPDEST POP POP POP POP POP SWAP1 DUP1 PUSH1 0x4 ADD DUP1 SLOAD PUSH2 0xEDE SWAP1 PUSH2 0x58EB JUMP JUMPDEST DUP1 PUSH1 0x1F ADD PUSH1 0x20 DUP1 SWAP2 DIV MUL PUSH1 0x20 ADD PUSH1 0x40 MLOAD SWAP1 DUP2 ADD PUSH1 0x40 MSTORE DUP1 SWAP3 SWAP2 SWAP1 DUP2 DUP2 MSTORE PUSH1 0x20 ADD DUP3 DUP1 SLOAD PUSH2 0xF0A SWAP1 PUSH2 0x58EB JUMP JUMPDEST DUP1 ISZERO PUSH2 0xF57 JUMPI DUP1 PUSH1 0x1F LT PUSH2 0xF2C JUMPI PUSH2 0x100 DUP1 DUP4 SLOAD DIV MUL DUP4 MSTORE SWAP2 PUSH1 0x20 ADD SWAP2 PUSH2 0xF57 JUMP JUMPDEST DUP3 ADD SWAP2 SWAP1 PUSH1 0x0 MSTORE PUSH1 0x20 PUSH1 0x0 KECCAK256 SWAP1 JUMPDEST DUP2 SLOAD DUP2 MSTORE SWAP1 PUSH1 0x1 ADD SWAP1 PUSH1 0x20 ADD DUP1 DUP4 GT PUSH2 0xF3A JUMPI DUP3 SWAP1 SUB PUSH1 0x1F AND DUP3 ADD SWAP2 JUMPDEST POP POP POP POP POP SWAP1 DUP1 PUSH1 0x5 ADD DUP1 SLOAD PUSH2 0xF6C SWAP1 PUSH2 0x58EB JUMP JUMPDEST DUP1 PUSH1 0x1F ADD PUSH1 0x20 DUP1 SWAP2 DIV MUL PUSH1 0x20 ADD PUSH1 0x40 MLOAD SWAP1 DUP2 ADD PUSH1 0x40 MSTORE DUP1 SWAP3 SWAP2 SWAP1 DUP2 DUP2 MSTORE PUSH1 0x20 ADD DUP3 DUP1 SLOAD PUSH2 0xF98 SWAP1 PUSH2 0x58EB JUMP JUMPDEST DUP1 ISZERO PUSH2 0xFE5 JUMPI DUP1 PUSH1 0x1F LT PUSH2 0xFBA JUMPI PUSH2 0x100 DUP1 DUP4 SLOAD DIV MUL DUP4 MSTORE SWAP2 PUSH1 0x20 ADD SWAP2 PUSH2 0xFE5 JUMP JUMPDEST DUP3 ADD SWAP2 SWAP1 PUSH1 0x0 MSTORE PUSH1 0x20 PUSH1 0x0 KECCAK256 SWAP1 JUMPDEST DUP2 SLOAD DUP2 MSTORE SWAP1 PUSH1 0x1 ADD SWAP1 PUSH1 0x20 ADD DUP1 DUP4 GT PUSH2 0xFC8 JUMPI DUP3 SWAP1 SUB PUSH1 0x1F AND DUP3 ADD SWAP2 JUMPDEST POP POP POP POP POP SWAP1 DUP1 PUSH1 0x6 ADD DUP1 SLOAD PUSH2 0xFFA SWAP1 PUSH2 0x58EB JUMP JUMPDEST DUP1 PUSH1 0x1F ADD PUSH1 0x20 DUP1 SWAP2 DIV MUL PUSH1 0x20 ADD PUSH1 0x40 MLOAD SWAP1 DUP2 ADD PUSH1 0x40 MSTORE DUP1 SWAP3 SWAP2 SWAP1 DUP2 DUP2 MSTORE PUSH1 0x20 ADD DUP3 DUP1 SLOAD PUSH2 0x1026 SWAP1 PUSH2 0x58EB JUMP JUMPDEST DUP1 ISZERO PUSH2 0x1073 JUMPI DUP1 PUSH1 0x1F LT PUSH2 0x1048 JUMPI PUSH2 0x100 DUP1 DUP4 SLOAD DIV MUL DUP4 MSTORE SWAP2 PUSH1 0x20 ADD SWAP2 PUSH2 0x1073 JUMP JUMPDEST DUP3 ADD SWAP2 SWAP1 PUSH1 0x0 MSTORE PUSH1 0x20 PUSH1 0x0 KECCAK256 SWAP1 JUMPDEST DUP2 SLOAD DUP2 MSTORE SWAP1 PUSH1 0x1 ADD SWAP1 PUSH1 0x20 ADD DUP1 DUP4 GT PUSH2 0x1056 JUMPI DUP3 SWAP1 SUB PUSH1 0x1F AND DUP3 ADD SWAP2 JUMPDEST POP POP POP POP POP SWAP1 DUP1 PUSH1 0x7 ADD DUP1 SLOAD PUSH2 0x1088 SWAP1 PUSH2 0x58EB JUMP JUMPDEST DUP1 PUSH1 0x1F ADD PUSH1 0x20 DUP1 SWAP2 DIV MUL PUSH1 0x20 ADD PUSH1 0x40 MLOAD SWAP1 DUP2 ADD PUSH1 0x40 MSTORE DUP1 SWAP3 SWAP2 SWAP1 DUP2 DUP2 MSTORE PUSH1 0x20 ADD DUP3 DUP1 SLOAD PUSH2 0x10B4 SWAP1 PUSH2 0x58EB JUMP JUMPDEST DUP1 ISZERO PUSH2 0x1101 JUMPI DUP1 PUSH1 0x1F LT PUSH2 0x10D6 JUMPI PUSH2 0x100 DUP1 DUP4 SLOAD DIV MUL DUP4 MSTORE SWAP2 PUSH1 0x20 ADD SWAP2 PUSH2 0x1101 JUMP JUMPDEST DUP3 ADD SWAP2 SWAP1 PUSH1 0x0 MSTORE PUSH1 0x20 PUSH1 0x0 KECCAK256 SWAP1 JUMPDEST DUP2 SLOAD DUP2 MSTORE SWAP1 PUSH1 0x1 ADD SWAP1 PUSH1 0x20 ADD DUP1 DUP4 GT PUSH2 0x10E4 JUMPI DUP3 SWAP1 SUB PUSH1 0x1F AND DUP3 ADD SWAP2 JUMPDEST POP POP POP POP POP SWAP1 DUP1 PUSH1 0x8 ADD DUP1 SLOAD PUSH2 0x1116 SWAP1 PUSH2 0x58EB JUMP JUMPDEST DUP1 PUSH1 0x1F ADD PUSH1 0x20 DUP1 SWAP2 DIV MUL PUSH1 0x20 ADD PUSH1 0x40 MLOAD SWAP1 DUP2 ADD PUSH1 0x40 MSTORE DUP1 SWAP3 SWAP2 SWAP1 DUP2 DUP2 MSTORE PUSH1 0x20 ADD DUP3 DUP1 SLOAD PUSH2 0x1142 SWAP1 PUSH2 0x58EB JUMP JUMPDEST DUP1 ISZERO PUSH2 0x118F JUMPI DUP1 PUSH1 0x1F LT PUSH2 0x1164 JUMPI PUSH2 0x100 DUP1 DUP4 SLOAD DIV MUL DUP4 MSTORE SWAP2 PUSH1 0x20 ADD SWAP2 PUSH2 0x118F JUMP JUMPDEST DUP3 ADD SWAP2 SWAP1 PUSH1 0x0 MSTORE PUSH1 0x20 PUSH1 0x0 KECCAK256 SWAP1 JUMPDEST DUP2 SLOAD DUP2 MSTORE SWAP1 PUSH1 0x1 ADD SWAP1 PUSH1 0x20 ADD DUP1 DUP4 GT PUSH2 0x1172 JUMPI DUP3 SWAP1 SUB PUSH1 0x1F AND DUP3 ADD SWAP2 JUMPDEST POP POP POP POP POP SWAP1 DUP1 PUSH1 0x9 ADD DUP1 SLOAD PUSH2 0x11A4 SWAP1 PUSH2 0x58EB JUMP JUMPDEST DUP1 PUSH1 0x1F ADD PUSH1 0x20 DUP1 SWAP2 DIV MUL PUSH1 0x20 ADD PUSH1 0x40 MLOAD SWAP1 DUP2 ADD PUSH1 0x40 MSTORE DUP1 SWAP3 SWAP2 SWAP1 DUP2 DUP2 MSTORE PUSH1 0x20 ADD DUP3 DUP1 SLOAD PUSH2 0x11D0 SWAP1 PUSH2 0x58EB JUMP JUMPDEST DUP1 ISZERO PUSH2 0x121D JUMPI DUP1 PUSH1 0x1F LT PUSH2 0x11F2 JUMPI PUSH2 0x100 DUP1 DUP4 SLOAD DIV MUL DUP4 MSTORE SWAP2 PUSH1 0x20 ADD SWAP2 PUSH2 0x121D JUMP JUMPDEST DUP3 ADD SWAP2 SWAP1 PUSH1 0x0 MSTORE PUSH1 0x20 PUSH1 0x0 KECCAK256 SWAP1 JUMPDEST DUP2 SLOAD DUP2 MSTORE SWAP1 PUSH1 0x1 ADD SWAP1 PUSH1 0x20 ADD DUP1 DUP4 GT PUSH2 0x1200 JUMPI DUP3 SWAP1 SUB PUSH1 0x1F AND DUP3 ADD SWAP2 JUMPDEST POP POP POP POP POP SWAP1 DUP1 PUSH1 0xA ADD PUSH1 0x40 MLOAD DUP1 PUSH1 0xA0 ADD PUSH1 0x40 MSTORE SWAP1 DUP2 PUSH1 0x0 DUP3 ADD DUP1 SLOAD PUSH2 0x1242 SWAP1 PUSH2 0x58EB JUMP JUMPDEST DUP1 PUSH1 0x1F ADD PUSH1 0x20 DUP1 SWAP2 DIV MUL PUSH1 0x20 ADD PUSH1 0x40 MLOAD SWAP1 DUP2 ADD PUSH1 0x40 MSTORE DUP1 SWAP3 SWAP2 SWAP1 DUP2 DUP2 MSTORE PUSH1 0x20 ADD DUP3 DUP1 SLOAD PUSH2 0x126E SWAP1 PUSH2 0x58EB JUMP JUMPDEST DUP1 ISZERO PUSH2 0x12BB JUMPI DUP1 PUSH1 0x1F LT PUSH2 0x1290 JUMPI PUSH2 0x100 DUP1 DUP4 SLOAD DIV MUL DUP4 MSTORE SWAP2 PUSH1 0x20 ADD SWAP2 PUSH2 0x12BB JUMP JUMPDEST DUP3 ADD SWAP2 SWAP1 PUSH1 0x0 MSTORE PUSH1 0x20 PUSH1 0x0 KECCAK256 SWAP1 JUMPDEST DUP2 SLOAD DUP2 MSTORE SWAP1 PUSH1 0x1 ADD SWAP1 PUSH1 0x20 ADD DUP1 DUP4 GT PUSH2 0x129E JUMPI DUP3 SWAP1 SUB PUSH1 0x1F AND DUP3 ADD SWAP2 JUMPDEST POP POP POP POP POP DUP2 MSTORE PUSH1 0x20 ADD PUSH1 0x1 DUP3 ADD DUP1 SLOAD PUSH2 0x12D4 SWAP1 PUSH2 0x58EB JUMP JUMPDEST DUP1 PUSH1 0x1F ADD PUSH1 0x20 DUP1 SWAP2 DIV MUL PUSH1 0x20 ADD PUSH1 0x40 MLOAD SWAP1 DUP2 ADD PUSH1 0x40 MSTORE DUP1 SWAP3 SWAP2 SWAP1 DUP2 DUP2 MSTORE PUSH1 0x20 ADD DUP3 DUP1 SLOAD PUSH2 0x1300 SWAP1 PUSH2 0x58EB JUMP JUMPDEST DUP1 ISZERO PUSH2 0x134D JUMPI DUP1 PUSH1 0x1F LT PUSH2 0x1322 JUMPI PUSH2 0x100 DUP1 DUP4 SLOAD DIV MUL DUP4 MSTORE SWAP2 PUSH1 0x20 ADD SWAP2 PUSH2 0x134D JUMP JUMPDEST DUP3 ADD SWAP2 SWAP1 PUSH1 0x0 MSTORE PUSH1 0x20 PUSH1 0x0 KECCAK256 SWAP1 JUMPDEST DUP2 SLOAD DUP2 MSTORE SWAP1 PUSH1 0x1 ADD SWAP1 PUSH1 0x20 ADD DUP1 DUP4 GT PUSH2 0x1330 JUMPI DUP3 SWAP1 SUB PUSH1 0x1F AND DUP3 ADD SWAP2 JUMPDEST POP POP POP POP POP DUP2 MSTORE PUSH1 0x20 ADD PUSH1 0x2 DUP3 ADD DUP1 SLOAD PUSH2 0x1366 SWAP1 PUSH2 0x58EB JUMP JUMPDEST DUP1 PUSH1 0x1F ADD PUSH1 0x20 DUP1 SWAP2 DIV MUL PUSH1 0x20 ADD PUSH1 0x40 MLOAD SWAP1 DUP2 ADD PUSH1 0x40 MSTORE DUP1 SWAP3 SWAP2 SWAP1 DUP2 DUP2 MSTORE PUSH1 0x20 ADD DUP3 DUP1 SLOAD PUSH2 0x1392 SWAP1 PUSH2 0x58EB JUMP JUMPDEST DUP1 ISZERO PUSH2 0x13DF JUMPI DUP1 PUSH1 0x1F LT PUSH2 0x13B4 JUMPI PUSH2 0x100 DUP1 DUP4 SLOAD DIV MUL DUP4 MSTORE SWAP2 PUSH1 0x20 ADD SWAP2 PUSH2 0x13DF JUMP JUMPDEST DUP3 ADD SWAP2 SWAP1 PUSH1 0x0 MSTORE PUSH1 0x20 PUSH1 0x0 KECCAK256 SWAP1 JUMPDEST DUP2 SLOAD DUP2 MSTORE SWAP1 PUSH1 0x1 ADD SWAP1 PUSH1 0x20 ADD DUP1 DUP4 GT PUSH2 0x13C2 JUMPI DUP3 SWAP1 SUB PUSH1 0x1F AND DUP3 ADD SWAP2 JUMPDEST POP POP POP POP POP DUP2 MSTORE PUSH1 0x20 ADD PUSH1 0x3 DUP3 ADD DUP1 SLOAD PUSH2 0x13F8 SWAP1 PUSH2 0x58EB JUMP JUMPDEST DUP1 PUSH1 0x1F ADD PUSH1 0x20 DUP1 SWAP2 DIV MUL PUSH1 0x20 ADD PUSH1 0x40 MLOAD SWAP1 DUP2 ADD PUSH1 0x40 MSTORE DUP1 SWAP3 SWAP2 SWAP1 DUP2 DUP2 MSTORE PUSH1 0x20 ADD DUP3 DUP1 SLOAD PUSH2 0x1424 SWAP1 PUSH2 0x58EB JUMP JUMPDEST DUP1 ISZERO PUSH2 0x1471 JUMPI DUP1 PUSH1 0x1F LT PUSH2 0x1446 JUMPI PUSH2 0x100 DUP1 DUP4 SLOAD DIV MUL DUP4 MSTORE SWAP2 PUSH1 0x20 ADD SWAP2 PUSH2 0x1471 JUMP JUMPDEST DUP3 ADD SWAP2 SWAP1 PUSH1 0x0 MSTORE PUSH1 0x20 PUSH1 0x0 KECCAK256 SWAP1 JUMPDEST DUP2 SLOAD DUP2 MSTORE SWAP1 PUSH1 0x1 ADD SWAP1 PUSH1 0x20 ADD DUP1 DUP4 GT PUSH2 0x1454 JUMPI DUP3 SWAP1 SUB PUSH1 0x1F AND DUP3 ADD SWAP2 JUMPDEST POP POP POP POP POP DUP2 MSTORE PUSH1 0x20 ADD PUSH1 0x4 DUP3 ADD DUP1 SLOAD PUSH2 0x148A SWAP1 PUSH2 0x58EB JUMP JUMPDEST DUP1 PUSH1 0x1F ADD PUSH1 0x20 DUP1 SWAP2 DIV MUL PUSH1 0x20 ADD PUSH1 0x40 MLOAD SWAP1 DUP2 ADD PUSH1 0x40 MSTORE DUP1 SWAP3 SWAP2 SWAP1 DUP2 DUP2 MSTORE PUSH1 0x20 ADD DUP3 DUP1 SLOAD PUSH2 0x14B6 SWAP1 PUSH2 0x58EB JUMP JUMPDEST DUP1 ISZERO PUSH2 0x1503 JUMPI DUP1 PUSH1 0x1F LT PUSH2 0x14D8 JUMPI PUSH2 0x100 DUP1 DUP4 SLOAD DIV MUL DUP4 MSTORE SWAP2 PUSH1 0x20 ADD SWAP2 PUSH2 0x1503 JUMP JUMPDEST DUP3 ADD SWAP2 SWAP1 PUSH1 0x0 MSTORE PUSH1 0x20 PUSH1 0x0 KECCAK256 SWAP1 JUMPDEST DUP2 SLOAD DUP2 MSTORE SWAP1 PUSH1 0x1 ADD SWAP1 PUSH1 0x20 ADD DUP1 DUP4 GT PUSH2 0x14E6 JUMPI DUP3 SWAP1 SUB PUSH1 0x1F AND DUP3 ADD SWAP2 JUMPDEST POP POP POP POP POP DUP2 MSTORE POP POP SWAP1 POP DUP12 JUMP JUMPDEST PUSH1 0x0 DUP1 SLOAD SWAP1 PUSH2 0x100 EXP SWAP1 DIV PUSH20 0xFFFFFFFFFFFFFFFFFFFFFFFFFFFFFFFFFFFFFFFF AND PUSH20 0xFFFFFFFFFFFFFFFFFFFFFFFFFFFFFFFFFFFFFFFF AND CALLER PUSH20 0xFFFFFFFFFFFFFFFFFFFFFFFFFFFFFFFFFFFFFFFF AND EQ PUSH2 0x159F JUMPI PUSH1 0x40 MLOAD PUSH32 0x8C379A000000000000000000000000000000000000000000000000000000000 DUP2 MSTORE PUSH1 0x4 ADD PUSH2 0x1596 SWAP1 PUSH2 0x589C JUMP JUMPDEST PUSH1 0x40 MLOAD DUP1 SWAP2 SUB SWAP1 REVERT JUMPDEST PUSH1 0x9 DUP2 PUSH1 0x40 MLOAD PUSH2 0x15AF SWAP2 SWAP1 PUSH2 0x5993 JUMP JUMPDEST SWAP1 DUP2 MSTORE PUSH1 0x20 ADD PUSH1 0x40 MLOAD DUP1 SWAP2 SUB SWAP1 KECCAK256 PUSH1 0x0 DUP1 DUP3 ADD PUSH1 0x0 PUSH2 0x15CE SWAP2 SWAP1 PUSH2 0x4A8B JUMP JUMPDEST PUSH1 0x1 DUP3 ADD PUSH1 0x0 PUSH2 0x15DE SWAP2 SWAP1 PUSH2 0x4A8B JUMP JUMPDEST POP POP POP JUMP JUMPDEST PUSH1 0x60 PUSH1 0x0 DUP1 SLOAD SWAP1 PUSH2 0x100 EXP SWAP1 DIV PUSH20 0xFFFFFFFFFFFFFFFFFFFFFFFFFFFFFFFFFFFFFFFF AND PUSH20 0xFFFFFFFFFFFFFFFFFFFFFFFFFFFFFFFFFFFFFFFF AND CALLER PUSH20 0xFFFFFFFFFFFFFFFFFFFFFFFFFFFFFFFFFFFFFFFF AND EQ PUSH2 0x1673 JUMPI PUSH1 0x40 MLOAD PUSH32 0x8C379A000000000000000000000000000000000000000000000000000000000 DUP2 MSTORE PUSH1 0x4 ADD PUSH2 0x166A SWAP1 PUSH2 0x589C JUMP JUMPDEST PUSH1 0x40 MLOAD DUP1 SWAP2 SUB SWAP1 REVERT JUMPDEST PUSH1 0x5 DUP1 SLOAD DUP1 PUSH1 0x20 MUL PUSH1 0x20 ADD PUSH1 0x40 MLOAD SWAP1 DUP2 ADD PUSH1 0x40 MSTORE DUP1 SWAP3 SWAP2 SWAP1 DUP2 DUP2 MSTORE PUSH1 0x20 ADD PUSH1 0x0 SWAP1 JUMPDEST DUP3 DUP3 LT ISZERO PUSH2 0x1741 JUMPI DUP4 DUP3 SWAP1 PUSH1 0x0 MSTORE PUSH1 0x20 PUSH1 0x0 KECCAK256 ADD DUP1 SLOAD PUSH2 0x16B4 SWAP1 PUSH2 0x58EB JUMP JUMPDEST DUP1 PUSH1 0x1F ADD PUSH1 0x20 DUP1 SWAP2 DIV MUL PUSH1 0x20 ADD PUSH1 0x40 MLOAD SWAP1 DUP2 ADD PUSH1 0x40 MSTORE DUP1 SWAP3 SWAP2 SWAP1 DUP2 DUP2 MSTORE PUSH1 0x20 ADD DUP3 DUP1 SLOAD PUSH2 0x16E0 SWAP1 PUSH2 0x58EB JUMP JUMPDEST DUP1 ISZERO PUSH2 0x172D JUMPI DUP1 PUSH1 0x1F LT PUSH2 0x1702 JUMPI PUSH2 0x100 DUP1 DUP4 SLOAD DIV MUL DUP4 MSTORE SWAP2 PUSH1 0x20 ADD SWAP2 PUSH2 0x172D JUMP JUMPDEST DUP3 ADD SWAP2 SWAP1 PUSH1 0x0 MSTORE PUSH1 0x20 PUSH1 0x0 KECCAK256 SWAP1 JUMPDEST DUP2 SLOAD DUP2 MSTORE SWAP1 PUSH1 0x1 ADD SWAP1 PUSH1 0x20 ADD DUP1 DUP4 GT PUSH2 0x1710 JUMPI DUP3 SWAP1 SUB PUSH1 0x1F AND DUP3 ADD SWAP2 JUMPDEST POP POP POP POP POP DUP2 MSTORE PUSH1 0x20 ADD SWAP1 PUSH1 0x1 ADD SWAP1 PUSH2 0x1695 JUMP JUMPDEST POP POP POP POP SWAP1 POP SWAP1 JUMP JUMPDEST PUSH2 0x1752 PUSH2 0x49A5 JUMP JUMPDEST PUSH1 0x0 DUP1 SLOAD SWAP1 PUSH2 0x100 EXP SWAP1 DIV PUSH20 0xFFFFFFFFFFFFFFFFFFFFFFFFFFFFFFFFFFFFFFFF AND PUSH20 0xFFFFFFFFFFFFFFFFFFFFFFFFFFFFFFFFFFFFFFFF AND CALLER PUSH20 0xFFFFFFFFFFFFFFFFFFFFFFFFFFFFFFFFFFFFFFFF AND EQ PUSH2 0x17E0 JUMPI PUSH1 0x40 MLOAD PUSH32 0x8C379A000000000000000000000000000000000000000000000000000000000 DUP2 MSTORE PUSH1 0x4 ADD PUSH2 0x17D7 SWAP1 PUSH2 0x589C JUMP JUMPDEST PUSH1 0x40 MLOAD DUP1 SWAP2 SUB SWAP1 REVERT JUMPDEST DUP2 PUSH1 0x7 SWAP1 DUP1 MLOAD SWAP1 PUSH1 0x20 ADD SWAP1 PUSH2 0x17F6 SWAP3 SWAP2 SWAP1 PUSH2 0x4A05 JUMP JUMPDEST POP PUSH1 0x1 DUP3 PUSH1 0x40 MLOAD PUSH2 0x1807 SWAP2 SWAP1 PUSH2 0x5993 JUMP JUMPDEST SWAP1 DUP2 MSTORE PUSH1 0x20 ADD PUSH1 0x40 MLOAD DUP1 SWAP2 SUB SWAP1 KECCAK256 PUSH1 0x40 MLOAD DUP1 PUSH2 0x160 ADD PUSH1 0x40 MSTORE SWAP1 DUP2 PUSH1 0x0 DUP3 ADD DUP1 SLOAD PUSH2 0x1831 SWAP1 PUSH2 0x58EB JUMP JUMPDEST DUP1 PUSH1 0x1F ADD PUSH1 0x20 DUP1 SWAP2 DIV MUL PUSH1 0x20 ADD PUSH1 0x40 MLOAD SWAP1 DUP2 ADD PUSH1 0x40 MSTORE DUP1 SWAP3 SWAP2 SWAP1 DUP2 DUP2 MSTORE PUSH1 0x20 ADD DUP3 DUP1 SLOAD PUSH2 0x185D SWAP1 PUSH2 0x58EB JUMP JUMPDEST DUP1 ISZERO PUSH2 0x18AA JUMPI DUP1 PUSH1 0x1F LT PUSH2 0x187F JUMPI PUSH2 0x100 DUP1 DUP4 SLOAD DIV MUL DUP4 MSTORE SWAP2 PUSH1 0x20 ADD SWAP2 PUSH2 0x18AA JUMP JUMPDEST DUP3 ADD SWAP2 SWAP1 PUSH1 0x0 MSTORE PUSH1 0x20 PUSH1 0x0 KECCAK256 SWAP1 JUMPDEST DUP2 SLOAD DUP2 MSTORE SWAP1 PUSH1 0x1 ADD SWAP1 PUSH1 0x20 ADD DUP1 DUP4 GT PUSH2 0x188D JUMPI DUP3 SWAP1 SUB PUSH1 0x1F AND DUP3 ADD SWAP2 JUMPDEST POP POP POP POP POP DUP2 MSTORE PUSH1 0x20 ADD PUSH1 0x1 DUP3 ADD DUP1 SLOAD PUSH2 0x18C3 SWAP1 PUSH2 0x58EB JUMP JUMPDEST DUP1 PUSH1 0x1F ADD PUSH1 0x20 DUP1 SWAP2 DIV MUL PUSH1 0x20 ADD PUSH1 0x40 MLOAD SWAP1 DUP2 ADD PUSH1 0x40 MSTORE DUP1 SWAP3 SWAP2 SWAP1 DUP2 DUP2 MSTORE PUSH1 0x20 ADD DUP3 DUP1 SLOAD PUSH2 0x18EF SWAP1 PUSH2 0x58EB JUMP JUMPDEST DUP1 ISZERO PUSH2 0x193C JUMPI DUP1 PUSH1 0x1F LT PUSH2 0x1911 JUMPI PUSH2 0x100 DUP1 DUP4 SLOAD DIV MUL DUP4 MSTORE SWAP2 PUSH1 0x20 ADD SWAP2 PUSH2 0x193C JUMP JUMPDEST DUP3 ADD SWAP2 SWAP1 PUSH1 0x0 MSTORE PUSH1 0x20 PUSH1 0x0 KECCAK256 SWAP1 JUMPDEST DUP2 SLOAD DUP2 MSTORE SWAP1 PUSH1 0x1 ADD SWAP1 PUSH1 0x20 ADD DUP1 DUP4 GT PUSH2 0x191F JUMPI DUP3 SWAP1 SUB PUSH1 0x1F AND DUP3 ADD SWAP2 JUMPDEST POP POP POP POP POP DUP2 MSTORE PUSH1 0x20 ADD PUSH1 0x2 DUP3 ADD DUP1 SLOAD PUSH2 0x1955 SWAP1 PUSH2 0x58EB JUMP JUMPDEST DUP1 PUSH1 0x1F ADD PUSH1 0x20 DUP1 SWAP2 DIV MUL PUSH1 0x20 ADD PUSH1 0x40 MLOAD SWAP1 DUP2 ADD PUSH1 0x40 MSTORE DUP1 SWAP3 SWAP2 SWAP1 DUP2 DUP2 MSTORE PUSH1 0x20 ADD DUP3 DUP1 SLOAD PUSH2 0x1981 SWAP1 PUSH2 0x58EB JUMP JUMPDEST DUP1 ISZERO PUSH2 0x19CE JUMPI DUP1 PUSH1 0x1F LT PUSH2 0x19A3 JUMPI PUSH2 0x100 DUP1 DUP4 SLOAD DIV MUL DUP4 MSTORE SWAP2 PUSH1 0x20 ADD SWAP2 PUSH2 0x19CE JUMP JUMPDEST DUP3 ADD SWAP2 SWAP1 PUSH1 0x0 MSTORE PUSH1 0x20 PUSH1 0x0 KECCAK256 SWAP1 JUMPDEST DUP2 SLOAD DUP2 MSTORE SWAP1 PUSH1 0x1 ADD SWAP1 PUSH1 0x20 ADD DUP1 DUP4 GT PUSH2 0x19B1 JUMPI DUP3 SWAP1 SUB PUSH1 0x1F AND DUP3 ADD SWAP2 JUMPDEST POP POP POP POP POP DUP2 MSTORE PUSH1 0x20 ADD PUSH1 0x3 DUP3 ADD DUP1 SLOAD PUSH2 0x19E7 SWAP1 PUSH2 0x58EB JUMP JUMPDEST DUP1 PUSH1 0x1F ADD PUSH1 0x20 DUP1 SWAP2 DIV MUL PUSH1 0x20 ADD PUSH1 0x40 MLOAD SWAP1 DUP2 ADD PUSH1 0x40 MSTORE DUP1 SWAP3 SWAP2 SWAP1 DUP2 DUP2 MSTORE PUSH1 0x20 ADD DUP3 DUP1 SLOAD PUSH2 0x1A13 SWAP1 PUSH2 0x58EB JUMP JUMPDEST DUP1 ISZERO PUSH2 0x1A60 JUMPI DUP1 PUSH1 0x1F LT PUSH2 0x1A35 JUMPI PUSH2 0x100 DUP1 DUP4 SLOAD DIV MUL DUP4 MSTORE SWAP2 PUSH1 0x20 ADD SWAP2 PUSH2 0x1A60 JUMP JUMPDEST DUP3 ADD SWAP2 SWAP1 PUSH1 0x0 MSTORE PUSH1 0x20 PUSH1 0x0 KECCAK256 SWAP1 JUMPDEST DUP2 SLOAD DUP2 MSTORE SWAP1 PUSH1 0x1 ADD SWAP1 PUSH1 0x20 ADD DUP1 DUP4 GT PUSH2 0x1A43 JUMPI DUP3 SWAP1 SUB PUSH1 0x1F AND DUP3 ADD SWAP2 JUMPDEST POP POP POP POP POP DUP2 MSTORE PUSH1 0x20 ADD PUSH1 0x4 DUP3 ADD DUP1 SLOAD PUSH2 0x1A79 SWAP1 PUSH2 0x58EB JUMP JUMPDEST DUP1 PUSH1 0x1F ADD PUSH1 0x20 DUP1 SWAP2 DIV MUL PUSH1 0x20 ADD PUSH1 0x40 MLOAD SWAP1 DUP2 ADD PUSH1 0x40 MSTORE DUP1 SWAP3 SWAP2 SWAP1 DUP2 DUP2 MSTORE PUSH1 0x20 ADD DUP3 DUP1 SLOAD PUSH2 0x1AA5 SWAP1 PUSH2 0x58EB JUMP JUMPDEST DUP1 ISZERO PUSH2 0x1AF2 JUMPI DUP1 PUSH1 0x1F LT PUSH2 0x1AC7 JUMPI PUSH2 0x100 DUP1 DUP4 SLOAD DIV MUL DUP4 MSTORE SWAP2 PUSH1 0x20 ADD SWAP2 PUSH2 0x1AF2 JUMP JUMPDEST DUP3 ADD SWAP2 SWAP1 PUSH1 0x0 MSTORE PUSH1 0x20 PUSH1 0x0 KECCAK256 SWAP1 JUMPDEST DUP2 SLOAD DUP2 MSTORE SWAP1 PUSH1 0x1 ADD SWAP1 PUSH1 0x20 ADD DUP1 DUP4 GT PUSH2 0x1AD5 JUMPI DUP3 SWAP1 SUB PUSH1 0x1F AND DUP3 ADD SWAP2 JUMPDEST POP POP POP POP POP DUP2 MSTORE PUSH1 0x20 ADD PUSH1 0x5 DUP3 ADD DUP1 SLOAD PUSH2 0x1B0B SWAP1 PUSH2 0x58EB JUMP JUMPDEST DUP1 PUSH1 0x1F ADD PUSH1 0x20 DUP1 SWAP2 DIV MUL PUSH1 0x20 ADD PUSH1 0x40 MLOAD SWAP1 DUP2 ADD PUSH1 0x40 MSTORE DUP1 SWAP3 SWAP2 SWAP1 DUP2 DUP2 MSTORE PUSH1 0x20 ADD DUP3 DUP1 SLOAD PUSH2 0x1B37 SWAP1 PUSH2 0x58EB JUMP JUMPDEST DUP1 ISZERO PUSH2 0x1B84 JUMPI DUP1 PUSH1 0x1F LT PUSH2 0x1B59 JUMPI PUSH2 0x100 DUP1 DUP4 SLOAD DIV MUL DUP4 MSTORE SWAP2 PUSH1 0x20 ADD SWAP2 PUSH2 0x1B84 JUMP JUMPDEST DUP3 ADD SWAP2 SWAP1 PUSH1 0x0 MSTORE PUSH1 0x20 PUSH1 0x0 KECCAK256 SWAP1 JUMPDEST DUP2 SLOAD DUP2 MSTORE SWAP1 PUSH1 0x1 ADD SWAP1 PUSH1 0x20 ADD DUP1 DUP4 GT PUSH2 0x1B67 JUMPI DUP3 SWAP1 SUB PUSH1 0x1F AND DUP3 ADD SWAP2 JUMPDEST POP POP POP POP POP DUP2 MSTORE PUSH1 0x20 ADD PUSH1 0x6 DUP3 ADD DUP1 SLOAD PUSH2 0x1B9D SWAP1 PUSH2 0x58EB JUMP JUMPDEST DUP1 PUSH1 0x1F ADD PUSH1 0x20 DUP1 SWAP2 DIV MUL PUSH1 0x20 ADD PUSH1 0x40 MLOAD SWAP1 DUP2 ADD PUSH1 0x40 MSTORE DUP1 SWAP3 SWAP2 SWAP1 DUP2 DUP2 MSTORE PUSH1 0x20 ADD DUP3 DUP1 SLOAD PUSH2 0x1BC9 SWAP1 PUSH2 0x58EB JUMP JUMPDEST DUP1 ISZERO PUSH2 0x1C16 JUMPI DUP1 PUSH1 0x1F LT PUSH2 0x1BEB JUMPI PUSH2 0x100 DUP1 DUP4 SLOAD DIV MUL DUP4 MSTORE SWAP2 PUSH1 0x20 ADD SWAP2 PUSH2 0x1C16 JUMP JUMPDEST DUP3 ADD SWAP2 SWAP1 PUSH1 0x0 MSTORE PUSH1 0x20 PUSH1 0x0 KECCAK256 SWAP1 JUMPDEST DUP2 SLOAD DUP2 MSTORE SWAP1 PUSH1 0x1 ADD SWAP1 PUSH1 0x20 ADD DUP1 DUP4 GT PUSH2 0x1BF9 JUMPI DUP3 SWAP1 SUB PUSH1 0x1F AND DUP3 ADD SWAP2 JUMPDEST POP POP POP POP POP DUP2 MSTORE PUSH1 0x20 ADD PUSH1 0x7 DUP3 ADD DUP1 SLOAD PUSH2 0x1C2F SWAP1 PUSH2 0x58EB JUMP JUMPDEST DUP1 PUSH1 0x1F ADD PUSH1 0x20 DUP1 SWAP2 DIV MUL PUSH1 0x20 ADD PUSH1 0x40 MLOAD SWAP1 DUP2 ADD PUSH1 0x40 MSTORE DUP1 SWAP3 SWAP2 SWAP1 DUP2 DUP2 MSTORE PUSH1 0x20 ADD DUP3 DUP1 SLOAD PUSH2 0x1C5B SWAP1 PUSH2 0x58EB JUMP JUMPDEST DUP1 ISZERO PUSH2 0x1CA8 JUMPI DUP1 PUSH1 0x1F LT PUSH2 0x1C7D JUMPI PUSH2 0x100 DUP1 DUP4 SLOAD DIV MUL DUP4 MSTORE SWAP2 PUSH1 0x20 ADD SWAP2 PUSH2 0x1CA8 JUMP JUMPDEST DUP3 ADD SWAP2 SWAP1 PUSH1 0x0 MSTORE PUSH1 0x20 PUSH1 0x0 KECCAK256 SWAP1 JUMPDEST DUP2 SLOAD DUP2 MSTORE SWAP1 PUSH1 0x1 ADD SWAP1 PUSH1 0x20 ADD DUP1 DUP4 GT PUSH2 0x1C8B JUMPI DUP3 SWAP1 SUB PUSH1 0x1F AND DUP3 ADD SWAP2 JUMPDEST POP POP POP POP POP DUP2 MSTORE PUSH1 0x20 ADD PUSH1 0x8 DUP3 ADD DUP1 SLOAD PUSH2 0x1CC1 SWAP1 PUSH2 0x58EB JUMP JUMPDEST DUP1 PUSH1 0x1F ADD PUSH1 0x20 DUP1 SWAP2 DIV MUL PUSH1 0x20 ADD PUSH1 0x40 MLOAD SWAP1 DUP2 ADD PUSH1 0x40 MSTORE DUP1 SWAP3 SWAP2 SWAP1 DUP2 DUP2 MSTORE PUSH1 0x20 ADD DUP3 DUP1 SLOAD PUSH2 0x1CED SWAP1 PUSH2 0x58EB JUMP JUMPDEST DUP1 ISZERO PUSH2 0x1D3A JUMPI DUP1 PUSH1 0x1F LT PUSH2 0x1D0F JUMPI PUSH2 0x100 DUP1 DUP4 SLOAD DIV MUL DUP4 MSTORE SWAP2 PUSH1 0x20 ADD SWAP2 PUSH2 0x1D3A JUMP JUMPDEST DUP3 ADD SWAP2 SWAP1 PUSH1 0x0 MSTORE PUSH1 0x20 PUSH1 0x0 KECCAK256 SWAP1 JUMPDEST DUP2 SLOAD DUP2 MSTORE SWAP1 PUSH1 0x1 ADD SWAP1 PUSH1 0x20 ADD DUP1 DUP4 GT PUSH2 0x1D1D JUMPI DUP3 SWAP1 SUB PUSH1 0x1F AND DUP3 ADD SWAP2 JUMPDEST POP POP POP POP POP DUP2 MSTORE PUSH1 0x20 ADD PUSH1 0x9 DUP3 ADD DUP1 SLOAD PUSH2 0x1D53 SWAP1 PUSH2 0x58EB JUMP JUMPDEST DUP1 PUSH1 0x1F ADD PUSH1 0x20 DUP1 SWAP2 DIV MUL PUSH1 0x20 ADD PUSH1 0x40 MLOAD SWAP1 DUP2 ADD PUSH1 0x40 MSTORE DUP1 SWAP3 SWAP2 SWAP1 DUP2 DUP2 MSTORE PUSH1 0x20 ADD DUP3 DUP1 SLOAD PUSH2 0x1D7F SWAP1 PUSH2 0x58EB JUMP JUMPDEST DUP1 ISZERO PUSH2 0x1DCC JUMPI DUP1 PUSH1 0x1F LT PUSH2 0x1DA1 JUMPI PUSH2 0x100 DUP1 DUP4 SLOAD DIV MUL DUP4 MSTORE SWAP2 PUSH1 0x20 ADD SWAP2 PUSH2 0x1DCC JUMP JUMPDEST DUP3 ADD SWAP2 SWAP1 PUSH1 0x0 MSTORE PUSH1 0x20 PUSH1 0x0 KECCAK256 SWAP1 JUMPDEST DUP2 SLOAD DUP2 MSTORE SWAP1 PUSH1 0x1 ADD SWAP1 PUSH1 0x20 ADD DUP1 DUP4 GT PUSH2 0x1DAF JUMPI DUP3 SWAP1 SUB PUSH1 0x1F AND DUP3 ADD SWAP2 JUMPDEST POP POP POP POP POP DUP2 MSTORE PUSH1 0x20 ADD PUSH1 0xA DUP3 ADD PUSH1 0x40 MLOAD DUP1 PUSH1 0xA0 ADD PUSH1 0x40 MSTORE SWAP1 DUP2 PUSH1 0x0 DUP3 ADD DUP1 SLOAD PUSH2 0x1DF5 SWAP1 PUSH2 0x58EB JUMP JUMPDEST DUP1 PUSH1 0x1F ADD PUSH1 0x20 DUP1 SWAP2 DIV MUL PUSH1 0x20 ADD PUSH1 0x40 MLOAD SWAP1 DUP2 ADD PUSH1 0x40 MSTORE DUP1 SWAP3 SWAP2 SWAP1 DUP2 DUP2 MSTORE PUSH1 0x20 ADD DUP3 DUP1 SLOAD PUSH2 0x1E21 SWAP1 PUSH2 0x58EB JUMP JUMPDEST DUP1 ISZERO PUSH2 0x1E6E JUMPI DUP1 PUSH1 0x1F LT PUSH2 0x1E43 JUMPI PUSH2 0x100 DUP1 DUP4 SLOAD DIV MUL DUP4 MSTORE SWAP2 PUSH1 0x20 ADD SWAP2 PUSH2 0x1E6E JUMP JUMPDEST DUP3 ADD SWAP2 SWAP1 PUSH1 0x0 MSTORE PUSH1 0x20 PUSH1 0x0 KECCAK256 SWAP1 JUMPDEST DUP2 SLOAD DUP2 MSTORE SWAP1 PUSH1 0x1 ADD SWAP1 PUSH1 0x20 ADD DUP1 DUP4 GT PUSH2 0x1E51 JUMPI DUP3 SWAP1 SUB PUSH1 0x1F AND DUP3 ADD SWAP2 JUMPDEST POP POP POP POP POP DUP2 MSTORE PUSH1 0x20 ADD PUSH1 0x1 DUP3 ADD DUP1 SLOAD PUSH2 0x1E87 SWAP1 PUSH2 0x58EB JUMP JUMPDEST DUP1 PUSH1 0x1F ADD PUSH1 0x20 DUP1 SWAP2 DIV MUL PUSH1 0x20 ADD PUSH1 0x40 MLOAD SWAP1 DUP2 ADD PUSH1 0x40 MSTORE DUP1 SWAP3 SWAP2 SWAP1 DUP2 DUP2 MSTORE PUSH1 0x20 ADD DUP3 DUP1 SLOAD PUSH2 0x1EB3 SWAP1 PUSH2 0x58EB JUMP JUMPDEST DUP1 ISZERO PUSH2 0x1F00 JUMPI DUP1 PUSH1 0x1F LT PUSH2 0x1ED5 JUMPI PUSH2 0x100 DUP1 DUP4 SLOAD DIV MUL DUP4 MSTORE SWAP2 PUSH1 0x20 ADD SWAP2 PUSH2 0x1F00 JUMP JUMPDEST DUP3 ADD SWAP2 SWAP1 PUSH1 0x0 MSTORE PUSH1 0x20 PUSH1 0x0 KECCAK256 SWAP1 JUMPDEST DUP2 SLOAD DUP2 MSTORE SWAP1 PUSH1 0x1 ADD SWAP1 PUSH1 0x20 ADD DUP1 DUP4 GT PUSH2 0x1EE3 JUMPI DUP3 SWAP1 SUB PUSH1 0x1F AND DUP3 ADD SWAP2 JUMPDEST POP POP POP POP POP DUP2 MSTORE PUSH1 0x20 ADD PUSH1 0x2 DUP3 ADD DUP1 SLOAD PUSH2 0x1F19 SWAP1 PUSH2 0x58EB JUMP JUMPDEST DUP1 PUSH1 0x1F ADD PUSH1 0x20 DUP1 SWAP2 DIV MUL PUSH1 0x20 ADD PUSH1 0x40 MLOAD SWAP1 DUP2 ADD PUSH1 0x40 MSTORE DUP1 SWAP3 SWAP2 SWAP1 DUP2 DUP2 MSTORE PUSH1 0x20 ADD DUP3 DUP1 SLOAD PUSH2 0x1F45 SWAP1 PUSH2 0x58EB JUMP JUMPDEST DUP1 ISZERO PUSH2 0x1F92 JUMPI DUP1 PUSH1 0x1F LT PUSH2 0x1F67 JUMPI PUSH2 0x100 DUP1 DUP4 SLOAD DIV MUL DUP4 MSTORE SWAP2 PUSH1 0x20 ADD SWAP2 PUSH2 0x1F92 JUMP JUMPDEST DUP3 ADD SWAP2 SWAP1 PUSH1 0x0 MSTORE PUSH1 0x20 PUSH1 0x0 KECCAK256 SWAP1 JUMPDEST DUP2 SLOAD DUP2 MSTORE SWAP1 PUSH1 0x1 ADD SWAP1 PUSH1 0x20 ADD DUP1 DUP4 GT PUSH2 0x1F75 JUMPI DUP3 SWAP1 SUB PUSH1 0x1F AND DUP3 ADD SWAP2 JUMPDEST POP POP POP POP POP DUP2 MSTORE PUSH1 0x20 ADD PUSH1 0x3 DUP3 ADD DUP1 SLOAD PUSH2 0x1FAB SWAP1 PUSH2 0x58EB JUMP JUMPDEST DUP1 PUSH1 0x1F ADD PUSH1 0x20 DUP1 SWAP2 DIV MUL PUSH1 0x20 ADD PUSH1 0x40 MLOAD SWAP1 DUP2 ADD PUSH1 0x40 MSTORE DUP1 SWAP3 SWAP2 SWAP1 DUP2 DUP2 MSTORE PUSH1 0x20 ADD DUP3 DUP1 SLOAD PUSH2 0x1FD7 SWAP1 PUSH2 0x58EB JUMP JUMPDEST DUP1 ISZERO PUSH2 0x2024 JUMPI DUP1 PUSH1 0x1F LT PUSH2 0x1FF9 JUMPI PUSH2 0x100 DUP1 DUP4 SLOAD DIV MUL DUP4 MSTORE SWAP2 PUSH1 0x20 ADD SWAP2 PUSH2 0x2024 JUMP JUMPDEST DUP3 ADD SWAP2 SWAP1 PUSH1 0x0 MSTORE PUSH1 0x20 PUSH1 0x0 KECCAK256 SWAP1 JUMPDEST DUP2 SLOAD DUP2 MSTORE SWAP1 PUSH1 0x1 ADD SWAP1 PUSH1 0x20 ADD DUP1 DUP4 GT PUSH2 0x2007 JUMPI DUP3 SWAP1 SUB PUSH1 0x1F AND DUP3 ADD SWAP2 JUMPDEST POP POP POP POP POP DUP2 MSTORE PUSH1 0x20 ADD PUSH1 0x4 DUP3 ADD DUP1 SLOAD PUSH2 0x203D SWAP1 PUSH2 0x58EB JUMP JUMPDEST DUP1 PUSH1 0x1F ADD PUSH1 0x20 DUP1 SWAP2 DIV MUL PUSH1 0x20 ADD PUSH1 0x40 MLOAD SWAP1 DUP2 ADD PUSH1 0x40 MSTORE DUP1 SWAP3 SWAP2 SWAP1 DUP2 DUP2 MSTORE PUSH1 0x20 ADD DUP3 DUP1 SLOAD PUSH2 0x2069 SWAP1 PUSH2 0x58EB JUMP JUMPDEST DUP1 ISZERO PUSH2 0x20B6 JUMPI DUP1 PUSH1 0x1F LT PUSH2 0x208B JUMPI PUSH2 0x100 DUP1 DUP4 SLOAD DIV MUL DUP4 MSTORE SWAP2 PUSH1 0x20 ADD SWAP2 PUSH2 0x20B6 JUMP JUMPDEST DUP3 ADD SWAP2 SWAP1 PUSH1 0x0 MSTORE PUSH1 0x20 PUSH1 0x0 KECCAK256 SWAP1 JUMPDEST DUP2 SLOAD DUP2 MSTORE SWAP1 PUSH1 0x1 ADD SWAP1 PUSH1 0x20 ADD DUP1 DUP4 GT PUSH2 0x2099 JUMPI DUP3 SWAP1 SUB PUSH1 0x1F AND DUP3 ADD SWAP2 JUMPDEST POP POP POP POP POP DUP2 MSTORE POP POP DUP2 MSTORE POP POP SWAP1 POP SWAP2 SWAP1 POP JUMP JUMPDEST PUSH1 0x0 DUP1 SLOAD SWAP1 PUSH2 0x100 EXP SWAP1 DIV PUSH20 0xFFFFFFFFFFFFFFFFFFFFFFFFFFFFFFFFFFFFFFFF AND PUSH20 0xFFFFFFFFFFFFFFFFFFFFFFFFFFFFFFFFFFFFFFFF AND CALLER PUSH20 0xFFFFFFFFFFFFFFFFFFFFFFFFFFFFFFFFFFFFFFFF AND EQ PUSH2 0x2158 JUMPI PUSH1 0x40 MLOAD PUSH32 0x8C379A000000000000000000000000000000000000000000000000000000000 DUP2 MSTORE PUSH1 0x4 ADD PUSH2 0x214F SWAP1 PUSH2 0x589C JUMP JUMPDEST PUSH1 0x40 MLOAD DUP1 SWAP2 SUB SWAP1 REVERT JUMPDEST DUP1 PUSH1 0x1 DUP4 PUSH1 0x40 MLOAD PUSH2 0x2169 SWAP2 SWAP1 PUSH2 0x5993 JUMP JUMPDEST SWAP1 DUP2 MSTORE PUSH1 0x20 ADD PUSH1 0x40 MLOAD DUP1 SWAP2 SUB SWAP1 KECCAK256 PUSH1 0xA ADD PUSH1 0x0 ADD SWAP1 DUP1 MLOAD SWAP1 PUSH1 0x20 ADD SWAP1 PUSH2 0x2190 SWAP3 SWAP2 SWAP1 PUSH2 0x4A05 JUMP JUMPDEST POP POP POP JUMP JUMPDEST DUP1 PUSH1 0xC DUP2 SWAP1 SSTORE POP POP JUMP JUMPDEST PUSH1 0x7 DUP1 SLOAD PUSH2 0x21AC SWAP1 PUSH2 0x58EB JUMP JUMPDEST DUP1 PUSH1 0x1F ADD PUSH1 0x20 DUP1 SWAP2 DIV MUL PUSH1 0x20 ADD PUSH1 0x40 MLOAD SWAP1 DUP2 ADD PUSH1 0x40 MSTORE DUP1 SWAP3 SWAP2 SWAP1 DUP2 DUP2 MSTORE PUSH1 0x20 ADD DUP3 DUP1 SLOAD PUSH2 0x21D8 SWAP1 PUSH2 0x58EB JUMP JUMPDEST DUP1 ISZERO PUSH2 0x2225 JUMPI DUP1 PUSH1 0x1F LT PUSH2 0x21FA JUMPI PUSH2 0x100 DUP1 DUP4 SLOAD DIV MUL DUP4 MSTORE SWAP2 PUSH1 0x20 ADD SWAP2 PUSH2 0x2225 JUMP JUMPDEST DUP3 ADD SWAP2 SWAP1 PUSH1 0x0 MSTORE PUSH1 0x20 PUSH1 0x0 KECCAK256 SWAP1 JUMPDEST DUP2 SLOAD DUP2 MSTORE SWAP1 PUSH1 0x1 ADD SWAP1 PUSH1 0x20 ADD DUP1 DUP4 GT PUSH2 0x2208 JUMPI DUP3 SWAP1 SUB PUSH1 0x1F AND DUP3 ADD SWAP2 JUMPDEST POP POP POP POP POP DUP2 JUMP JUMPDEST PUSH1 0xA DUP2 DUP1 MLOAD PUSH1 0x20 DUP2 ADD DUP3 ADD DUP1 MLOAD DUP5 DUP3 MSTORE PUSH1 0x20 DUP4 ADD PUSH1 0x20 DUP6 ADD KECCAK256 DUP2 DUP4 MSTORE DUP1 SWAP6 POP POP POP POP POP POP PUSH1 0x0 SWAP2 POP SWAP1 POP DUP1 PUSH1 0x0 ADD DUP1 SLOAD PUSH2 0x2266 SWAP1 PUSH2 0x58EB JUMP JUMPDEST DUP1 PUSH1 0x1F ADD PUSH1 0x20 DUP1 SWAP2 DIV MUL PUSH1 0x20 ADD PUSH1 0x40 MLOAD SWAP1 DUP2 ADD PUSH1 0x40 MSTORE DUP1 SWAP3 SWAP2 SWAP1 DUP2 DUP2 MSTORE PUSH1 0x20 ADD DUP3 DUP1 SLOAD PUSH2 0x2292 SWAP1 PUSH2 0x58EB JUMP JUMPDEST DUP1 ISZERO PUSH2 0x22DF JUMPI DUP1 PUSH1 0x1F LT PUSH2 0x22B4 JUMPI PUSH2 0x100 DUP1 DUP4 SLOAD DIV MUL DUP4 MSTORE SWAP2 PUSH1 0x20 ADD SWAP2 PUSH2 0x22DF JUMP JUMPDEST DUP3 ADD SWAP2 SWAP1 PUSH1 0x0 MSTORE PUSH1 0x20 PUSH1 0x0 KECCAK256 SWAP1 JUMPDEST DUP2 SLOAD DUP2 MSTORE SWAP1 PUSH1 0x1 ADD SWAP1 PUSH1 0x20 ADD DUP1 DUP4 GT PUSH2 0x22C2 JUMPI DUP3 SWAP1 SUB PUSH1 0x1F AND DUP3 ADD SWAP2 JUMPDEST POP POP POP POP POP SWAP1 DUP1 PUSH1 0x1 ADD DUP1 SLOAD PUSH2 0x22F4 SWAP1 PUSH2 0x58EB JUMP JUMPDEST DUP1 PUSH1 0x1F ADD PUSH1 0x20 DUP1 SWAP2 DIV MUL PUSH1 0x20 ADD PUSH1 0x40 MLOAD SWAP1 DUP2 ADD PUSH1 0x40 MSTORE DUP1 SWAP3 SWAP2 SWAP1 DUP2 DUP2 MSTORE PUSH1 0x20 ADD DUP3 DUP1 SLOAD PUSH2 0x2320 SWAP1 PUSH2 0x58EB JUMP JUMPDEST DUP1 ISZERO PUSH2 0x236D JUMPI DUP1 PUSH1 0x1F LT PUSH2 0x2342 JUMPI PUSH2 0x100 DUP1 DUP4 SLOAD DIV MUL DUP4 MSTORE SWAP2 PUSH1 0x20 ADD SWAP2 PUSH2 0x236D JUMP JUMPDEST DUP3 ADD SWAP2 SWAP1 PUSH1 0x0 MSTORE PUSH1 0x20 PUSH1 0x0 KECCAK256 SWAP1 JUMPDEST DUP2 SLOAD DUP2 MSTORE SWAP1 PUSH1 0x1 ADD SWAP1 PUSH1 0x20 ADD DUP1 DUP4 GT PUSH2 0x2350 JUMPI DUP3 SWAP1 SUB PUSH1 0x1F AND DUP3 ADD SWAP2 JUMPDEST POP POP POP POP POP SWAP1 DUP1 PUSH1 0x2 ADD DUP1 SLOAD PUSH2 0x2382 SWAP1 PUSH2 0x58EB JUMP JUMPDEST DUP1 PUSH1 0x1F ADD PUSH1 0x20 DUP1 SWAP2 DIV MUL PUSH1 0x20 ADD PUSH1 0x40 MLOAD SWAP1 DUP2 ADD PUSH1 0x40 MSTORE DUP1 SWAP3 SWAP2 SWAP1 DUP2 DUP2 MSTORE PUSH1 0x20 ADD DUP3 DUP1 SLOAD PUSH2 0x23AE SWAP1 PUSH2 0x58EB JUMP JUMPDEST DUP1 ISZERO PUSH2 0x23FB JUMPI DUP1 PUSH1 0x1F LT PUSH2 0x23D0 JUMPI PUSH2 0x100 DUP1 DUP4 SLOAD DIV MUL DUP4 MSTORE SWAP2 PUSH1 0x20 ADD SWAP2 PUSH2 0x23FB JUMP JUMPDEST DUP3 ADD SWAP2 SWAP1 PUSH1 0x0 MSTORE PUSH1 0x20 PUSH1 0x0 KECCAK256 SWAP1 JUMPDEST DUP2 SLOAD DUP2 MSTORE SWAP1 PUSH1 0x1 ADD SWAP1 PUSH1 0x20 ADD DUP1 DUP4 GT PUSH2 0x23DE JUMPI DUP3 SWAP1 SUB PUSH1 0x1F AND DUP3 ADD SWAP2 JUMPDEST POP POP POP POP POP SWAP1 DUP1 PUSH1 0x3 ADD DUP1 SLOAD PUSH2 0x2410 SWAP1 PUSH2 0x58EB JUMP JUMPDEST DUP1 PUSH1 0x1F ADD PUSH1 0x20 DUP1 SWAP2 DIV MUL PUSH1 0x20 ADD PUSH1 0x40 MLOAD SWAP1 DUP2 ADD PUSH1 0x40 MSTORE DUP1 SWAP3 SWAP2 SWAP1 DUP2 DUP2 MSTORE PUSH1 0x20 ADD DUP3 DUP1 SLOAD PUSH2 0x243C SWAP1 PUSH2 0x58EB JUMP JUMPDEST DUP1 ISZERO PUSH2 0x2489 JUMPI DUP1 PUSH1 0x1F LT PUSH2 0x245E JUMPI PUSH2 0x100 DUP1 DUP4 SLOAD DIV MUL DUP4 MSTORE SWAP2 PUSH1 0x20 ADD SWAP2 PUSH2 0x2489 JUMP JUMPDEST DUP3 ADD SWAP2 SWAP1 PUSH1 0x0 MSTORE PUSH1 0x20 PUSH1 0x0 KECCAK256 SWAP1 JUMPDEST DUP2 SLOAD DUP2 MSTORE SWAP1 PUSH1 0x1 ADD SWAP1 PUSH1 0x20 ADD DUP1 DUP4 GT PUSH2 0x246C JUMPI DUP3 SWAP1 SUB PUSH1 0x1F AND DUP3 ADD SWAP2 JUMPDEST POP POP POP POP POP SWAP1 POP DUP5 JUMP JUMPDEST PUSH1 0x60 PUSH1 0x0 DUP1 SLOAD SWAP1 PUSH2 0x100 EXP SWAP1 DIV PUSH20 0xFFFFFFFFFFFFFFFFFFFFFFFFFFFFFFFFFFFFFFFF AND PUSH20 0xFFFFFFFFFFFFFFFFFFFFFFFFFFFFFFFFFFFFFFFF AND CALLER PUSH20 0xFFFFFFFFFFFFFFFFFFFFFFFFFFFFFFFFFFFFFFFF AND EQ PUSH2 0x2523 JUMPI PUSH1 0x40 MLOAD PUSH32 0x8C379A000000000000000000000000000000000000000000000000000000000 DUP2 MSTORE PUSH1 0x4 ADD PUSH2 0x251A SWAP1 PUSH2 0x589C JUMP JUMPDEST PUSH1 0x40 MLOAD DUP1 SWAP2 SUB SWAP1 REVERT JUMPDEST PUSH1 0x9 DUP3 PUSH1 0x40 MLOAD PUSH2 0x2533 SWAP2 SWAP1 PUSH2 0x5993 JUMP JUMPDEST SWAP1 DUP2 MSTORE PUSH1 0x20 ADD PUSH1 0x40 MLOAD DUP1 SWAP2 SUB SWAP1 KECCAK256 PUSH1 0x1 ADD DUP1 SLOAD PUSH2 0x254F SWAP1 PUSH2 0x58EB JUMP JUMPDEST DUP1 PUSH1 0x1F ADD PUSH1 0x20 DUP1 SWAP2 DIV MUL PUSH1 0x20 ADD PUSH1 0x40 MLOAD SWAP1 DUP2 ADD PUSH1 0x40 MSTORE DUP1 SWAP3 SWAP2 SWAP1 DUP2 DUP2 MSTORE PUSH1 0x20 ADD DUP3 DUP1 SLOAD PUSH2 0x257B SWAP1 PUSH2 0x58EB JUMP JUMPDEST DUP1 ISZERO PUSH2 0x25C8 JUMPI DUP1 PUSH1 0x1F LT PUSH2 0x259D JUMPI PUSH2 0x100 DUP1 DUP4 SLOAD DIV MUL DUP4 MSTORE SWAP2 PUSH1 0x20 ADD SWAP2 PUSH2 0x25C8 JUMP JUMPDEST DUP3 ADD SWAP2 SWAP1 PUSH1 0x0 MSTORE PUSH1 0x20 PUSH1 0x0 KECCAK256 SWAP1 JUMPDEST DUP2 SLOAD DUP2 MSTORE SWAP1 PUSH1 0x1 ADD SWAP1 PUSH1 0x20 ADD DUP1 DUP4 GT PUSH2 0x25AB JUMPI DUP3 SWAP1 SUB PUSH1 0x1F AND DUP3 ADD SWAP2 JUMPDEST POP POP POP POP POP SWAP1 POP SWAP2 SWAP1 POP JUMP JUMPDEST PUSH1 0x1 DUP2 DUP1 MLOAD PUSH1 0x20 DUP2 ADD DUP3 ADD DUP1 MLOAD DUP5 DUP3 MSTORE PUSH1 0x20 DUP4 ADD PUSH1 0x20 DUP6 ADD KECCAK256 DUP2 DUP4 MSTORE DUP1 SWAP6 POP POP POP POP POP POP PUSH1 0x0 SWAP2 POP SWAP1 POP DUP1 PUSH1 0x0 ADD DUP1 SLOAD PUSH2 0x260D SWAP1 PUSH2 0x58EB JUMP JUMPDEST DUP1 PUSH1 0x1F ADD PUSH1 0x20 DUP1 SWAP2 DIV MUL PUSH1 0x20 ADD PUSH1 0x40 MLOAD SWAP1 DUP2 ADD PUSH1 0x40 MSTORE DUP1 SWAP3 SWAP2 SWAP1 DUP2 DUP2 MSTORE PUSH1 0x20 ADD DUP3 DUP1 SLOAD PUSH2 0x2639 SWAP1 PUSH2 0x58EB JUMP JUMPDEST DUP1 ISZERO PUSH2 0x2686 JUMPI DUP1 PUSH1 0x1F LT PUSH2 0x265B JUMPI PUSH2 0x100 DUP1 DUP4 SLOAD DIV MUL DUP4 MSTORE SWAP2 PUSH1 0x20 ADD SWAP2 PUSH2 0x2686 JUMP JUMPDEST DUP3 ADD SWAP2 SWAP1 PUSH1 0x0 MSTORE PUSH1 0x20 PUSH1 0x0 KECCAK256 SWAP1 JUMPDEST DUP2 SLOAD DUP2 MSTORE SWAP1 PUSH1 0x1 ADD SWAP1 PUSH1 0x20 ADD DUP1 DUP4 GT PUSH2 0x2669 JUMPI DUP3 SWAP1 SUB PUSH1 0x1F AND DUP3 ADD SWAP2 JUMPDEST POP POP POP POP POP SWAP1 DUP1 PUSH1 0x1 ADD DUP1 SLOAD PUSH2 0x269B SWAP1 PUSH2 0x58EB JUMP JUMPDEST DUP1 PUSH1 0x1F ADD PUSH1 0x20 DUP1 SWAP2 DIV MUL PUSH1 0x20 ADD PUSH1 0x40 MLOAD SWAP1 DUP2 ADD PUSH1 0x40 MSTORE DUP1 SWAP3 SWAP2 SWAP1 DUP2 DUP2 MSTORE PUSH1 0x20 ADD DUP3 DUP1 SLOAD PUSH2 0x26C7 SWAP1 PUSH2 0x58EB JUMP JUMPDEST DUP1 ISZERO PUSH2 0x2714 JUMPI DUP1 PUSH1 0x1F LT PUSH2 0x26E9 JUMPI PUSH2 0x100 DUP1 DUP4 SLOAD DIV MUL DUP4 MSTORE SWAP2 PUSH1 0x20 ADD SWAP2 PUSH2 0x2714 JUMP JUMPDEST DUP3 ADD SWAP2 SWAP1 PUSH1 0x0 MSTORE PUSH1 0x20 PUSH1 0x0 KECCAK256 SWAP1 JUMPDEST DUP2 SLOAD DUP2 MSTORE SWAP1 PUSH1 0x1 ADD SWAP1 PUSH1 0x20 ADD DUP1 DUP4 GT PUSH2 0x26F7 JUMPI DUP3 SWAP1 SUB PUSH1 0x1F AND DUP3 ADD SWAP2 JUMPDEST POP POP POP POP POP SWAP1 DUP1 PUSH1 0x2 ADD DUP1 SLOAD PUSH2 0x2729 SWAP1 PUSH2 0x58EB JUMP JUMPDEST DUP1 PUSH1 0x1F ADD PUSH1 0x20 DUP1 SWAP2 DIV MUL PUSH1 0x20 ADD PUSH1 0x40 MLOAD SWAP1 DUP2 ADD PUSH1 0x40 MSTORE DUP1 SWAP3 SWAP2 SWAP1 DUP2 DUP2 MSTORE PUSH1 0x20 ADD DUP3 DUP1 SLOAD PUSH2 0x2755 SWAP1 PUSH2 0x58EB JUMP JUMPDEST DUP1 ISZERO PUSH2 0x27A2 JUMPI DUP1 PUSH1 0x1F LT PUSH2 0x2777 JUMPI PUSH2 0x100 DUP1 DUP4 SLOAD DIV MUL DUP4 MSTORE SWAP2 PUSH1 0x20 ADD SWAP2 PUSH2 0x27A2 JUMP JUMPDEST DUP3 ADD SWAP2 SWAP1 PUSH1 0x0 MSTORE PUSH1 0x20 PUSH1 0x0 KECCAK256 SWAP1 JUMPDEST DUP2 SLOAD DUP2 MSTORE SWAP1 PUSH1 0x1 ADD SWAP1 PUSH1 0x20 ADD DUP1 DUP4 GT PUSH2 0x2785 JUMPI DUP3 SWAP1 SUB PUSH1 0x1F AND DUP3 ADD SWAP2 JUMPDEST POP POP POP POP POP SWAP1 DUP1 PUSH1 0x3 ADD DUP1 SLOAD PUSH2 0x27B7 SWAP1 PUSH2 0x58EB JUMP JUMPDEST DUP1 PUSH1 0x1F ADD PUSH1 0x20 DUP1 SWAP2 DIV MUL PUSH1 0x20 ADD PUSH1 0x40 MLOAD SWAP1 DUP2 ADD PUSH1 0x40 MSTORE DUP1 SWAP3 SWAP2 SWAP1 DUP2 DUP2 MSTORE PUSH1 0x20 ADD DUP3 DUP1 SLOAD PUSH2 0x27E3 SWAP1 PUSH2 0x58EB JUMP JUMPDEST DUP1 ISZERO PUSH2 0x2830 JUMPI DUP1 PUSH1 0x1F LT PUSH2 0x2805 JUMPI PUSH2 0x100 DUP1 DUP4 SLOAD DIV MUL DUP4 MSTORE SWAP2 PUSH1 0x20 ADD SWAP2 PUSH2 0x2830 JUMP JUMPDEST DUP3 ADD SWAP2 SWAP1 PUSH1 0x0 MSTORE PUSH1 0x20 PUSH1 0x0 KECCAK256 SWAP1 JUMPDEST DUP2 SLOAD DUP2 MSTORE SWAP1 PUSH1 0x1 ADD SWAP1 PUSH1 0x20 ADD DUP1 DUP4 GT PUSH2 0x2813 JUMPI DUP3 SWAP1 SUB PUSH1 0x1F AND DUP3 ADD SWAP2 JUMPDEST POP POP POP POP POP SWAP1 DUP1 PUSH1 0x4 ADD DUP1 SLOAD PUSH2 0x2845 SWAP1 PUSH2 0x58EB JUMP JUMPDEST DUP1 PUSH1 0x1F ADD PUSH1 0x20 DUP1 SWAP2 DIV MUL PUSH1 0x20 ADD PUSH1 0x40 MLOAD SWAP1 DUP2 ADD PUSH1 0x40 MSTORE DUP1 SWAP3 SWAP2 SWAP1 DUP2 DUP2 MSTORE PUSH1 0x20 ADD DUP3 DUP1 SLOAD PUSH2 0x2871 SWAP1 PUSH2 0x58EB JUMP JUMPDEST DUP1 ISZERO PUSH2 0x28BE JUMPI DUP1 PUSH1 0x1F LT PUSH2 0x2893 JUMPI PUSH2 0x100 DUP1 DUP4 SLOAD DIV MUL DUP4 MSTORE SWAP2 PUSH1 0x20 ADD SWAP2 PUSH2 0x28BE JUMP JUMPDEST DUP3 ADD SWAP2 SWAP1 PUSH1 0x0 MSTORE PUSH1 0x20 PUSH1 0x0 KECCAK256 SWAP1 JUMPDEST DUP2 SLOAD DUP2 MSTORE SWAP1 PUSH1 0x1 ADD SWAP1 PUSH1 0x20 ADD DUP1 DUP4 GT PUSH2 0x28A1 JUMPI DUP3 SWAP1 SUB PUSH1 0x1F AND DUP3 ADD SWAP2 JUMPDEST POP POP POP POP POP SWAP1 DUP1 PUSH1 0x5 ADD DUP1 SLOAD PUSH2 0x28D3 SWAP1 PUSH2 0x58EB JUMP JUMPDEST DUP1 PUSH1 0x1F ADD PUSH1 0x20 DUP1 SWAP2 DIV MUL PUSH1 0x20 ADD PUSH1 0x40 MLOAD SWAP1 DUP2 ADD PUSH1 0x40 MSTORE DUP1 SWAP3 SWAP2 SWAP1 DUP2 DUP2 MSTORE PUSH1 0x20 ADD DUP3 DUP1 SLOAD PUSH2 0x28FF SWAP1 PUSH2 0x58EB JUMP JUMPDEST DUP1 ISZERO PUSH2 0x294C JUMPI DUP1 PUSH1 0x1F LT PUSH2 0x2921 JUMPI PUSH2 0x100 DUP1 DUP4 SLOAD DIV MUL DUP4 MSTORE SWAP2 PUSH1 0x20 ADD SWAP2 PUSH2 0x294C JUMP JUMPDEST DUP3 ADD SWAP2 SWAP1 PUSH1 0x0 MSTORE PUSH1 0x20 PUSH1 0x0 KECCAK256 SWAP1 JUMPDEST DUP2 SLOAD DUP2 MSTORE SWAP1 PUSH1 0x1 ADD SWAP1 PUSH1 0x20 ADD DUP1 DUP4 GT PUSH2 0x292F JUMPI DUP3 SWAP1 SUB PUSH1 0x1F AND DUP3 ADD SWAP2 JUMPDEST POP POP POP POP POP SWAP1 DUP1 PUSH1 0x6 ADD DUP1 SLOAD PUSH2 0x2961 SWAP1 PUSH2 0x58EB JUMP JUMPDEST DUP1 PUSH1 0x1F ADD PUSH1 0x20 DUP1 SWAP2 DIV MUL PUSH1 0x20 ADD PUSH1 0x40 MLOAD SWAP1 DUP2 ADD PUSH1 0x40 MSTORE DUP1 SWAP3 SWAP2 SWAP1 DUP2 DUP2 MSTORE PUSH1 0x20 ADD DUP3 DUP1 SLOAD PUSH2 0x298D SWAP1 PUSH2 0x58EB JUMP JUMPDEST DUP1 ISZERO PUSH2 0x29DA JUMPI DUP1 PUSH1 0x1F LT PUSH2 0x29AF JUMPI PUSH2 0x100 DUP1 DUP4 SLOAD DIV MUL DUP4 MSTORE SWAP2 PUSH1 0x20 ADD SWAP2 PUSH2 0x29DA JUMP JUMPDEST DUP3 ADD SWAP2 SWAP1 PUSH1 0x0 MSTORE PUSH1 0x20 PUSH1 0x0 KECCAK256 SWAP1 JUMPDEST DUP2 SLOAD DUP2 MSTORE SWAP1 PUSH1 0x1 ADD SWAP1 PUSH1 0x20 ADD DUP1 DUP4 GT PUSH2 0x29BD JUMPI DUP3 SWAP1 SUB PUSH1 0x1F AND DUP3 ADD SWAP2 JUMPDEST POP POP POP POP POP SWAP1 DUP1 PUSH1 0x7 ADD DUP1 SLOAD PUSH2 0x29EF SWAP1 PUSH2 0x58EB JUMP JUMPDEST DUP1 PUSH1 0x1F ADD PUSH1 0x20 DUP1 SWAP2 DIV MUL PUSH1 0x20 ADD PUSH1 0x40 MLOAD SWAP1 DUP2 ADD PUSH1 0x40 MSTORE DUP1 SWAP3 SWAP2 SWAP1 DUP2 DUP2 MSTORE PUSH1 0x20 ADD DUP3 DUP1 SLOAD PUSH2 0x2A1B SWAP1 PUSH2 0x58EB JUMP JUMPDEST DUP1 ISZERO PUSH2 0x2A68 JUMPI DUP1 PUSH1 0x1F LT PUSH2 0x2A3D JUMPI PUSH2 0x100 DUP1 DUP4 SLOAD DIV MUL DUP4 MSTORE SWAP2 PUSH1 0x20 ADD SWAP2 PUSH2 0x2A68 JUMP JUMPDEST DUP3 ADD SWAP2 SWAP1 PUSH1 0x0 MSTORE PUSH1 0x20 PUSH1 0x0 KECCAK256 SWAP1 JUMPDEST DUP2 SLOAD DUP2 MSTORE SWAP1 PUSH1 0x1 ADD SWAP1 PUSH1 0x20 ADD DUP1 DUP4 GT PUSH2 0x2A4B JUMPI DUP3 SWAP1 SUB PUSH1 0x1F AND DUP3 ADD SWAP2 JUMPDEST POP POP POP POP POP SWAP1 DUP1 PUSH1 0x8 ADD DUP1 SLOAD PUSH2 0x2A7D SWAP1 PUSH2 0x58EB JUMP JUMPDEST DUP1 PUSH1 0x1F ADD PUSH1 0x20 DUP1 SWAP2 DIV MUL PUSH1 0x20 ADD PUSH1 0x40 MLOAD SWAP1 DUP2 ADD PUSH1 0x40 MSTORE DUP1 SWAP3 SWAP2 SWAP1 DUP2 DUP2 MSTORE PUSH1 0x20 ADD DUP3 DUP1 SLOAD PUSH2 0x2AA9 SWAP1 PUSH2 0x58EB JUMP JUMPDEST DUP1 ISZERO PUSH2 0x2AF6 JUMPI DUP1 PUSH1 0x1F LT PUSH2 0x2ACB JUMPI PUSH2 0x100 DUP1 DUP4 SLOAD DIV MUL DUP4 MSTORE SWAP2 PUSH1 0x20 ADD SWAP2 PUSH2 0x2AF6 JUMP JUMPDEST DUP3 ADD SWAP2 SWAP1 PUSH1 0x0 MSTORE PUSH1 0x20 PUSH1 0x0 KECCAK256 SWAP1 JUMPDEST DUP2 SLOAD DUP2 MSTORE SWAP1 PUSH1 0x1 ADD SWAP1 PUSH1 0x20 ADD DUP1 DUP4 GT PUSH2 0x2AD9 JUMPI DUP3 SWAP1 SUB PUSH1 0x1F AND DUP3 ADD SWAP2 JUMPDEST POP POP POP POP POP SWAP1 DUP1 PUSH1 0x9 ADD DUP1 SLOAD PUSH2 0x2B0B SWAP1 PUSH2 0x58EB JUMP JUMPDEST DUP1 PUSH1 0x1F ADD PUSH1 0x20 DUP1 SWAP2 DIV MUL PUSH1 0x20 ADD PUSH1 0x40 MLOAD SWAP1 DUP2 ADD PUSH1 0x40 MSTORE DUP1 SWAP3 SWAP2 SWAP1 DUP2 DUP2 MSTORE PUSH1 0x20 ADD DUP3 DUP1 SLOAD PUSH2 0x2B37 SWAP1 PUSH2 0x58EB JUMP JUMPDEST DUP1 ISZERO PUSH2 0x2B84 JUMPI DUP1 PUSH1 0x1F LT PUSH2 0x2B59 JUMPI PUSH2 0x100 DUP1 DUP4 SLOAD DIV MUL DUP4 MSTORE SWAP2 PUSH1 0x20 ADD SWAP2 PUSH2 0x2B84 JUMP JUMPDEST DUP3 ADD SWAP2 SWAP1 PUSH1 0x0 MSTORE PUSH1 0x20 PUSH1 0x0 KECCAK256 SWAP1 JUMPDEST DUP2 SLOAD DUP2 MSTORE SWAP1 PUSH1 0x1 ADD SWAP1 PUSH1 0x20 ADD DUP1 DUP4 GT PUSH2 0x2B67 JUMPI DUP3 SWAP1 SUB PUSH1 0x1F AND DUP3 ADD SWAP2 JUMPDEST POP POP POP POP POP SWAP1 DUP1 PUSH1 0xA ADD PUSH1 0x40 MLOAD DUP1 PUSH1 0xA0 ADD PUSH1 0x40 MSTORE SWAP1 DUP2 PUSH1 0x0 DUP3 ADD DUP1 SLOAD PUSH2 0x2BA9 SWAP1 PUSH2 0x58EB JUMP JUMPDEST DUP1 PUSH1 0x1F ADD PUSH1 0x20 DUP1 SWAP2 DIV MUL PUSH1 0x20 ADD PUSH1 0x40 MLOAD SWAP1 DUP2 ADD PUSH1 0x40 MSTORE DUP1 SWAP3 SWAP2 SWAP1 DUP2 DUP2 MSTORE PUSH1 0x20 ADD DUP3 DUP1 SLOAD PUSH2 0x2BD5 SWAP1 PUSH2 0x58EB JUMP JUMPDEST DUP1 ISZERO PUSH2 0x2C22 JUMPI DUP1 PUSH1 0x1F LT PUSH2 0x2BF7 JUMPI PUSH2 0x100 DUP1 DUP4 SLOAD DIV MUL DUP4 MSTORE SWAP2 PUSH1 0x20 ADD SWAP2 PUSH2 0x2C22 JUMP JUMPDEST DUP3 ADD SWAP2 SWAP1 PUSH1 0x0 MSTORE PUSH1 0x20 PUSH1 0x0 KECCAK256 SWAP1 JUMPDEST DUP2 SLOAD DUP2 MSTORE SWAP1 PUSH1 0x1 ADD SWAP1 PUSH1 0x20 ADD DUP1 DUP4 GT PUSH2 0x2C05 JUMPI DUP3 SWAP1 SUB PUSH1 0x1F AND DUP3 ADD SWAP2 JUMPDEST POP POP POP POP POP DUP2 MSTORE PUSH1 0x20 ADD PUSH1 0x1 DUP3 ADD DUP1 SLOAD PUSH2 0x2C3B SWAP1 PUSH2 0x58EB JUMP JUMPDEST DUP1 PUSH1 0x1F ADD PUSH1 0x20 DUP1 SWAP2 DIV MUL PUSH1 0x20 ADD PUSH1 0x40 MLOAD SWAP1 DUP2 ADD PUSH1 0x40 MSTORE DUP1 SWAP3 SWAP2 SWAP1 DUP2 DUP2 MSTORE PUSH1 0x20 ADD DUP3 DUP1 SLOAD PUSH2 0x2C67 SWAP1 PUSH2 0x58EB JUMP JUMPDEST DUP1 ISZERO PUSH2 0x2CB4 JUMPI DUP1 PUSH1 0x1F LT PUSH2 0x2C89 JUMPI PUSH2 0x100 DUP1 DUP4 SLOAD DIV MUL DUP4 MSTORE SWAP2 PUSH1 0x20 ADD SWAP2 PUSH2 0x2CB4 JUMP JUMPDEST DUP3 ADD SWAP2 SWAP1 PUSH1 0x0 MSTORE PUSH1 0x20 PUSH1 0x0 KECCAK256 SWAP1 JUMPDEST DUP2 SLOAD DUP2 MSTORE SWAP1 PUSH1 0x1 ADD SWAP1 PUSH1 0x20 ADD DUP1 DUP4 GT PUSH2 0x2C97 JUMPI DUP3 SWAP1 SUB PUSH1 0x1F AND DUP3 ADD SWAP2 JUMPDEST POP POP POP POP POP DUP2 MSTORE PUSH1 0x20 ADD PUSH1 0x2 DUP3 ADD DUP1 SLOAD PUSH2 0x2CCD SWAP1 PUSH2 0x58EB JUMP JUMPDEST DUP1 PUSH1 0x1F ADD PUSH1 0x20 DUP1 SWAP2 DIV MUL PUSH1 0x20 ADD PUSH1 0x40 MLOAD SWAP1 DUP2 ADD PUSH1 0x40 MSTORE DUP1 SWAP3 SWAP2 SWAP1 DUP2 DUP2 MSTORE PUSH1 0x20 ADD DUP3 DUP1 SLOAD PUSH2 0x2CF9 SWAP1 PUSH2 0x58EB JUMP JUMPDEST DUP1 ISZERO PUSH2 0x2D46 JUMPI DUP1 PUSH1 0x1F LT PUSH2 0x2D1B JUMPI PUSH2 0x100 DUP1 DUP4 SLOAD DIV MUL DUP4 MSTORE SWAP2 PUSH1 0x20 ADD SWAP2 PUSH2 0x2D46 JUMP JUMPDEST DUP3 ADD SWAP2 SWAP1 PUSH1 0x0 MSTORE PUSH1 0x20 PUSH1 0x0 KECCAK256 SWAP1 JUMPDEST DUP2 SLOAD DUP2 MSTORE SWAP1 PUSH1 0x1 ADD SWAP1 PUSH1 0x20 ADD DUP1 DUP4 GT PUSH2 0x2D29 JUMPI DUP3 SWAP1 SUB PUSH1 0x1F AND DUP3 ADD SWAP2 JUMPDEST POP POP POP POP POP DUP2 MSTORE PUSH1 0x20 ADD PUSH1 0x3 DUP3 ADD DUP1 SLOAD PUSH2 0x2D5F SWAP1 PUSH2 0x58EB JUMP JUMPDEST DUP1 PUSH1 0x1F ADD PUSH1 0x20 DUP1 SWAP2 DIV MUL PUSH1 0x20 ADD PUSH1 0x40 MLOAD SWAP1 DUP2 ADD PUSH1 0x40 MSTORE DUP1 SWAP3 SWAP2 SWAP1 DUP2 DUP2 MSTORE PUSH1 0x20 ADD DUP3 DUP1 SLOAD PUSH2 0x2D8B SWAP1 PUSH2 0x58EB JUMP JUMPDEST DUP1 ISZERO PUSH2 0x2DD8 JUMPI DUP1 PUSH1 0x1F LT PUSH2 0x2DAD JUMPI PUSH2 0x100 DUP1 DUP4 SLOAD DIV MUL DUP4 MSTORE SWAP2 PUSH1 0x20 ADD SWAP2 PUSH2 0x2DD8 JUMP JUMPDEST DUP3 ADD SWAP2 SWAP1 PUSH1 0x0 MSTORE PUSH1 0x20 PUSH1 0x0 KECCAK256 SWAP1 JUMPDEST DUP2 SLOAD DUP2 MSTORE SWAP1 PUSH1 0x1 ADD SWAP1 PUSH1 0x20 ADD DUP1 DUP4 GT PUSH2 0x2DBB JUMPI DUP3 SWAP1 SUB PUSH1 0x1F AND DUP3 ADD SWAP2 JUMPDEST POP POP POP POP POP DUP2 MSTORE PUSH1 0x20 ADD PUSH1 0x4 DUP3 ADD DUP1 SLOAD PUSH2 0x2DF1 SWAP1 PUSH2 0x58EB JUMP JUMPDEST DUP1 PUSH1 0x1F ADD PUSH1 0x20 DUP1 SWAP2 DIV MUL PUSH1 0x20 ADD PUSH1 0x40 MLOAD SWAP1 DUP2 ADD PUSH1 0x40 MSTORE DUP1 SWAP3 SWAP2 SWAP1 DUP2 DUP2 MSTORE PUSH1 0x20 ADD DUP3 DUP1 SLOAD PUSH2 0x2E1D SWAP1 PUSH2 0x58EB JUMP JUMPDEST DUP1 ISZERO PUSH2 0x2E6A JUMPI DUP1 PUSH1 0x1F LT PUSH2 0x2E3F JUMPI PUSH2 0x100 DUP1 DUP4 SLOAD DIV MUL DUP4 MSTORE SWAP2 PUSH1 0x20 ADD SWAP2 PUSH2 0x2E6A JUMP JUMPDEST DUP3 ADD SWAP2 SWAP1 PUSH1 0x0 MSTORE PUSH1 0x20 PUSH1 0x0 KECCAK256 SWAP1 JUMPDEST DUP2 SLOAD DUP2 MSTORE SWAP1 PUSH1 0x1 ADD SWAP1 PUSH1 0x20 ADD DUP1 DUP4 GT PUSH2 0x2E4D JUMPI DUP3 SWAP1 SUB PUSH1 0x1F AND DUP3 ADD SWAP2 JUMPDEST POP POP POP POP POP DUP2 MSTORE POP POP SWAP1 POP DUP12 JUMP JUMPDEST PUSH1 0x0 DUP1 SLOAD SWAP1 PUSH2 0x100 EXP SWAP1 DIV PUSH20 0xFFFFFFFFFFFFFFFFFFFFFFFFFFFFFFFFFFFFFFFF AND PUSH20 0xFFFFFFFFFFFFFFFFFFFFFFFFFFFFFFFFFFFFFFFF AND CALLER PUSH20 0xFFFFFFFFFFFFFFFFFFFFFFFFFFFFFFFFFFFFFFFF AND EQ PUSH2 0x2F06 JUMPI PUSH1 0x40 MLOAD PUSH32 0x8C379A000000000000000000000000000000000000000000000000000000000 DUP2 MSTORE PUSH1 0x4 ADD PUSH2 0x2EFD SWAP1 PUSH2 0x589C JUMP JUMPDEST PUSH1 0x40 MLOAD DUP1 SWAP2 SUB SWAP1 REVERT JUMPDEST PUSH1 0x0 PUSH1 0x1 DUP3 PUSH1 0x40 MLOAD PUSH2 0x2F18 SWAP2 SWAP1 PUSH2 0x5993 JUMP JUMPDEST SWAP1 DUP2 MSTORE PUSH1 0x20 ADD PUSH1 0x40 MLOAD DUP1 SWAP2 SUB SWAP1 KECCAK256 PUSH1 0x0 DUP1 DUP3 ADD PUSH1 0x0 PUSH2 0x2F37 SWAP2 SWAP1 PUSH2 0x4A8B JUMP JUMPDEST PUSH1 0x1 DUP3 ADD PUSH1 0x0 PUSH2 0x2F47 SWAP2 SWAP1 PUSH2 0x4A8B JUMP JUMPDEST PUSH1 0x2 DUP3 ADD PUSH1 0x0 PUSH2 0x2F57 SWAP2 SWAP1 PUSH2 0x4A8B JUMP JUMPDEST PUSH1 0x3 DUP3 ADD PUSH1 0x0 PUSH2 0x2F67 SWAP2 SWAP1 PUSH2 0x4A8B JUMP JUMPDEST PUSH1 0x4 DUP3 ADD PUSH1 0x0 PUSH2 0x2F77 SWAP2 SWAP1 PUSH2 0x4A8B JUMP JUMPDEST PUSH1 0x5 DUP3 ADD PUSH1 0x0 PUSH2 0x2F87 SWAP2 SWAP1 PUSH2 0x4A8B JUMP JUMPDEST PUSH1 0x6 DUP3 ADD PUSH1 0x0 PUSH2 0x2F97 SWAP2 SWAP1 PUSH2 0x4A8B JUMP JUMPDEST PUSH1 0x7 DUP3 ADD PUSH1 0x0 PUSH2 0x2FA7 SWAP2 SWAP1 PUSH2 0x4A8B JUMP JUMPDEST PUSH1 0x8 DUP3 ADD PUSH1 0x0 PUSH2 0x2FB7 SWAP2 SWAP1 PUSH2 0x4A8B JUMP JUMPDEST PUSH1 0x9 DUP3 ADD PUSH1 0x0 PUSH2 0x2FC7 SWAP2 SWAP1 PUSH2 0x4A8B JUMP JUMPDEST PUSH1 0xA DUP3 ADD PUSH1 0x0 DUP1 DUP3 ADD PUSH1 0x0 PUSH2 0x2FDC SWAP2 SWAP1 PUSH2 0x4A8B JUMP JUMPDEST PUSH1 0x1 DUP3 ADD PUSH1 0x0 PUSH2 0x2FEC SWAP2 SWAP1 PUSH2 0x4A8B JUMP JUMPDEST PUSH1 0x2 DUP3 ADD PUSH1 0x0 PUSH2 0x2FFC SWAP2 SWAP1 PUSH2 0x4A8B JUMP JUMPDEST PUSH1 0x3 DUP3 ADD PUSH1 0x0 PUSH2 0x300C SWAP2 SWAP1 PUSH2 0x4A8B JUMP JUMPDEST PUSH1 0x4 DUP3 ADD PUSH1 0x0 PUSH2 0x301C SWAP2 SWAP1 PUSH2 0x4A8B JUMP JUMPDEST POP POP POP POP PUSH1 0x0 JUMPDEST PUSH1 0x4 DUP1 SLOAD SWAP1 POP DUP2 LT ISZERO PUSH2 0x31FE JUMPI DUP3 PUSH1 0x40 MLOAD PUSH1 0x20 ADD PUSH2 0x3041 SWAP2 SWAP1 PUSH2 0x5993 JUMP JUMPDEST PUSH1 0x40 MLOAD PUSH1 0x20 DUP2 DUP4 SUB SUB DUP2 MSTORE SWAP1 PUSH1 0x40 MSTORE DUP1 MLOAD SWAP1 PUSH1 0x20 ADD KECCAK256 PUSH1 0x4 DUP3 DUP2 SLOAD DUP2 LT PUSH2 0x306B JUMPI PUSH2 0x306A PUSH2 0x5B79 JUMP JUMPDEST JUMPDEST SWAP1 PUSH1 0x0 MSTORE PUSH1 0x20 PUSH1 0x0 KECCAK256 ADD PUSH1 0x40 MLOAD PUSH1 0x20 ADD PUSH2 0x3085 SWAP2 SWAP1 PUSH2 0x5A3E JUMP JUMPDEST PUSH1 0x40 MLOAD PUSH1 0x20 DUP2 DUP4 SUB SUB DUP2 MSTORE SWAP1 PUSH1 0x40 MSTORE DUP1 MLOAD SWAP1 PUSH1 0x20 ADD KECCAK256 SUB PUSH2 0x311C JUMPI PUSH1 0x1 PUSH1 0x4 DUP1 SLOAD SWAP1 POP PUSH2 0x30B2 SWAP2 SWAP1 PUSH2 0x5BD7 JUMP JUMPDEST DUP2 SUB PUSH2 0x30ED JUMPI PUSH1 0x4 DUP1 SLOAD DUP1 PUSH2 0x30CA JUMPI PUSH2 0x30C9 PUSH2 0x5C0B JUMP JUMPDEST JUMPDEST PUSH1 0x1 SWAP1 SUB DUP2 DUP2 SWAP1 PUSH1 0x0 MSTORE PUSH1 0x20 PUSH1 0x0 KECCAK256 ADD PUSH1 0x0 PUSH2 0x30E6 SWAP2 SWAP1 PUSH2 0x4A8B JUMP JUMPDEST SWAP1 SSTORE PUSH2 0x31FE JUMP JUMPDEST PUSH1 0x4 DUP2 DUP2 SLOAD DUP2 LT PUSH2 0x3101 JUMPI PUSH2 0x3100 PUSH2 0x5B79 JUMP JUMPDEST JUMPDEST SWAP1 PUSH1 0x0 MSTORE PUSH1 0x20 PUSH1 0x0 KECCAK256 ADD PUSH1 0x0 PUSH2 0x3117 SWAP2 SWAP1 PUSH2 0x4A8B JUMP JUMPDEST PUSH1 0x1 SWAP2 POP JUMPDEST PUSH1 0x1 DUP3 EQ DUP1 ISZERO PUSH2 0x313C JUMPI POP PUSH1 0x1 PUSH1 0x4 DUP1 SLOAD SWAP1 POP PUSH2 0x3139 SWAP2 SWAP1 PUSH2 0x5BD7 JUMP JUMPDEST DUP2 LT JUMPDEST ISZERO PUSH2 0x31A2 JUMPI PUSH1 0x4 PUSH1 0x1 DUP3 PUSH2 0x3150 SWAP2 SWAP1 PUSH2 0x5C3A JUMP JUMPDEST DUP2 SLOAD DUP2 LT PUSH2 0x3161 JUMPI PUSH2 0x3160 PUSH2 0x5B79 JUMP JUMPDEST JUMPDEST SWAP1 PUSH1 0x0 MSTORE PUSH1 0x20 PUSH1 0x0 KECCAK256 ADD PUSH1 0x4 DUP3 DUP2 SLOAD DUP2 LT PUSH2 0x317F JUMPI PUSH2 0x317E PUSH2 0x5B79 JUMP JUMPDEST JUMPDEST SWAP1 PUSH1 0x0 MSTORE PUSH1 0x20 PUSH1 0x0 KECCAK256 ADD SWAP1 DUP1 SLOAD PUSH2 0x3195 SWAP1 PUSH2 0x58EB JUMP JUMPDEST PUSH2 0x31A0 SWAP3 SWAP2 SWAP1 PUSH2 0x4ACB JUMP JUMPDEST POP JUMPDEST PUSH1 0x1 PUSH1 0x4 DUP1 SLOAD SWAP1 POP PUSH2 0x31B4 SWAP2 SWAP1 PUSH2 0x5BD7 JUMP JUMPDEST DUP2 SUB PUSH2 0x31EB JUMPI PUSH1 0x4 DUP1 SLOAD DUP1 PUSH2 0x31CC JUMPI PUSH2 0x31CB PUSH2 0x5C0B JUMP JUMPDEST JUMPDEST PUSH1 0x1 SWAP1 SUB DUP2 DUP2 SWAP1 PUSH1 0x0 MSTORE PUSH1 0x20 PUSH1 0x0 KECCAK256 ADD PUSH1 0x0 PUSH2 0x31E8 SWAP2 SWAP1 PUSH2 0x4A8B JUMP JUMPDEST SWAP1 SSTORE JUMPDEST DUP1 DUP1 PUSH2 0x31F6 SWAP1 PUSH2 0x5C90 JUMP JUMPDEST SWAP2 POP POP PUSH2 0x3023 JUMP JUMPDEST POP PUSH1 0x0 SWAP1 POP POP POP JUMP JUMPDEST PUSH1 0x0 DUP1 SLOAD SWAP1 PUSH2 0x100 EXP SWAP1 DIV PUSH20 0xFFFFFFFFFFFFFFFFFFFFFFFFFFFFFFFFFFFFFFFF AND PUSH20 0xFFFFFFFFFFFFFFFFFFFFFFFFFFFFFFFFFFFFFFFF AND CALLER PUSH20 0xFFFFFFFFFFFFFFFFFFFFFFFFFFFFFFFFFFFFFFFF AND EQ PUSH2 0x3295 JUMPI PUSH1 0x40 MLOAD PUSH32 0x8C379A000000000000000000000000000000000000000000000000000000000 DUP2 MSTORE PUSH1 0x4 ADD PUSH2 0x328C SWAP1 PUSH2 0x589C JUMP JUMPDEST PUSH1 0x40 MLOAD DUP1 SWAP2 SUB SWAP1 REVERT JUMPDEST PUSH1 0x0 PUSH1 0xA DUP3 PUSH1 0x40 MLOAD PUSH2 0x32A7 SWAP2 SWAP1 PUSH2 0x5993 JUMP JUMPDEST SWAP1 DUP2 MSTORE PUSH1 0x20 ADD PUSH1 0x40 MLOAD DUP1 SWAP2 SUB SWAP1 KECCAK256 PUSH1 0x0 DUP1 DUP3 ADD PUSH1 0x0 PUSH2 0x32C6 SWAP2 SWAP1 PUSH2 0x4A8B JUMP JUMPDEST PUSH1 0x1 DUP3 ADD PUSH1 0x0 PUSH2 0x32D6 SWAP2 SWAP1 PUSH2 0x4A8B JUMP JUMPDEST PUSH1 0x2 DUP3 ADD PUSH1 0x0 PUSH2 0x32E6 SWAP2 SWAP1 PUSH2 0x4A8B JUMP JUMPDEST PUSH1 0x3 DUP3 ADD PUSH1 0x0 PUSH2 0x32F6 SWAP2 SWAP1 PUSH2 0x4A8B JUMP JUMPDEST POP POP PUSH1 0x0 JUMPDEST PUSH1 0x5 DUP1 SLOAD SWAP1 POP DUP2 LT ISZERO PUSH2 0x34D6 JUMPI DUP3 PUSH1 0x40 MLOAD PUSH1 0x20 ADD PUSH2 0x3319 SWAP2 SWAP1 PUSH2 0x5993 JUMP JUMPDEST PUSH1 0x40 MLOAD PUSH1 0x20 DUP2 DUP4 SUB SUB DUP2 MSTORE SWAP1 PUSH1 0x40 MSTORE DUP1 MLOAD SWAP1 PUSH1 0x20 ADD KECCAK256 PUSH1 0x5 DUP3 DUP2 SLOAD DUP2 LT PUSH2 0x3343 JUMPI PUSH2 0x3342 PUSH2 0x5B79 JUMP JUMPDEST JUMPDEST SWAP1 PUSH1 0x0 MSTORE PUSH1 0x20 PUSH1 0x0 KECCAK256 ADD PUSH1 0x40 MLOAD PUSH1 0x20 ADD PUSH2 0x335D SWAP2 SWAP1 PUSH2 0x5A3E JUMP JUMPDEST PUSH1 0x40 MLOAD PUSH1 0x20 DUP2 DUP4 SUB SUB DUP2 MSTORE SWAP1 PUSH1 0x40 MSTORE DUP1 MLOAD SWAP1 PUSH1 0x20 ADD KECCAK256 SUB PUSH2 0x33F4 JUMPI PUSH1 0x1 PUSH1 0x5 DUP1 SLOAD SWAP1 POP PUSH2 0x338A SWAP2 SWAP1 PUSH2 0x5BD7 JUMP JUMPDEST DUP2 SUB PUSH2 0x33C5 JUMPI PUSH1 0x5 DUP1 SLOAD DUP1 PUSH2 0x33A2 JUMPI PUSH2 0x33A1 PUSH2 0x5C0B JUMP JUMPDEST JUMPDEST PUSH1 0x1 SWAP1 SUB DUP2 DUP2 SWAP1 PUSH1 0x0 MSTORE PUSH1 0x20 PUSH1 0x0 KECCAK256 ADD PUSH1 0x0 PUSH2 0x33BE SWAP2 SWAP1 PUSH2 0x4A8B JUMP JUMPDEST SWAP1 SSTORE PUSH2 0x34D6 JUMP JUMPDEST PUSH1 0x5 DUP2 DUP2 SLOAD DUP2 LT PUSH2 0x33D9 JUMPI PUSH2 0x33D8 PUSH2 0x5B79 JUMP JUMPDEST JUMPDEST SWAP1 PUSH1 0x0 MSTORE PUSH1 0x20 PUSH1 0x0 KECCAK256 ADD PUSH1 0x0 PUSH2 0x33EF SWAP2 SWAP1 PUSH2 0x4A8B JUMP JUMPDEST PUSH1 0x1 SWAP2 POP JUMPDEST PUSH1 0x1 DUP3 EQ DUP1 ISZERO PUSH2 0x3414 JUMPI POP PUSH1 0x1 PUSH1 0x5 DUP1 SLOAD SWAP1 POP PUSH2 0x3411 SWAP2 SWAP1 PUSH2 0x5BD7 JUMP JUMPDEST DUP2 LT JUMPDEST ISZERO PUSH2 0x347A JUMPI PUSH1 0x5 PUSH1 0x1 DUP3 PUSH2 0x3428 SWAP2 SWAP1 PUSH2 0x5C3A JUMP JUMPDEST DUP2 SLOAD DUP2 LT PUSH2 0x3439 JUMPI PUSH2 0x3438 PUSH2 0x5B79 JUMP JUMPDEST JUMPDEST SWAP1 PUSH1 0x0 MSTORE PUSH1 0x20 PUSH1 0x0 KECCAK256 ADD PUSH1 0x5 DUP3 DUP2 SLOAD DUP2 LT PUSH2 0x3457 JUMPI PUSH2 0x3456 PUSH2 0x5B79 JUMP JUMPDEST JUMPDEST SWAP1 PUSH1 0x0 MSTORE PUSH1 0x20 PUSH1 0x0 KECCAK256 ADD SWAP1 DUP1 SLOAD PUSH2 0x346D SWAP1 PUSH2 0x58EB JUMP JUMPDEST PUSH2 0x3478 SWAP3 SWAP2 SWAP1 PUSH2 0x4ACB JUMP JUMPDEST POP JUMPDEST PUSH1 0x1 PUSH1 0x5 DUP1 SLOAD SWAP1 POP PUSH2 0x348C SWAP2 SWAP1 PUSH2 0x5BD7 JUMP JUMPDEST DUP2 SUB PUSH2 0x34C3 JUMPI PUSH1 0x5 DUP1 SLOAD DUP1 PUSH2 0x34A4 JUMPI PUSH2 0x34A3 PUSH2 0x5C0B JUMP JUMPDEST JUMPDEST PUSH1 0x1 SWAP1 SUB DUP2 DUP2 SWAP1 PUSH1 0x0 MSTORE PUSH1 0x20 PUSH1 0x0 KECCAK256 ADD PUSH1 0x0 PUSH2 0x34C0 SWAP2 SWAP1 PUSH2 0x4A8B JUMP JUMPDEST SWAP1 SSTORE JUMPDEST DUP1 DUP1 PUSH2 0x34CE SWAP1 PUSH2 0x5C90 JUMP JUMPDEST SWAP2 POP POP PUSH2 0x32FB JUMP JUMPDEST POP PUSH1 0x0 SWAP1 POP POP POP JUMP JUMPDEST PUSH1 0x0 PUSH1 0xC SLOAD SWAP1 POP SWAP1 JUMP JUMPDEST PUSH1 0x0 DUP1 SLOAD SWAP1 PUSH2 0x100 EXP SWAP1 DIV PUSH20 0xFFFFFFFFFFFFFFFFFFFFFFFFFFFFFFFFFFFFFFFF AND PUSH20 0xFFFFFFFFFFFFFFFFFFFFFFFFFFFFFFFFFFFFFFFF AND CALLER PUSH20 0xFFFFFFFFFFFFFFFFFFFFFFFFFFFFFFFFFFFFFFFF AND EQ PUSH2 0x3577 JUMPI PUSH1 0x40 MLOAD PUSH32 0x8C379A000000000000000000000000000000000000000000000000000000000 DUP2 MSTORE PUSH1 0x4 ADD PUSH2 0x356E SWAP1 PUSH2 0x589C JUMP JUMPDEST PUSH1 0x40 MLOAD DUP1 SWAP2 SUB SWAP1 REVERT JUMPDEST PUSH1 0x40 MLOAD PUSH1 0x20 ADD PUSH2 0x3586 SWAP1 PUSH2 0x594D JUMP JUMPDEST PUSH1 0x40 MLOAD PUSH1 0x20 DUP2 DUP4 SUB SUB DUP2 MSTORE SWAP1 PUSH1 0x40 MSTORE DUP1 MLOAD SWAP1 PUSH1 0x20 ADD KECCAK256 PUSH1 0x9 DUP4 PUSH1 0x40 MLOAD PUSH2 0x35AC SWAP2 SWAP1 PUSH2 0x5993 JUMP JUMPDEST SWAP1 DUP2 MSTORE PUSH1 0x20 ADD PUSH1 0x40 MLOAD DUP1 SWAP2 SUB SWAP1 KECCAK256 PUSH1 0x0 ADD PUSH1 0x40 MLOAD PUSH1 0x20 ADD PUSH2 0x35CD SWAP2 SWAP1 PUSH2 0x5A3E JUMP JUMPDEST PUSH1 0x40 MLOAD PUSH1 0x20 DUP2 DUP4 SUB SUB DUP2 MSTORE SWAP1 PUSH1 0x40 MSTORE DUP1 MLOAD SWAP1 PUSH1 0x20 ADD KECCAK256 EQ PUSH2 0x3623 JUMPI PUSH1 0x40 MLOAD PUSH32 0x8C379A000000000000000000000000000000000000000000000000000000000 DUP2 MSTORE PUSH1 0x4 ADD PUSH2 0x361A SWAP1 PUSH2 0x5D24 JUMP JUMPDEST PUSH1 0x40 MLOAD DUP1 SWAP2 SUB SWAP1 REVERT JUMPDEST DUP2 PUSH1 0x9 DUP4 PUSH1 0x40 MLOAD PUSH2 0x3634 SWAP2 SWAP1 PUSH2 0x5993 JUMP JUMPDEST SWAP1 DUP2 MSTORE PUSH1 0x20 ADD PUSH1 0x40 MLOAD DUP1 SWAP2 SUB SWAP1 KECCAK256 PUSH1 0x0 ADD SWAP1 DUP1 MLOAD SWAP1 PUSH1 0x20 ADD SWAP1 PUSH2 0x3658 SWAP3 SWAP2 SWAP1 PUSH2 0x4A05 JUMP JUMPDEST POP DUP1 PUSH1 0x9 DUP4 PUSH1 0x40 MLOAD PUSH2 0x366A SWAP2 SWAP1 PUSH2 0x5993 JUMP JUMPDEST SWAP1 DUP2 MSTORE PUSH1 0x20 ADD PUSH1 0x40 MLOAD DUP1 SWAP2 SUB SWAP1 KECCAK256 PUSH1 0x1 ADD SWAP1 DUP1 MLOAD SWAP1 PUSH1 0x20 ADD SWAP1 PUSH2 0x368E SWAP3 SWAP2 SWAP1 PUSH2 0x4A05 JUMP JUMPDEST POP POP POP JUMP JUMPDEST PUSH1 0x0 DUP1 SLOAD SWAP1 PUSH2 0x100 EXP SWAP1 DIV PUSH20 0xFFFFFFFFFFFFFFFFFFFFFFFFFFFFFFFFFFFFFFFF AND PUSH20 0xFFFFFFFFFFFFFFFFFFFFFFFFFFFFFFFFFFFFFFFF AND CALLER PUSH20 0xFFFFFFFFFFFFFFFFFFFFFFFFFFFFFFFFFFFFFFFF AND EQ PUSH2 0x3721 JUMPI PUSH1 0x40 MLOAD PUSH32 0x8C379A000000000000000000000000000000000000000000000000000000000 DUP2 MSTORE PUSH1 0x4 ADD PUSH2 0x3718 SWAP1 PUSH2 0x589C JUMP JUMPDEST PUSH1 0x40 MLOAD DUP1 SWAP2 SUB SWAP1 REVERT JUMPDEST PUSH1 0x5 DUP5 SWAP1 DUP1 PUSH1 0x1 DUP2 SLOAD ADD DUP1 DUP3 SSTORE DUP1 SWAP2 POP POP PUSH1 0x1 SWAP1 SUB SWAP1 PUSH1 0x0 MSTORE PUSH1 0x20 PUSH1 0x0 KECCAK256 ADD PUSH1 0x0 SWAP1 SWAP2 SWAP1 SWAP2 SWAP1 SWAP2 POP SWAP1 DUP1 MLOAD SWAP1 PUSH1 0x20 ADD SWAP1 PUSH2 0x375C SWAP3 SWAP2 SWAP1 PUSH2 0x4A05 JUMP JUMPDEST POP DUP4 PUSH1 0xA DUP6 PUSH1 0x40 MLOAD PUSH2 0x376E SWAP2 SWAP1 PUSH2 0x5993 JUMP JUMPDEST SWAP1 DUP2 MSTORE PUSH1 0x20 ADD PUSH1 0x40 MLOAD DUP1 SWAP2 SUB SWAP1 KECCAK256 PUSH1 0x0 ADD SWAP1 DUP1 MLOAD SWAP1 PUSH1 0x20 ADD SWAP1 PUSH2 0x3792 SWAP3 SWAP2 SWAP1 PUSH2 0x4A05 JUMP JUMPDEST POP DUP3 PUSH1 0xA DUP6 PUSH1 0x40 MLOAD PUSH2 0x37A4 SWAP2 SWAP1 PUSH2 0x5993 JUMP JUMPDEST SWAP1 DUP2 MSTORE PUSH1 0x20 ADD PUSH1 0x40 MLOAD DUP1 SWAP2 SUB SWAP1 KECCAK256 PUSH1 0x1 ADD SWAP1 DUP1 MLOAD SWAP1 PUSH1 0x20 ADD SWAP1 PUSH2 0x37C8 SWAP3 SWAP2 SWAP1 PUSH2 0x4A05 JUMP JUMPDEST POP DUP2 PUSH1 0xA DUP6 PUSH1 0x40 MLOAD PUSH2 0x37DA SWAP2 SWAP1 PUSH2 0x5993 JUMP JUMPDEST SWAP1 DUP2 MSTORE PUSH1 0x20 ADD PUSH1 0x40 MLOAD DUP1 SWAP2 SUB SWAP1 KECCAK256 PUSH1 0x2 ADD SWAP1 DUP1 MLOAD SWAP1 PUSH1 0x20 ADD SWAP1 PUSH2 0x37FE SWAP3 SWAP2 SWAP1 PUSH2 0x4A05 JUMP JUMPDEST POP DUP1 PUSH1 0xA DUP6 PUSH1 0x40 MLOAD PUSH2 0x3810 SWAP2 SWAP1 PUSH2 0x5993 JUMP JUMPDEST SWAP1 DUP2 MSTORE PUSH1 0x20 ADD PUSH1 0x40 MLOAD DUP1 SWAP2 SUB SWAP1 KECCAK256 PUSH1 0x3 ADD SWAP1 DUP1 MLOAD SWAP1 PUSH1 0x20 ADD SWAP1 PUSH2 0x3834 SWAP3 SWAP2 SWAP1 PUSH2 0x4A05 JUMP JUMPDEST POP POP POP POP POP JUMP JUMPDEST PUSH1 0x9 DUP2 DUP1 MLOAD PUSH1 0x20 DUP2 ADD DUP3 ADD DUP1 MLOAD DUP5 DUP3 MSTORE PUSH1 0x20 DUP4 ADD PUSH1 0x20 DUP6 ADD KECCAK256 DUP2 DUP4 MSTORE DUP1 SWAP6 POP POP POP POP POP POP PUSH1 0x0 SWAP2 POP SWAP1 POP DUP1 PUSH1 0x0 ADD DUP1 SLOAD PUSH2 0x3874 SWAP1 PUSH2 0x58EB JUMP JUMPDEST DUP1 PUSH1 0x1F ADD PUSH1 0x20 DUP1 SWAP2 DIV MUL PUSH1 0x20 ADD PUSH1 0x40 MLOAD SWAP1 DUP2 ADD PUSH1 0x40 MSTORE DUP1 SWAP3 SWAP2 SWAP1 DUP2 DUP2 MSTORE PUSH1 0x20 ADD DUP3 DUP1 SLOAD PUSH2 0x38A0 SWAP1 PUSH2 0x58EB JUMP JUMPDEST DUP1 ISZERO PUSH2 0x38ED JUMPI DUP1 PUSH1 0x1F LT PUSH2 0x38C2 JUMPI PUSH2 0x100 DUP1 DUP4 SLOAD DIV MUL DUP4 MSTORE SWAP2 PUSH1 0x20 ADD SWAP2 PUSH2 0x38ED JUMP JUMPDEST DUP3 ADD SWAP2 SWAP1 PUSH1 0x0 MSTORE PUSH1 0x20 PUSH1 0x0 KECCAK256 SWAP1 JUMPDEST DUP2 SLOAD DUP2 MSTORE SWAP1 PUSH1 0x1 ADD SWAP1 PUSH1 0x20 ADD DUP1 DUP4 GT PUSH2 0x38D0 JUMPI DUP3 SWAP1 SUB PUSH1 0x1F AND DUP3 ADD SWAP2 JUMPDEST POP POP POP POP POP SWAP1 DUP1 PUSH1 0x1 ADD DUP1 SLOAD PUSH2 0x3902 SWAP1 PUSH2 0x58EB JUMP JUMPDEST DUP1 PUSH1 0x1F ADD PUSH1 0x20 DUP1 SWAP2 DIV MUL PUSH1 0x20 ADD PUSH1 0x40 MLOAD SWAP1 DUP2 ADD PUSH1 0x40 MSTORE DUP1 SWAP3 SWAP2 SWAP1 DUP2 DUP2 MSTORE PUSH1 0x20 ADD DUP3 DUP1 SLOAD PUSH2 0x392E SWAP1 PUSH2 0x58EB JUMP JUMPDEST DUP1 ISZERO PUSH2 0x397B JUMPI DUP1 PUSH1 0x1F LT PUSH2 0x3950 JUMPI PUSH2 0x100 DUP1 DUP4 SLOAD DIV MUL DUP4 MSTORE SWAP2 PUSH1 0x20 ADD SWAP2 PUSH2 0x397B JUMP JUMPDEST DUP3 ADD SWAP2 SWAP1 PUSH1 0x0 MSTORE PUSH1 0x20 PUSH1 0x0 KECCAK256 SWAP1 JUMPDEST DUP2 SLOAD DUP2 MSTORE SWAP1 PUSH1 0x1 ADD SWAP1 PUSH1 0x20 ADD DUP1 DUP4 GT PUSH2 0x395E JUMPI DUP3 SWAP1 SUB PUSH1 0x1F AND DUP3 ADD SWAP2 JUMPDEST POP POP POP POP POP SWAP1 POP DUP3 JUMP JUMPDEST PUSH1 0x2 DUP2 DUP1 MLOAD PUSH1 0x20 DUP2 ADD DUP3 ADD DUP1 MLOAD DUP5 DUP3 MSTORE PUSH1 0x20 DUP4 ADD PUSH1 0x20 DUP6 ADD KECCAK256 DUP2 DUP4 MSTORE DUP1 SWAP6 POP POP POP POP POP POP PUSH1 0x0 SWAP2 POP SWAP1 POP DUP1 PUSH1 0x0 ADD DUP1 SLOAD PUSH2 0x39BE SWAP1 PUSH2 0x58EB JUMP JUMPDEST DUP1 PUSH1 0x1F ADD PUSH1 0x20 DUP1 SWAP2 DIV MUL PUSH1 0x20 ADD PUSH1 0x40 MLOAD SWAP1 DUP2 ADD PUSH1 0x40 MSTORE DUP1 SWAP3 SWAP2 SWAP1 DUP2 DUP2 MSTORE PUSH1 0x20 ADD DUP3 DUP1 SLOAD PUSH2 0x39EA SWAP1 PUSH2 0x58EB JUMP JUMPDEST DUP1 ISZERO PUSH2 0x3A37 JUMPI DUP1 PUSH1 0x1F LT PUSH2 0x3A0C JUMPI PUSH2 0x100 DUP1 DUP4 SLOAD DIV MUL DUP4 MSTORE SWAP2 PUSH1 0x20 ADD SWAP2 PUSH2 0x3A37 JUMP JUMPDEST DUP3 ADD SWAP2 SWAP1 PUSH1 0x0 MSTORE PUSH1 0x20 PUSH1 0x0 KECCAK256 SWAP1 JUMPDEST DUP2 SLOAD DUP2 MSTORE SWAP1 PUSH1 0x1 ADD SWAP1 PUSH1 0x20 ADD DUP1 DUP4 GT PUSH2 0x3A1A JUMPI DUP3 SWAP1 SUB PUSH1 0x1F AND DUP3 ADD SWAP2 JUMPDEST POP POP POP POP POP SWAP1 DUP1 PUSH1 0x1 ADD DUP1 SLOAD PUSH2 0x3A4C SWAP1 PUSH2 0x58EB JUMP JUMPDEST DUP1 PUSH1 0x1F ADD PUSH1 0x20 DUP1 SWAP2 DIV MUL PUSH1 0x20 ADD PUSH1 0x40 MLOAD SWAP1 DUP2 ADD PUSH1 0x40 MSTORE DUP1 SWAP3 SWAP2 SWAP1 DUP2 DUP2 MSTORE PUSH1 0x20 ADD DUP3 DUP1 SLOAD PUSH2 0x3A78 SWAP1 PUSH2 0x58EB JUMP JUMPDEST DUP1 ISZERO PUSH2 0x3AC5 JUMPI DUP1 PUSH1 0x1F LT PUSH2 0x3A9A JUMPI PUSH2 0x100 DUP1 DUP4 SLOAD DIV MUL DUP4 MSTORE SWAP2 PUSH1 0x20 ADD SWAP2 PUSH2 0x3AC5 JUMP JUMPDEST DUP3 ADD SWAP2 SWAP1 PUSH1 0x0 MSTORE PUSH1 0x20 PUSH1 0x0 KECCAK256 SWAP1 JUMPDEST DUP2 SLOAD DUP2 MSTORE SWAP1 PUSH1 0x1 ADD SWAP1 PUSH1 0x20 ADD DUP1 DUP4 GT PUSH2 0x3AA8 JUMPI DUP3 SWAP1 SUB PUSH1 0x1F AND DUP3 ADD SWAP2 JUMPDEST POP POP POP POP POP SWAP1 DUP1 PUSH1 0x2 ADD DUP1 SLOAD PUSH2 0x3ADA SWAP1 PUSH2 0x58EB JUMP JUMPDEST DUP1 PUSH1 0x1F ADD PUSH1 0x20 DUP1 SWAP2 DIV MUL PUSH1 0x20 ADD PUSH1 0x40 MLOAD SWAP1 DUP2 ADD PUSH1 0x40 MSTORE DUP1 SWAP3 SWAP2 SWAP1 DUP2 DUP2 MSTORE PUSH1 0x20 ADD DUP3 DUP1 SLOAD PUSH2 0x3B06 SWAP1 PUSH2 0x58EB JUMP JUMPDEST DUP1 ISZERO PUSH2 0x3B53 JUMPI DUP1 PUSH1 0x1F LT PUSH2 0x3B28 JUMPI PUSH2 0x100 DUP1 DUP4 SLOAD DIV MUL DUP4 MSTORE SWAP2 PUSH1 0x20 ADD SWAP2 PUSH2 0x3B53 JUMP JUMPDEST DUP3 ADD SWAP2 SWAP1 PUSH1 0x0 MSTORE PUSH1 0x20 PUSH1 0x0 KECCAK256 SWAP1 JUMPDEST DUP2 SLOAD DUP2 MSTORE SWAP1 PUSH1 0x1 ADD SWAP1 PUSH1 0x20 ADD DUP1 DUP4 GT PUSH2 0x3B36 JUMPI DUP3 SWAP1 SUB PUSH1 0x1F AND DUP3 ADD SWAP2 JUMPDEST POP POP POP POP POP SWAP1 DUP1 PUSH1 0x3 ADD DUP1 SLOAD PUSH2 0x3B68 SWAP1 PUSH2 0x58EB JUMP JUMPDEST DUP1 PUSH1 0x1F ADD PUSH1 0x20 DUP1 SWAP2 DIV MUL PUSH1 0x20 ADD PUSH1 0x40 MLOAD SWAP1 DUP2 ADD PUSH1 0x40 MSTORE DUP1 SWAP3 SWAP2 SWAP1 DUP2 DUP2 MSTORE PUSH1 0x20 ADD DUP3 DUP1 SLOAD PUSH2 0x3B94 SWAP1 PUSH2 0x58EB JUMP JUMPDEST DUP1 ISZERO PUSH2 0x3BE1 JUMPI DUP1 PUSH1 0x1F LT PUSH2 0x3BB6 JUMPI PUSH2 0x100 DUP1 DUP4 SLOAD DIV MUL DUP4 MSTORE SWAP2 PUSH1 0x20 ADD SWAP2 PUSH2 0x3BE1 JUMP JUMPDEST DUP3 ADD SWAP2 SWAP1 PUSH1 0x0 MSTORE PUSH1 0x20 PUSH1 0x0 KECCAK256 SWAP1 JUMPDEST DUP2 SLOAD DUP2 MSTORE SWAP1 PUSH1 0x1 ADD SWAP1 PUSH1 0x20 ADD DUP1 DUP4 GT PUSH2 0x3BC4 JUMPI DUP3 SWAP1 SUB PUSH1 0x1F AND DUP3 ADD SWAP2 JUMPDEST POP POP POP POP POP SWAP1 DUP1 PUSH1 0x4 ADD DUP1 SLOAD PUSH2 0x3BF6 SWAP1 PUSH2 0x58EB JUMP JUMPDEST DUP1 PUSH1 0x1F ADD PUSH1 0x20 DUP1 SWAP2 DIV MUL PUSH1 0x20 ADD PUSH1 0x40 MLOAD SWAP1 DUP2 ADD PUSH1 0x40 MSTORE DUP1 SWAP3 SWAP2 SWAP1 DUP2 DUP2 MSTORE PUSH1 0x20 ADD DUP3 DUP1 SLOAD PUSH2 0x3C22 SWAP1 PUSH2 0x58EB JUMP JUMPDEST DUP1 ISZERO PUSH2 0x3C6F JUMPI DUP1 PUSH1 0x1F LT PUSH2 0x3C44 JUMPI PUSH2 0x100 DUP1 DUP4 SLOAD DIV MUL DUP4 MSTORE SWAP2 PUSH1 0x20 ADD SWAP2 PUSH2 0x3C6F JUMP JUMPDEST DUP3 ADD SWAP2 SWAP1 PUSH1 0x0 MSTORE PUSH1 0x20 PUSH1 0x0 KECCAK256 SWAP1 JUMPDEST DUP2 SLOAD DUP2 MSTORE SWAP1 PUSH1 0x1 ADD SWAP1 PUSH1 0x20 ADD DUP1 DUP4 GT PUSH2 0x3C52 JUMPI DUP3 SWAP1 SUB PUSH1 0x1F AND DUP3 ADD SWAP2 JUMPDEST POP POP POP POP POP SWAP1 DUP1 PUSH1 0x5 ADD DUP1 SLOAD PUSH2 0x3C84 SWAP1 PUSH2 0x58EB JUMP JUMPDEST DUP1 PUSH1 0x1F ADD PUSH1 0x20 DUP1 SWAP2 DIV MUL PUSH1 0x20 ADD PUSH1 0x40 MLOAD SWAP1 DUP2 ADD PUSH1 0x40 MSTORE DUP1 SWAP3 SWAP2 SWAP1 DUP2 DUP2 MSTORE PUSH1 0x20 ADD DUP3 DUP1 SLOAD PUSH2 0x3CB0 SWAP1 PUSH2 0x58EB JUMP JUMPDEST DUP1 ISZERO PUSH2 0x3CFD JUMPI DUP1 PUSH1 0x1F LT PUSH2 0x3CD2 JUMPI PUSH2 0x100 DUP1 DUP4 SLOAD DIV MUL DUP4 MSTORE SWAP2 PUSH1 0x20 ADD SWAP2 PUSH2 0x3CFD JUMP JUMPDEST DUP3 ADD SWAP2 SWAP1 PUSH1 0x0 MSTORE PUSH1 0x20 PUSH1 0x0 KECCAK256 SWAP1 JUMPDEST DUP2 SLOAD DUP2 MSTORE SWAP1 PUSH1 0x1 ADD SWAP1 PUSH1 0x20 ADD DUP1 DUP4 GT PUSH2 0x3CE0 JUMPI DUP3 SWAP1 SUB PUSH1 0x1F AND DUP3 ADD SWAP2 JUMPDEST POP POP POP POP POP SWAP1 DUP1 PUSH1 0x6 ADD DUP1 SLOAD PUSH2 0x3D12 SWAP1 PUSH2 0x58EB JUMP JUMPDEST DUP1 PUSH1 0x1F ADD PUSH1 0x20 DUP1 SWAP2 DIV MUL PUSH1 0x20 ADD PUSH1 0x40 MLOAD SWAP1 DUP2 ADD PUSH1 0x40 MSTORE DUP1 SWAP3 SWAP2 SWAP1 DUP2 DUP2 MSTORE PUSH1 0x20 ADD DUP3 DUP1 SLOAD PUSH2 0x3D3E SWAP1 PUSH2 0x58EB JUMP JUMPDEST DUP1 ISZERO PUSH2 0x3D8B JUMPI DUP1 PUSH1 0x1F LT PUSH2 0x3D60 JUMPI PUSH2 0x100 DUP1 DUP4 SLOAD DIV MUL DUP4 MSTORE SWAP2 PUSH1 0x20 ADD SWAP2 PUSH2 0x3D8B JUMP JUMPDEST DUP3 ADD SWAP2 SWAP1 PUSH1 0x0 MSTORE PUSH1 0x20 PUSH1 0x0 KECCAK256 SWAP1 JUMPDEST DUP2 SLOAD DUP2 MSTORE SWAP1 PUSH1 0x1 ADD SWAP1 PUSH1 0x20 ADD DUP1 DUP4 GT PUSH2 0x3D6E JUMPI DUP3 SWAP1 SUB PUSH1 0x1F AND DUP3 ADD SWAP2 JUMPDEST POP POP POP POP POP SWAP1 DUP1 PUSH1 0x7 ADD DUP1 SLOAD PUSH2 0x3DA0 SWAP1 PUSH2 0x58EB JUMP JUMPDEST DUP1 PUSH1 0x1F ADD PUSH1 0x20 DUP1 SWAP2 DIV MUL PUSH1 0x20 ADD PUSH1 0x40 MLOAD SWAP1 DUP2 ADD PUSH1 0x40 MSTORE DUP1 SWAP3 SWAP2 SWAP1 DUP2 DUP2 MSTORE PUSH1 0x20 ADD DUP3 DUP1 SLOAD PUSH2 0x3DCC SWAP1 PUSH2 0x58EB JUMP JUMPDEST DUP1 ISZERO PUSH2 0x3E19 JUMPI DUP1 PUSH1 0x1F LT PUSH2 0x3DEE JUMPI PUSH2 0x100 DUP1 DUP4 SLOAD DIV MUL DUP4 MSTORE SWAP2 PUSH1 0x20 ADD SWAP2 PUSH2 0x3E19 JUMP JUMPDEST DUP3 ADD SWAP2 SWAP1 PUSH1 0x0 MSTORE PUSH1 0x20 PUSH1 0x0 KECCAK256 SWAP1 JUMPDEST DUP2 SLOAD DUP2 MSTORE SWAP1 PUSH1 0x1 ADD SWAP1 PUSH1 0x20 ADD DUP1 DUP4 GT PUSH2 0x3DFC JUMPI DUP3 SWAP1 SUB PUSH1 0x1F AND DUP3 ADD SWAP2 JUMPDEST POP POP POP POP POP SWAP1 DUP1 PUSH1 0x8 ADD DUP1 SLOAD PUSH2 0x3E2E SWAP1 PUSH2 0x58EB JUMP JUMPDEST DUP1 PUSH1 0x1F ADD PUSH1 0x20 DUP1 SWAP2 DIV MUL PUSH1 0x20 ADD PUSH1 0x40 MLOAD SWAP1 DUP2 ADD PUSH1 0x40 MSTORE DUP1 SWAP3 SWAP2 SWAP1 DUP2 DUP2 MSTORE PUSH1 0x20 ADD DUP3 DUP1 SLOAD PUSH2 0x3E5A SWAP1 PUSH2 0x58EB JUMP JUMPDEST DUP1 ISZERO PUSH2 0x3EA7 JUMPI DUP1 PUSH1 0x1F LT PUSH2 0x3E7C JUMPI PUSH2 0x100 DUP1 DUP4 SLOAD DIV MUL DUP4 MSTORE SWAP2 PUSH1 0x20 ADD SWAP2 PUSH2 0x3EA7 JUMP JUMPDEST DUP3 ADD SWAP2 SWAP1 PUSH1 0x0 MSTORE PUSH1 0x20 PUSH1 0x0 KECCAK256 SWAP1 JUMPDEST DUP2 SLOAD DUP2 MSTORE SWAP1 PUSH1 0x1 ADD SWAP1 PUSH1 0x20 ADD DUP1 DUP4 GT PUSH2 0x3E8A JUMPI DUP3 SWAP1 SUB PUSH1 0x1F AND DUP3 ADD SWAP2 JUMPDEST POP POP POP POP POP SWAP1 DUP1 PUSH1 0x9 ADD DUP1 SLOAD PUSH2 0x3EBC SWAP1 PUSH2 0x58EB JUMP JUMPDEST DUP1 PUSH1 0x1F ADD PUSH1 0x20 DUP1 SWAP2 DIV MUL PUSH1 0x20 ADD PUSH1 0x40 MLOAD SWAP1 DUP2 ADD PUSH1 0x40 MSTORE DUP1 SWAP3 SWAP2 SWAP1 DUP2 DUP2 MSTORE PUSH1 0x20 ADD DUP3 DUP1 SLOAD PUSH2 0x3EE8 SWAP1 PUSH2 0x58EB JUMP JUMPDEST DUP1 ISZERO PUSH2 0x3F35 JUMPI DUP1 PUSH1 0x1F LT PUSH2 0x3F0A JUMPI PUSH2 0x100 DUP1 DUP4 SLOAD DIV MUL DUP4 MSTORE SWAP2 PUSH1 0x20 ADD SWAP2 PUSH2 0x3F35 JUMP JUMPDEST DUP3 ADD SWAP2 SWAP1 PUSH1 0x0 MSTORE PUSH1 0x20 PUSH1 0x0 KECCAK256 SWAP1 JUMPDEST DUP2 SLOAD DUP2 MSTORE SWAP1 PUSH1 0x1 ADD SWAP1 PUSH1 0x20 ADD DUP1 DUP4 GT PUSH2 0x3F18 JUMPI DUP3 SWAP1 SUB PUSH1 0x1F AND DUP3 ADD SWAP2 JUMPDEST POP POP POP POP POP SWAP1 DUP1 PUSH1 0xA ADD PUSH1 0x40 MLOAD DUP1 PUSH1 0xA0 ADD PUSH1 0x40 MSTORE SWAP1 DUP2 PUSH1 0x0 DUP3 ADD DUP1 SLOAD PUSH2 0x3F5A SWAP1 PUSH2 0x58EB JUMP JUMPDEST DUP1 PUSH1 0x1F ADD PUSH1 0x20 DUP1 SWAP2 DIV MUL PUSH1 0x20 ADD PUSH1 0x40 MLOAD SWAP1 DUP2 ADD PUSH1 0x40 MSTORE DUP1 SWAP3 SWAP2 SWAP1 DUP2 DUP2 MSTORE PUSH1 0x20 ADD DUP3 DUP1 SLOAD PUSH2 0x3F86 SWAP1 PUSH2 0x58EB JUMP JUMPDEST DUP1 ISZERO PUSH2 0x3FD3 JUMPI DUP1 PUSH1 0x1F LT PUSH2 0x3FA8 JUMPI PUSH2 0x100 DUP1 DUP4 SLOAD DIV MUL DUP4 MSTORE SWAP2 PUSH1 0x20 ADD SWAP2 PUSH2 0x3FD3 JUMP JUMPDEST DUP3 ADD SWAP2 SWAP1 PUSH1 0x0 MSTORE PUSH1 0x20 PUSH1 0x0 KECCAK256 SWAP1 JUMPDEST DUP2 SLOAD DUP2 MSTORE SWAP1 PUSH1 0x1 ADD SWAP1 PUSH1 0x20 ADD DUP1 DUP4 GT PUSH2 0x3FB6 JUMPI DUP3 SWAP1 SUB PUSH1 0x1F AND DUP3 ADD SWAP2 JUMPDEST POP POP POP POP POP DUP2 MSTORE PUSH1 0x20 ADD PUSH1 0x1 DUP3 ADD DUP1 SLOAD PUSH2 0x3FEC SWAP1 PUSH2 0x58EB JUMP JUMPDEST DUP1 PUSH1 0x1F ADD PUSH1 0x20 DUP1 SWAP2 DIV MUL PUSH1 0x20 ADD PUSH1 0x40 MLOAD SWAP1 DUP2 ADD PUSH1 0x40 MSTORE DUP1 SWAP3 SWAP2 SWAP1 DUP2 DUP2 MSTORE PUSH1 0x20 ADD DUP3 DUP1 SLOAD PUSH2 0x4018 SWAP1 PUSH2 0x58EB JUMP JUMPDEST DUP1 ISZERO PUSH2 0x4065 JUMPI DUP1 PUSH1 0x1F LT PUSH2 0x403A JUMPI PUSH2 0x100 DUP1 DUP4 SLOAD DIV MUL DUP4 MSTORE SWAP2 PUSH1 0x20 ADD SWAP2 PUSH2 0x4065 JUMP JUMPDEST DUP3 ADD SWAP2 SWAP1 PUSH1 0x0 MSTORE PUSH1 0x20 PUSH1 0x0 KECCAK256 SWAP1 JUMPDEST DUP2 SLOAD DUP2 MSTORE SWAP1 PUSH1 0x1 ADD SWAP1 PUSH1 0x20 ADD DUP1 DUP4 GT PUSH2 0x4048 JUMPI DUP3 SWAP1 SUB PUSH1 0x1F AND DUP3 ADD SWAP2 JUMPDEST POP POP POP POP POP DUP2 MSTORE PUSH1 0x20 ADD PUSH1 0x2 DUP3 ADD DUP1 SLOAD PUSH2 0x407E SWAP1 PUSH2 0x58EB JUMP JUMPDEST DUP1 PUSH1 0x1F ADD PUSH1 0x20 DUP1 SWAP2 DIV MUL PUSH1 0x20 ADD PUSH1 0x40 MLOAD SWAP1 DUP2 ADD PUSH1 0x40 MSTORE DUP1 SWAP3 SWAP2 SWAP1 DUP2 DUP2 MSTORE PUSH1 0x20 ADD DUP3 DUP1 SLOAD PUSH2 0x40AA SWAP1 PUSH2 0x58EB JUMP JUMPDEST DUP1 ISZERO PUSH2 0x40F7 JUMPI DUP1 PUSH1 0x1F LT PUSH2 0x40CC JUMPI PUSH2 0x100 DUP1 DUP4 SLOAD DIV MUL DUP4 MSTORE SWAP2 PUSH1 0x20 ADD SWAP2 PUSH2 0x40F7 JUMP JUMPDEST DUP3 ADD SWAP2 SWAP1 PUSH1 0x0 MSTORE PUSH1 0x20 PUSH1 0x0 KECCAK256 SWAP1 JUMPDEST DUP2 SLOAD DUP2 MSTORE SWAP1 PUSH1 0x1 ADD SWAP1 PUSH1 0x20 ADD DUP1 DUP4 GT PUSH2 0x40DA JUMPI DUP3 SWAP1 SUB PUSH1 0x1F AND DUP3 ADD SWAP2 JUMPDEST POP POP POP POP POP DUP2 MSTORE PUSH1 0x20 ADD PUSH1 0x3 DUP3 ADD DUP1 SLOAD PUSH2 0x4110 SWAP1 PUSH2 0x58EB JUMP JUMPDEST DUP1 PUSH1 0x1F ADD PUSH1 0x20 DUP1 SWAP2 DIV MUL PUSH1 0x20 ADD PUSH1 0x40 MLOAD SWAP1 DUP2 ADD PUSH1 0x40 MSTORE DUP1 SWAP3 SWAP2 SWAP1 DUP2 DUP2 MSTORE PUSH1 0x20 ADD DUP3 DUP1 SLOAD PUSH2 0x413C SWAP1 PUSH2 0x58EB JUMP JUMPDEST DUP1 ISZERO PUSH2 0x4189 JUMPI DUP1 PUSH1 0x1F LT PUSH2 0x415E JUMPI PUSH2 0x100 DUP1 DUP4 SLOAD DIV MUL DUP4 MSTORE SWAP2 PUSH1 0x20 ADD SWAP2 PUSH2 0x4189 JUMP JUMPDEST DUP3 ADD SWAP2 SWAP1 PUSH1 0x0 MSTORE PUSH1 0x20 PUSH1 0x0 KECCAK256 SWAP1 JUMPDEST DUP2 SLOAD DUP2 MSTORE SWAP1 PUSH1 0x1 ADD SWAP1 PUSH1 0x20 ADD DUP1 DUP4 GT PUSH2 0x416C JUMPI DUP3 SWAP1 SUB PUSH1 0x1F AND DUP3 ADD SWAP2 JUMPDEST POP POP POP POP POP DUP2 MSTORE PUSH1 0x20 ADD PUSH1 0x4 DUP3 ADD DUP1 SLOAD PUSH2 0x41A2 SWAP1 PUSH2 0x58EB JUMP JUMPDEST DUP1 PUSH1 0x1F ADD PUSH1 0x20 DUP1 SWAP2 DIV MUL PUSH1 0x20 ADD PUSH1 0x40 MLOAD SWAP1 DUP2 ADD PUSH1 0x40 MSTORE DUP1 SWAP3 SWAP2 SWAP1 DUP2 DUP2 MSTORE PUSH1 0x20 ADD DUP3 DUP1 SLOAD PUSH2 0x41CE SWAP1 PUSH2 0x58EB JUMP JUMPDEST DUP1 ISZERO PUSH2 0x421B JUMPI DUP1 PUSH1 0x1F LT PUSH2 0x41F0 JUMPI PUSH2 0x100 DUP1 DUP4 SLOAD DIV MUL DUP4 MSTORE SWAP2 PUSH1 0x20 ADD SWAP2 PUSH2 0x421B JUMP JUMPDEST DUP3 ADD SWAP2 SWAP1 PUSH1 0x0 MSTORE PUSH1 0x20 PUSH1 0x0 KECCAK256 SWAP1 JUMPDEST DUP2 SLOAD DUP2 MSTORE SWAP1 PUSH1 0x1 ADD SWAP1 PUSH1 0x20 ADD DUP1 DUP4 GT PUSH2 0x41FE JUMPI DUP3 SWAP1 SUB PUSH1 0x1F AND DUP3 ADD SWAP2 JUMPDEST POP POP POP POP POP DUP2 MSTORE POP POP SWAP1 POP DUP12 JUMP JUMPDEST PUSH1 0x0 DUP1 SLOAD SWAP1 PUSH2 0x100 EXP SWAP1 DIV PUSH20 0xFFFFFFFFFFFFFFFFFFFFFFFFFFFFFFFFFFFFFFFF AND PUSH20 0xFFFFFFFFFFFFFFFFFFFFFFFFFFFFFFFFFFFFFFFF AND CALLER PUSH20 0xFFFFFFFFFFFFFFFFFFFFFFFFFFFFFFFFFFFFFFFF AND EQ PUSH2 0x42B7 JUMPI PUSH1 0x40 MLOAD PUSH32 0x8C379A000000000000000000000000000000000000000000000000000000000 DUP2 MSTORE PUSH1 0x4 ADD PUSH2 0x42AE SWAP1 PUSH2 0x589C JUMP JUMPDEST PUSH1 0x40 MLOAD DUP1 SWAP2 SUB SWAP1 REVERT JUMPDEST DUP1 PUSH1 0xA DUP4 PUSH1 0x40 MLOAD PUSH2 0x42C8 SWAP2 SWAP1 PUSH2 0x5993 JUMP JUMPDEST SWAP1 DUP2 MSTORE PUSH1 0x20 ADD PUSH1 0x40 MLOAD DUP1 SWAP2 SUB SWAP1 KECCAK256 PUSH1 0x3 ADD SWAP1 DUP1 MLOAD SWAP1 PUSH1 0x20 ADD SWAP1 PUSH2 0x42EC SWAP3 SWAP2 SWAP1 PUSH2 0x4A05 JUMP JUMPDEST POP POP POP JUMP JUMPDEST PUSH1 0x0 DUP1 SLOAD SWAP1 PUSH2 0x100 EXP SWAP1 DIV PUSH20 0xFFFFFFFFFFFFFFFFFFFFFFFFFFFFFFFFFFFFFFFF AND PUSH20 0xFFFFFFFFFFFFFFFFFFFFFFFFFFFFFFFFFFFFFFFF AND CALLER PUSH20 0xFFFFFFFFFFFFFFFFFFFFFFFFFFFFFFFFFFFFFFFF AND EQ PUSH2 0x437F JUMPI PUSH1 0x40 MLOAD PUSH32 0x8C379A000000000000000000000000000000000000000000000000000000000 DUP2 MSTORE PUSH1 0x4 ADD PUSH2 0x4376 SWAP1 PUSH2 0x589C JUMP JUMPDEST PUSH1 0x40 MLOAD DUP1 SWAP2 SUB SWAP1 REVERT JUMPDEST PUSH1 0x40 MLOAD PUSH1 0x20 ADD PUSH2 0x438E SWAP1 PUSH2 0x594D JUMP JUMPDEST PUSH1 0x40 MLOAD PUSH1 0x20 DUP2 DUP4 SUB SUB DUP2 MSTORE SWAP1 PUSH1 0x40 MSTORE DUP1 MLOAD SWAP1 PUSH1 0x20 ADD KECCAK256 PUSH1 0x1 DUP13 PUSH1 0x40 MLOAD PUSH2 0x43B4 SWAP2 SWAP1 PUSH2 0x5993 JUMP JUMPDEST SWAP1 DUP2 MSTORE PUSH1 0x20 ADD PUSH1 0x40 MLOAD DUP1 SWAP2 SUB SWAP1 KECCAK256 PUSH1 0x0 ADD PUSH1 0x40 MLOAD PUSH1 0x20 ADD PUSH2 0x43D5 SWAP2 SWAP1 PUSH2 0x5A3E JUMP JUMPDEST PUSH1 0x40 MLOAD PUSH1 0x20 DUP2 DUP4 SUB SUB DUP2 MSTORE SWAP1 PUSH1 0x40 MSTORE DUP1 MLOAD SWAP1 PUSH1 0x20 ADD KECCAK256 EQ PUSH2 0x442B JUMPI PUSH1 0x40 MLOAD PUSH32 0x8C379A000000000000000000000000000000000000000000000000000000000 DUP2 MSTORE PUSH1 0x4 ADD PUSH2 0x4422 SWAP1 PUSH2 0x5DB6 JUMP JUMPDEST PUSH1 0x40 MLOAD DUP1 SWAP2 SUB SWAP1 REVERT JUMPDEST PUSH1 0x40 MLOAD PUSH1 0x20 ADD PUSH2 0x443A SWAP1 PUSH2 0x594D JUMP JUMPDEST PUSH1 0x40 MLOAD PUSH1 0x20 DUP2 DUP4 SUB SUB DUP2 MSTORE SWAP1 PUSH1 0x40 MSTORE DUP1 MLOAD SWAP1 PUSH1 0x20 ADD KECCAK256 PUSH1 0x3 DUP12 PUSH1 0x40 MLOAD PUSH2 0x4460 SWAP2 SWAP1 PUSH2 0x5993 JUMP JUMPDEST SWAP1 DUP2 MSTORE PUSH1 0x20 ADD PUSH1 0x40 MLOAD DUP1 SWAP2 SUB SWAP1 KECCAK256 PUSH1 0x1 ADD PUSH1 0x40 MLOAD PUSH1 0x20 ADD PUSH2 0x4481 SWAP2 SWAP1 PUSH2 0x5A3E JUMP JUMPDEST PUSH1 0x40 MLOAD PUSH1 0x20 DUP2 DUP4 SUB SUB DUP2 MSTORE SWAP1 PUSH1 0x40 MSTORE DUP1 MLOAD SWAP1 PUSH1 0x20 ADD KECCAK256 EQ PUSH2 0x44D7 JUMPI PUSH1 0x40 MLOAD PUSH32 0x8C379A000000000000000000000000000000000000000000000000000000000 DUP2 MSTORE PUSH1 0x4 ADD PUSH2 0x44CE SWAP1 PUSH2 0x5E48 JUMP JUMPDEST PUSH1 0x40 MLOAD DUP1 SWAP2 SUB SWAP1 REVERT JUMPDEST PUSH1 0x4 DUP12 SWAP1 DUP1 PUSH1 0x1 DUP2 SLOAD ADD DUP1 DUP3 SSTORE DUP1 SWAP2 POP POP PUSH1 0x1 SWAP1 SUB SWAP1 PUSH1 0x0 MSTORE PUSH1 0x20 PUSH1 0x0 KECCAK256 ADD PUSH1 0x0 SWAP1 SWAP2 SWAP1 SWAP2 SWAP1 SWAP2 POP SWAP1 DUP1 MLOAD SWAP1 PUSH1 0x20 ADD SWAP1 PUSH2 0x4512 SWAP3 SWAP2 SWAP1 PUSH2 0x4A05 JUMP JUMPDEST POP PUSH2 0x451B PUSH2 0x49A5 JUMP JUMPDEST DUP12 DUP2 PUSH1 0x0 ADD DUP2 SWAP1 MSTORE POP DUP11 DUP2 PUSH1 0x20 ADD DUP2 SWAP1 MSTORE POP DUP10 DUP2 PUSH1 0x40 ADD DUP2 SWAP1 MSTORE POP DUP9 DUP2 PUSH1 0x60 ADD DUP2 SWAP1 MSTORE POP DUP8 DUP2 PUSH1 0x80 ADD DUP2 SWAP1 MSTORE POP DUP7 DUP2 PUSH1 0xA0 ADD DUP2 SWAP1 MSTORE POP DUP6 DUP2 PUSH1 0xC0 ADD DUP2 SWAP1 MSTORE POP DUP5 DUP2 PUSH1 0xE0 ADD DUP2 SWAP1 MSTORE POP DUP4 DUP2 PUSH2 0x100 ADD DUP2 SWAP1 MSTORE POP DUP3 DUP2 PUSH2 0x120 ADD DUP2 SWAP1 MSTORE POP DUP2 PUSH1 0x0 ADD MLOAD DUP2 PUSH2 0x140 ADD MLOAD PUSH1 0x0 ADD DUP2 SWAP1 MSTORE POP DUP2 PUSH1 0x20 ADD MLOAD DUP2 PUSH2 0x140 ADD MLOAD PUSH1 0x20 ADD DUP2 SWAP1 MSTORE POP DUP2 PUSH1 0x40 ADD MLOAD DUP2 PUSH2 0x140 ADD MLOAD PUSH1 0x40 ADD DUP2 SWAP1 MSTORE POP DUP2 PUSH1 0x60 ADD MLOAD DUP2 PUSH2 0x140 ADD MLOAD PUSH1 0x60 ADD DUP2 SWAP1 MSTORE POP DUP2 PUSH1 0x80 ADD MLOAD DUP2 PUSH2 0x140 ADD MLOAD PUSH1 0x80 ADD DUP2 SWAP1 MSTORE POP DUP1 PUSH1 0x1 DUP14 PUSH1 0x40 MLOAD PUSH2 0x45E2 SWAP2 SWAP1 PUSH2 0x5993 JUMP JUMPDEST SWAP1 DUP2 MSTORE PUSH1 0x20 ADD PUSH1 0x40 MLOAD DUP1 SWAP2 SUB SWAP1 KECCAK256 PUSH1 0x0 DUP3 ADD MLOAD DUP2 PUSH1 0x0 ADD SWAP1 DUP1 MLOAD SWAP1 PUSH1 0x20 ADD SWAP1 PUSH2 0x460C SWAP3 SWAP2 SWAP1 PUSH2 0x4A05 JUMP JUMPDEST POP PUSH1 0x20 DUP3 ADD MLOAD DUP2 PUSH1 0x1 ADD SWAP1 DUP1 MLOAD SWAP1 PUSH1 0x20 ADD SWAP1 PUSH2 0x4629 SWAP3 SWAP2 SWAP1 PUSH2 0x4A05 JUMP JUMPDEST POP PUSH1 0x40 DUP3 ADD MLOAD DUP2 PUSH1 0x2 ADD SWAP1 DUP1 MLOAD SWAP1 PUSH1 0x20 ADD SWAP1 PUSH2 0x4646 SWAP3 SWAP2 SWAP1 PUSH2 0x4A05 JUMP JUMPDEST POP PUSH1 0x60 DUP3 ADD MLOAD DUP2 PUSH1 0x3 ADD SWAP1 DUP1 MLOAD SWAP1 PUSH1 0x20 ADD SWAP1 PUSH2 0x4663 SWAP3 SWAP2 SWAP1 PUSH2 0x4A05 JUMP JUMPDEST POP PUSH1 0x80 DUP3 ADD MLOAD DUP2 PUSH1 0x4 ADD SWAP1 DUP1 MLOAD SWAP1 PUSH1 0x20 ADD SWAP1 PUSH2 0x4680 SWAP3 SWAP2 SWAP1 PUSH2 0x4A05 JUMP JUMPDEST POP PUSH1 0xA0 DUP3 ADD MLOAD DUP2 PUSH1 0x5 ADD SWAP1 DUP1 MLOAD SWAP1 PUSH1 0x20 ADD SWAP1 PUSH2 0x469D SWAP3 SWAP2 SWAP1 PUSH2 0x4A05 JUMP JUMPDEST POP PUSH1 0xC0 DUP3 ADD MLOAD DUP2 PUSH1 0x6 ADD SWAP1 DUP1 MLOAD SWAP1 PUSH1 0x20 ADD SWAP1 PUSH2 0x46BA SWAP3 SWAP2 SWAP1 PUSH2 0x4A05 JUMP JUMPDEST POP PUSH1 0xE0 DUP3 ADD MLOAD DUP2 PUSH1 0x7 ADD SWAP1 DUP1 MLOAD SWAP1 PUSH1 0x20 ADD SWAP1 PUSH2 0x46D7 SWAP3 SWAP2 SWAP1 PUSH2 0x4A05 JUMP JUMPDEST POP PUSH2 0x100 DUP3 ADD MLOAD DUP2 PUSH1 0x8 ADD SWAP1 DUP1 MLOAD SWAP1 PUSH1 0x20 ADD SWAP1 PUSH2 0x46F5 SWAP3 SWAP2 SWAP1 PUSH2 0x4A05 JUMP JUMPDEST POP PUSH2 0x120 DUP3 ADD MLOAD DUP2 PUSH1 0x9 ADD SWAP1 DUP1 MLOAD SWAP1 PUSH1 0x20 ADD SWAP1 PUSH2 0x4713 SWAP3 SWAP2 SWAP1 PUSH2 0x4A05 JUMP JUMPDEST POP PUSH2 0x140 DUP3 ADD MLOAD DUP2 PUSH1 0xA ADD PUSH1 0x0 DUP3 ADD MLOAD DUP2 PUSH1 0x0 ADD SWAP1 DUP1 MLOAD SWAP1 PUSH1 0x20 ADD SWAP1 PUSH2 0x473A SWAP3 SWAP2 SWAP1 PUSH2 0x4A05 JUMP JUMPDEST POP PUSH1 0x20 DUP3 ADD MLOAD DUP2 PUSH1 0x1 ADD SWAP1 DUP1 MLOAD SWAP1 PUSH1 0x20 ADD SWAP1 PUSH2 0x4757 SWAP3 SWAP2 SWAP1 PUSH2 0x4A05 JUMP JUMPDEST POP PUSH1 0x40 DUP3 ADD MLOAD DUP2 PUSH1 0x2 ADD SWAP1 DUP1 MLOAD SWAP1 PUSH1 0x20 ADD SWAP1 PUSH2 0x4774 SWAP3 SWAP2 SWAP1 PUSH2 0x4A05 JUMP JUMPDEST POP PUSH1 0x60 DUP3 ADD MLOAD DUP2 PUSH1 0x3 ADD SWAP1 DUP1 MLOAD SWAP1 PUSH1 0x20 ADD SWAP1 PUSH2 0x4791 SWAP3 SWAP2 SWAP1 PUSH2 0x4A05 JUMP JUMPDEST POP PUSH1 0x80 DUP3 ADD MLOAD DUP2 PUSH1 0x4 ADD SWAP1 DUP1 MLOAD SWAP1 PUSH1 0x20 ADD SWAP1 PUSH2 0x47AE SWAP3 SWAP2 SWAP1 PUSH2 0x4A05 JUMP JUMPDEST POP POP POP SWAP1 POP POP DUP1 PUSH1 0x3 DUP13 PUSH1 0x40 MLOAD PUSH2 0x47C5 SWAP2 SWAP1 PUSH2 0x5993 JUMP JUMPDEST SWAP1 DUP2 MSTORE PUSH1 0x20 ADD PUSH1 0x40 MLOAD DUP1 SWAP2 SUB SWAP1 KECCAK256 PUSH1 0x0 DUP3 ADD MLOAD DUP2 PUSH1 0x0 ADD SWAP1 DUP1 MLOAD SWAP1 PUSH1 0x20 ADD SWAP1 PUSH2 0x47EF SWAP3 SWAP2 SWAP1 PUSH2 0x4A05 JUMP JUMPDEST POP PUSH1 0x20 DUP3 ADD MLOAD DUP2 PUSH1 0x1 ADD SWAP1 DUP1 MLOAD SWAP1 PUSH1 0x20 ADD SWAP1 PUSH2 0x480C SWAP3 SWAP2 SWAP1 PUSH2 0x4A05 JUMP JUMPDEST POP PUSH1 0x40 DUP3 ADD MLOAD DUP2 PUSH1 0x2 ADD SWAP1 DUP1 MLOAD SWAP1 PUSH1 0x20 ADD SWAP1 PUSH2 0x4829 SWAP3 SWAP2 SWAP1 PUSH2 0x4A05 JUMP JUMPDEST POP PUSH1 0x60 DUP3 ADD MLOAD DUP2 PUSH1 0x3 ADD SWAP1 DUP1 MLOAD SWAP1 PUSH1 0x20 ADD SWAP1 PUSH2 0x4846 SWAP3 SWAP2 SWAP1 PUSH2 0x4A05 JUMP JUMPDEST POP PUSH1 0x80 DUP3 ADD MLOAD DUP2 PUSH1 0x4 ADD SWAP1 DUP1 MLOAD SWAP1 PUSH1 0x20 ADD SWAP1 PUSH2 0x4863 SWAP3 SWAP2 SWAP1 PUSH2 0x4A05 JUMP JUMPDEST POP PUSH1 0xA0 DUP3 ADD MLOAD DUP2 PUSH1 0x5 ADD SWAP1 DUP1 MLOAD SWAP1 PUSH1 0x20 ADD SWAP1 PUSH2 0x4880 SWAP3 SWAP2 SWAP1 PUSH2 0x4A05 JUMP JUMPDEST POP PUSH1 0xC0 DUP3 ADD MLOAD DUP2 PUSH1 0x6 ADD SWAP1 DUP1 MLOAD SWAP1 PUSH1 0x20 ADD SWAP1 PUSH2 0x489D SWAP3 SWAP2 SWAP1 PUSH2 0x4A05 JUMP JUMPDEST POP PUSH1 0xE0 DUP3 ADD MLOAD DUP2 PUSH1 0x7 ADD SWAP1 DUP1 MLOAD SWAP1 PUSH1 0x20 ADD SWAP1 PUSH2 0x48BA SWAP3 SWAP2 SWAP1 PUSH2 0x4A05 JUMP JUMPDEST POP PUSH2 0x100 DUP3 ADD MLOAD DUP2 PUSH1 0x8 ADD SWAP1 DUP1 MLOAD SWAP1 PUSH1 0x20 ADD SWAP1 PUSH2 0x48D8 SWAP3 SWAP2 SWAP1 PUSH2 0x4A05 JUMP JUMPDEST POP PUSH2 0x120 DUP3 ADD MLOAD DUP2 PUSH1 0x9 ADD SWAP1 DUP1 MLOAD SWAP1 PUSH1 0x20 ADD SWAP1 PUSH2 0x48F6 SWAP3 SWAP2 SWAP1 PUSH2 0x4A05 JUMP JUMPDEST POP PUSH2 0x140 DUP3 ADD MLOAD DUP2 PUSH1 0xA ADD PUSH1 0x0 DUP3 ADD MLOAD DUP2 PUSH1 0x0 ADD SWAP1 DUP1 MLOAD SWAP1 PUSH1 0x20 ADD SWAP1 PUSH2 0x491D SWAP3 SWAP2 SWAP1 PUSH2 0x4A05 JUMP JUMPDEST POP PUSH1 0x20 DUP3 ADD MLOAD DUP2 PUSH1 0x1 ADD SWAP1 DUP1 MLOAD SWAP1 PUSH1 0x20 ADD SWAP1 PUSH2 0x493A SWAP3 SWAP2 SWAP1 PUSH2 0x4A05 JUMP JUMPDEST POP PUSH1 0x40 DUP3 ADD MLOAD DUP2 PUSH1 0x2 ADD SWAP1 DUP1 MLOAD SWAP1 PUSH1 0x20 ADD SWAP1 PUSH2 0x4957 SWAP3 SWAP2 SWAP1 PUSH2 0x4A05 JUMP JUMPDEST POP PUSH1 0x60 DUP3 ADD MLOAD DUP2 PUSH1 0x3 ADD SWAP1 DUP1 MLOAD SWAP1 PUSH1 0x20 ADD SWAP1 PUSH2 0x4974 SWAP3 SWAP2 SWAP1 PUSH2 0x4A05 JUMP JUMPDEST POP PUSH1 0x80 DUP3 ADD MLOAD DUP2 PUSH1 0x4 ADD SWAP1 DUP1 MLOAD SWAP1 PUSH1 0x20 ADD SWAP1 PUSH2 0x4991 SWAP3 SWAP2 SWAP1 PUSH2 0x4A05 JUMP JUMPDEST POP POP POP SWAP1 POP POP POP POP POP POP POP POP POP POP POP POP POP POP JUMP JUMPDEST PUSH1 0x40 MLOAD DUP1 PUSH2 0x160 ADD PUSH1 0x40 MSTORE DUP1 PUSH1 0x60 DUP2 MSTORE PUSH1 0x20 ADD PUSH1 0x60 DUP2 MSTORE PUSH1 0x20 ADD PUSH1 0x60 DUP2 MSTORE PUSH1 0x20 ADD PUSH1 0x60 DUP2 MSTORE PUSH1 0x20 ADD PUSH1 0x60 DUP2 MSTORE PUSH1 0x20 ADD PUSH1 0x60 DUP2 MSTORE PUSH1 0x20 ADD PUSH1 0x60 DUP2 MSTORE PUSH1 0x20 ADD PUSH1 0x60 DUP2 MSTORE PUSH1 0x20 ADD PUSH1 0x60 DUP2 MSTORE PUSH1 0x20 ADD PUSH1 0x60 DUP2 MSTORE PUSH1 0x20 ADD PUSH2 0x49FF PUSH2 0x4B58 JUMP JUMPDEST DUP2 MSTORE POP SWAP1 JUMP JUMPDEST DUP3 DUP1 SLOAD PUSH2 0x4A11 SWAP1 PUSH2 0x58EB JUMP JUMPDEST SWAP1 PUSH1 0x0 MSTORE PUSH1 0x20 PUSH1 0x0 KECCAK256 SWAP1 PUSH1 0x1F ADD PUSH1 0x20 SWAP1 DIV DUP2 ADD SWAP3 DUP3 PUSH2 0x4A33 JUMPI PUSH1 0x0 DUP6 SSTORE PUSH2 0x4A7A JUMP JUMPDEST DUP3 PUSH1 0x1F LT PUSH2 0x4A4C JUMPI DUP1 MLOAD PUSH1 0xFF NOT AND DUP4 DUP1 ADD OR DUP6 SSTORE PUSH2 0x4A7A JUMP JUMPDEST DUP3 DUP1 ADD PUSH1 0x1 ADD DUP6 SSTORE DUP3 ISZERO PUSH2 0x4A7A JUMPI SWAP2 DUP3 ADD JUMPDEST DUP3 DUP2 GT ISZERO PUSH2 0x4A79 JUMPI DUP3 MLOAD DUP3 SSTORE SWAP2 PUSH1 0x20 ADD SWAP2 SWAP1 PUSH1 0x1 ADD SWAP1 PUSH2 0x4A5E JUMP JUMPDEST JUMPDEST POP SWAP1 POP PUSH2 0x4A87 SWAP2 SWAP1 PUSH2 0x4B87 JUMP JUMPDEST POP SWAP1 JUMP JUMPDEST POP DUP1 SLOAD PUSH2 0x4A97 SWAP1 PUSH2 0x58EB JUMP JUMPDEST PUSH1 0x0 DUP3 SSTORE DUP1 PUSH1 0x1F LT PUSH2 0x4AA9 JUMPI POP PUSH2 0x4AC8 JUMP JUMPDEST PUSH1 0x1F ADD PUSH1 0x20 SWAP1 DIV SWAP1 PUSH1 0x0 MSTORE PUSH1 0x20 PUSH1 0x0 KECCAK256 SWAP1 DUP2 ADD SWAP1 PUSH2 0x4AC7 SWAP2 SWAP1 PUSH2 0x4B87 JUMP JUMPDEST JUMPDEST POP JUMP JUMPDEST DUP3 DUP1 SLOAD PUSH2 0x4AD7 SWAP1 PUSH2 0x58EB JUMP JUMPDEST SWAP1 PUSH1 0x0 MSTORE PUSH1 0x20 PUSH1 0x0 KECCAK256 SWAP1 PUSH1 0x1F ADD PUSH1 0x20 SWAP1 DIV DUP2 ADD SWAP3 DUP3 PUSH2 0x4AF9 JUMPI PUSH1 0x0 DUP6 SSTORE PUSH2 0x4B47 JUMP JUMPDEST DUP3 PUSH1 0x1F LT PUSH2 0x4B0A JUMPI DUP1 SLOAD DUP6 SSTORE PUSH2 0x4B47 JUMP JUMPDEST DUP3 DUP1 ADD PUSH1 0x1 ADD DUP6 SSTORE DUP3 ISZERO PUSH2 0x4B47 JUMPI PUSH1 0x0 MSTORE PUSH1 0x20 PUSH1 0x0 KECCAK256 SWAP2 PUSH1 0x1F ADD PUSH1 0x20 SWAP1 DIV DUP3 ADD JUMPDEST DUP3 DUP2 GT ISZERO PUSH2 0x4B46 JUMPI DUP3 SLOAD DUP3 SSTORE SWAP2 PUSH1 0x1 ADD SWAP2 SWAP1 PUSH1 0x1 ADD SWAP1 PUSH2 0x4B2B JUMP JUMPDEST JUMPDEST POP SWAP1 POP PUSH2 0x4B54 SWAP2 SWAP1 PUSH2 0x4B87 JUMP JUMPDEST POP SWAP1 JUMP JUMPDEST PUSH1 0x40 MLOAD DUP1 PUSH1 0xA0 ADD PUSH1 0x40 MSTORE DUP1 PUSH1 0x60 DUP2 MSTORE PUSH1 0x20 ADD PUSH1 0x60 DUP2 MSTORE PUSH1 0x20 ADD PUSH1 0x60 DUP2 MSTORE PUSH1 0x20 ADD PUSH1 0x60 DUP2 MSTORE PUSH1 0x20 ADD PUSH1 0x60 DUP2 MSTORE POP SWAP1 JUMP JUMPDEST JUMPDEST DUP1 DUP3 GT ISZERO PUSH2 0x4BA0 JUMPI PUSH1 0x0 DUP2 PUSH1 0x0 SWAP1 SSTORE POP PUSH1 0x1 ADD PUSH2 0x4B88 JUMP JUMPDEST POP SWAP1 JUMP JUMPDEST PUSH1 0x0 PUSH1 0x40 MLOAD SWAP1 POP SWAP1 JUMP JUMPDEST PUSH1 0x0 DUP1 REVERT JUMPDEST PUSH1 0x0 DUP1 REVERT JUMPDEST PUSH1 0x0 DUP1 REVERT JUMPDEST PUSH1 0x0 DUP1 REVERT JUMPDEST PUSH1 0x0 PUSH1 0x1F NOT PUSH1 0x1F DUP4 ADD AND SWAP1 POP SWAP2 SWAP1 POP JUMP JUMPDEST PUSH32 0x4E487B7100000000000000000000000000000000000000000000000000000000 PUSH1 0x0 MSTORE PUSH1 0x41 PUSH1 0x4 MSTORE PUSH1 0x24 PUSH1 0x0 REVERT JUMPDEST PUSH2 0x4C0B DUP3 PUSH2 0x4BC2 JUMP JUMPDEST DUP2 ADD DUP2 DUP2 LT PUSH8 0xFFFFFFFFFFFFFFFF DUP3 GT OR ISZERO PUSH2 0x4C2A JUMPI PUSH2 0x4C29 PUSH2 0x4BD3 JUMP JUMPDEST JUMPDEST DUP1 PUSH1 0x40 MSTORE POP POP POP JUMP JUMPDEST PUSH1 0x0 PUSH2 0x4C3D PUSH2 0x4BA4 JUMP JUMPDEST SWAP1 POP PUSH2 0x4C49 DUP3 DUP3 PUSH2 0x4C02 JUMP JUMPDEST SWAP2 SWAP1 POP JUMP JUMPDEST PUSH1 0x0 PUSH8 0xFFFFFFFFFFFFFFFF DUP3 GT ISZERO PUSH2 0x4C69 JUMPI PUSH2 0x4C68 PUSH2 0x4BD3 JUMP JUMPDEST JUMPDEST PUSH2 0x4C72 DUP3 PUSH2 0x4BC2 JUMP JUMPDEST SWAP1 POP PUSH1 0x20 DUP2 ADD SWAP1 POP SWAP2 SWAP1 POP JUMP JUMPDEST DUP3 DUP2 DUP4 CALLDATACOPY PUSH1 0x0 DUP4 DUP4 ADD MSTORE POP POP POP JUMP JUMPDEST PUSH1 0x0 PUSH2 0x4CA1 PUSH2 0x4C9C DUP5 PUSH2 0x4C4E JUMP JUMPDEST PUSH2 0x4C33 JUMP JUMPDEST SWAP1 POP DUP3 DUP2 MSTORE PUSH1 0x20 DUP2 ADD DUP5 DUP5 DUP5 ADD GT ISZERO PUSH2 0x4CBD JUMPI PUSH2 0x4CBC PUSH2 0x4BBD JUMP JUMPDEST JUMPDEST PUSH2 0x4CC8 DUP5 DUP3 DUP6 PUSH2 0x4C7F JUMP JUMPDEST POP SWAP4 SWAP3 POP POP POP JUMP JUMPDEST PUSH1 0x0 DUP3 PUSH1 0x1F DUP4 ADD SLT PUSH2 0x4CE5 JUMPI PUSH2 0x4CE4 PUSH2 0x4BB8 JUMP JUMPDEST JUMPDEST DUP2 CALLDATALOAD PUSH2 0x4CF5 DUP5 DUP3 PUSH1 0x20 DUP7 ADD PUSH2 0x4C8E JUMP JUMPDEST SWAP2 POP POP SWAP3 SWAP2 POP POP JUMP JUMPDEST PUSH1 0x0 DUP1 REVERT JUMPDEST PUSH1 0x0 DUP1 REVERT JUMPDEST PUSH1 0x0 PUSH1 0xA0 DUP3 DUP5 SUB SLT ISZERO PUSH2 0x4D1E JUMPI PUSH2 0x4D1D PUSH2 0x4CFE JUMP JUMPDEST JUMPDEST PUSH2 0x4D28 PUSH1 0xA0 PUSH2 0x4C33 JUMP JUMPDEST SWAP1 POP PUSH1 0x0 DUP3 ADD CALLDATALOAD PUSH8 0xFFFFFFFFFFFFFFFF DUP2 GT ISZERO PUSH2 0x4D48 JUMPI PUSH2 0x4D47 PUSH2 0x4D03 JUMP JUMPDEST JUMPDEST PUSH2 0x4D54 DUP5 DUP3 DUP6 ADD PUSH2 0x4CD0 JUMP JUMPDEST PUSH1 0x0 DUP4 ADD MSTORE POP PUSH1 0x20 DUP3 ADD CALLDATALOAD PUSH8 0xFFFFFFFFFFFFFFFF DUP2 GT ISZERO PUSH2 0x4D78 JUMPI PUSH2 0x4D77 PUSH2 0x4D03 JUMP JUMPDEST JUMPDEST PUSH2 0x4D84 DUP5 DUP3 DUP6 ADD PUSH2 0x4CD0 JUMP JUMPDEST PUSH1 0x20 DUP4 ADD MSTORE POP PUSH1 0x40 DUP3 ADD CALLDATALOAD PUSH8 0xFFFFFFFFFFFFFFFF DUP2 GT ISZERO PUSH2 0x4DA8 JUMPI PUSH2 0x4DA7 PUSH2 0x4D03 JUMP JUMPDEST JUMPDEST PUSH2 0x4DB4 DUP5 DUP3 DUP6 ADD PUSH2 0x4CD0 JUMP JUMPDEST PUSH1 0x40 DUP4 ADD MSTORE POP PUSH1 0x60 DUP3 ADD CALLDATALOAD PUSH8 0xFFFFFFFFFFFFFFFF DUP2 GT ISZERO PUSH2 0x4DD8 JUMPI PUSH2 0x4DD7 PUSH2 0x4D03 JUMP JUMPDEST JUMPDEST PUSH2 0x4DE4 DUP5 DUP3 DUP6 ADD PUSH2 0x4CD0 JUMP JUMPDEST PUSH1 0x60 DUP4 ADD MSTORE POP PUSH1 0x80 DUP3 ADD CALLDATALOAD PUSH8 0xFFFFFFFFFFFFFFFF DUP2 GT ISZERO PUSH2 0x4E08 JUMPI PUSH2 0x4E07 PUSH2 0x4D03 JUMP JUMPDEST JUMPDEST PUSH2 0x4E14 DUP5 DUP3 DUP6 ADD PUSH2 0x4CD0 JUMP JUMPDEST PUSH1 0x80 DUP4 ADD MSTORE POP SWAP3 SWAP2 POP POP JUMP JUMPDEST PUSH1 0x0 DUP1 PUSH1 0x0 DUP1 PUSH1 0x0 DUP1 PUSH1 0x0 DUP1 PUSH1 0x0 DUP1 PUSH1 0x0 PUSH2 0x160 DUP13 DUP15 SUB SLT ISZERO PUSH2 0x4E46 JUMPI PUSH2 0x4E45 PUSH2 0x4BAE JUMP JUMPDEST JUMPDEST PUSH1 0x0 DUP13 ADD CALLDATALOAD PUSH8 0xFFFFFFFFFFFFFFFF DUP2 GT ISZERO PUSH2 0x4E64 JUMPI PUSH2 0x4E63 PUSH2 0x4BB3 JUMP JUMPDEST JUMPDEST PUSH2 0x4E70 DUP15 DUP3 DUP16 ADD PUSH2 0x4CD0 JUMP JUMPDEST SWAP12 POP POP PUSH1 0x20 DUP13 ADD CALLDATALOAD PUSH8 0xFFFFFFFFFFFFFFFF DUP2 GT ISZERO PUSH2 0x4E91 JUMPI PUSH2 0x4E90 PUSH2 0x4BB3 JUMP JUMPDEST JUMPDEST PUSH2 0x4E9D DUP15 DUP3 DUP16 ADD PUSH2 0x4CD0 JUMP JUMPDEST SWAP11 POP POP PUSH1 0x40 DUP13 ADD CALLDATALOAD PUSH8 0xFFFFFFFFFFFFFFFF DUP2 GT ISZERO PUSH2 0x4EBE JUMPI PUSH2 0x4EBD PUSH2 0x4BB3 JUMP JUMPDEST JUMPDEST PUSH2 0x4ECA DUP15 DUP3 DUP16 ADD PUSH2 0x4CD0 JUMP JUMPDEST SWAP10 POP POP PUSH1 0x60 DUP13 ADD CALLDATALOAD PUSH8 0xFFFFFFFFFFFFFFFF DUP2 GT ISZERO PUSH2 0x4EEB JUMPI PUSH2 0x4EEA PUSH2 0x4BB3 JUMP JUMPDEST JUMPDEST PUSH2 0x4EF7 DUP15 DUP3 DUP16 ADD PUSH2 0x4CD0 JUMP JUMPDEST SWAP9 POP POP PUSH1 0x80 DUP13 ADD CALLDATALOAD PUSH8 0xFFFFFFFFFFFFFFFF DUP2 GT ISZERO PUSH2 0x4F18 JUMPI PUSH2 0x4F17 PUSH2 0x4BB3 JUMP JUMPDEST JUMPDEST PUSH2 0x4F24 DUP15 DUP3 DUP16 ADD PUSH2 0x4CD0 JUMP JUMPDEST SWAP8 POP POP PUSH1 0xA0 DUP13 ADD CALLDATALOAD PUSH8 0xFFFFFFFFFFFFFFFF DUP2 GT ISZERO PUSH2 0x4F45 JUMPI PUSH2 0x4F44 PUSH2 0x4BB3 JUMP JUMPDEST JUMPDEST PUSH2 0x4F51 DUP15 DUP3 DUP16 ADD PUSH2 0x4CD0 JUMP JUMPDEST SWAP7 POP POP PUSH1 0xC0 DUP13 ADD CALLDATALOAD PUSH8 0xFFFFFFFFFFFFFFFF DUP2 GT ISZERO PUSH2 0x4F72 JUMPI PUSH2 0x4F71 PUSH2 0x4BB3 JUMP JUMPDEST JUMPDEST PUSH2 0x4F7E DUP15 DUP3 DUP16 ADD PUSH2 0x4CD0 JUMP JUMPDEST SWAP6 POP POP PUSH1 0xE0 DUP13 ADD CALLDATALOAD PUSH8 0xFFFFFFFFFFFFFFFF DUP2 GT ISZERO PUSH2 0x4F9F JUMPI PUSH2 0x4F9E PUSH2 0x4BB3 JUMP JUMPDEST JUMPDEST PUSH2 0x4FAB DUP15 DUP3 DUP16 ADD PUSH2 0x4CD0 JUMP JUMPDEST SWAP5 POP POP PUSH2 0x100 DUP13 ADD CALLDATALOAD PUSH8 0xFFFFFFFFFFFFFFFF DUP2 GT ISZERO PUSH2 0x4FCD JUMPI PUSH2 0x4FCC PUSH2 0x4BB3 JUMP JUMPDEST JUMPDEST PUSH2 0x4FD9 DUP15 DUP3 DUP16 ADD PUSH2 0x4CD0 JUMP JUMPDEST SWAP4 POP POP PUSH2 0x120 DUP13 ADD CALLDATALOAD PUSH8 0xFFFFFFFFFFFFFFFF DUP2 GT ISZERO PUSH2 0x4FFB JUMPI PUSH2 0x4FFA PUSH2 0x4BB3 JUMP JUMPDEST JUMPDEST PUSH2 0x5007 DUP15 DUP3 DUP16 ADD PUSH2 0x4CD0 JUMP JUMPDEST SWAP3 POP POP PUSH2 0x140 DUP13 ADD CALLDATALOAD PUSH8 0xFFFFFFFFFFFFFFFF DUP2 GT ISZERO PUSH2 0x5029 JUMPI PUSH2 0x5028 PUSH2 0x4BB3 JUMP JUMPDEST JUMPDEST PUSH2 0x5035 DUP15 DUP3 DUP16 ADD PUSH2 0x4D08 JUMP JUMPDEST SWAP2 POP POP SWAP3 SWAP6 SWAP9 SWAP12 POP SWAP3 SWAP6 SWAP9 SWAP12 SWAP1 SWAP4 SWAP7 SWAP10 POP JUMP JUMPDEST PUSH1 0x0 DUP2 MLOAD SWAP1 POP SWAP2 SWAP1 POP JUMP JUMPDEST PUSH1 0x0 DUP3 DUP3 MSTORE PUSH1 0x20 DUP3 ADD SWAP1 POP SWAP3 SWAP2 POP POP JUMP JUMPDEST PUSH1 0x0 DUP2 SWAP1 POP PUSH1 0x20 DUP3 ADD SWAP1 POP SWAP2 SWAP1 POP JUMP JUMPDEST PUSH1 0x0 DUP2 MLOAD SWAP1 POP SWAP2 SWAP1 POP JUMP JUMPDEST PUSH1 0x0 DUP3 DUP3 MSTORE PUSH1 0x20 DUP3 ADD SWAP1 POP SWAP3 SWAP2 POP POP JUMP JUMPDEST PUSH1 0x0 JUMPDEST DUP4 DUP2 LT ISZERO PUSH2 0x50AE JUMPI DUP1 DUP3 ADD MLOAD DUP2 DUP5 ADD MSTORE PUSH1 0x20 DUP2 ADD SWAP1 POP PUSH2 0x5093 JUMP JUMPDEST DUP4 DUP2 GT ISZERO PUSH2 0x50BD JUMPI PUSH1 0x0 DUP5 DUP5 ADD MSTORE JUMPDEST POP POP POP POP JUMP JUMPDEST PUSH1 0x0 PUSH2 0x50CE DUP3 PUSH2 0x5074 JUMP JUMPDEST PUSH2 0x50D8 DUP2 DUP6 PUSH2 0x507F JUMP JUMPDEST SWAP4 POP PUSH2 0x50E8 DUP2 DUP6 PUSH1 0x20 DUP7 ADD PUSH2 0x5090 JUMP JUMPDEST PUSH2 0x50F1 DUP2 PUSH2 0x4BC2 JUMP JUMPDEST DUP5 ADD SWAP2 POP POP SWAP3 SWAP2 POP POP JUMP JUMPDEST PUSH1 0x0 PUSH2 0x5108 DUP4 DUP4 PUSH2 0x50C3 JUMP JUMPDEST SWAP1 POP SWAP3 SWAP2 POP POP JUMP JUMPDEST PUSH1 0x0 PUSH1 0x20 DUP3 ADD SWAP1 POP SWAP2 SWAP1 POP JUMP JUMPDEST PUSH1 0x0 PUSH2 0x5128 DUP3 PUSH2 0x5048 JUMP JUMPDEST PUSH2 0x5132 DUP2 DUP6 PUSH2 0x5053 JUMP JUMPDEST SWAP4 POP DUP4 PUSH1 0x20 DUP3 MUL DUP6 ADD PUSH2 0x5144 DUP6 PUSH2 0x5064 JUMP JUMPDEST DUP1 PUSH1 0x0 JUMPDEST DUP6 DUP2 LT ISZERO PUSH2 0x5180 JUMPI DUP5 DUP5 SUB DUP10 MSTORE DUP2 MLOAD PUSH2 0x5161 DUP6 DUP3 PUSH2 0x50FC JUMP JUMPDEST SWAP5 POP PUSH2 0x516C DUP4 PUSH2 0x5110 JUMP JUMPDEST SWAP3 POP PUSH1 0x20 DUP11 ADD SWAP10 POP POP PUSH1 0x1 DUP2 ADD SWAP1 POP PUSH2 0x5148 JUMP JUMPDEST POP DUP3 SWAP8 POP DUP8 SWAP6 POP POP POP POP POP POP SWAP3 SWAP2 POP POP JUMP JUMPDEST PUSH1 0x0 PUSH1 0x20 DUP3 ADD SWAP1 POP DUP2 DUP2 SUB PUSH1 0x0 DUP4 ADD MSTORE PUSH2 0x51AC DUP2 DUP5 PUSH2 0x511D JUMP JUMPDEST SWAP1 POP SWAP3 SWAP2 POP POP JUMP JUMPDEST PUSH1 0x0 PUSH1 0x20 DUP3 DUP5 SUB SLT ISZERO PUSH2 0x51CA JUMPI PUSH2 0x51C9 PUSH2 0x4BAE JUMP JUMPDEST JUMPDEST PUSH1 0x0 DUP3 ADD CALLDATALOAD PUSH8 0xFFFFFFFFFFFFFFFF DUP2 GT ISZERO PUSH2 0x51E8 JUMPI PUSH2 0x51E7 PUSH2 0x4BB3 JUMP JUMPDEST JUMPDEST PUSH2 0x51F4 DUP5 DUP3 DUP6 ADD PUSH2 0x4CD0 JUMP JUMPDEST SWAP2 POP POP SWAP3 SWAP2 POP POP JUMP JUMPDEST PUSH1 0x0 DUP3 DUP3 MSTORE PUSH1 0x20 DUP3 ADD SWAP1 POP SWAP3 SWAP2 POP POP JUMP JUMPDEST PUSH1 0x0 PUSH2 0x5219 DUP3 PUSH2 0x5074 JUMP JUMPDEST PUSH2 0x5223 DUP2 DUP6 PUSH2 0x51FD JUMP JUMPDEST SWAP4 POP PUSH2 0x5233 DUP2 DUP6 PUSH1 0x20 DUP7 ADD PUSH2 0x5090 JUMP JUMPDEST PUSH2 0x523C DUP2 PUSH2 0x4BC2 JUMP JUMPDEST DUP5 ADD SWAP2 POP POP SWAP3 SWAP2 POP POP JUMP JUMPDEST PUSH1 0x0 PUSH1 0xA0 DUP4 ADD PUSH1 0x0 DUP4 ADD MLOAD DUP5 DUP3 SUB PUSH1 0x0 DUP7 ADD MSTORE PUSH2 0x5264 DUP3 DUP3 PUSH2 0x50C3 JUMP JUMPDEST SWAP2 POP POP PUSH1 0x20 DUP4 ADD MLOAD DUP5 DUP3 SUB PUSH1 0x20 DUP7 ADD MSTORE PUSH2 0x527E DUP3 DUP3 PUSH2 0x50C3 JUMP JUMPDEST SWAP2 POP POP PUSH1 0x40 DUP4 ADD MLOAD DUP5 DUP3 SUB PUSH1 0x40 DUP7 ADD MSTORE PUSH2 0x5298 DUP3 DUP3 PUSH2 0x50C3 JUMP JUMPDEST SWAP2 POP POP PUSH1 0x60 DUP4 ADD MLOAD DUP5 DUP3 SUB PUSH1 0x60 DUP7 ADD MSTORE PUSH2 0x52B2 DUP3 DUP3 PUSH2 0x50C3 JUMP JUMPDEST SWAP2 POP POP PUSH1 0x80 DUP4 ADD MLOAD DUP5 DUP3 SUB PUSH1 0x80 DUP7 ADD MSTORE PUSH2 0x52CC DUP3 DUP3 PUSH2 0x50C3 JUMP JUMPDEST SWAP2 POP POP DUP1 SWAP2 POP POP SWAP3 SWAP2 POP POP JUMP JUMPDEST PUSH1 0x0 PUSH2 0x160 DUP3 ADD SWAP1 POP DUP2 DUP2 SUB PUSH1 0x0 DUP4 ADD MSTORE PUSH2 0x52F4 DUP2 DUP15 PUSH2 0x520E JUMP JUMPDEST SWAP1 POP DUP2 DUP2 SUB PUSH1 0x20 DUP4 ADD MSTORE PUSH2 0x5308 DUP2 DUP14 PUSH2 0x520E JUMP JUMPDEST SWAP1 POP DUP2 DUP2 SUB PUSH1 0x40 DUP4 ADD MSTORE PUSH2 0x531C DUP2 DUP13 PUSH2 0x520E JUMP JUMPDEST SWAP1 POP DUP2 DUP2 SUB PUSH1 0x60 DUP4 ADD MSTORE PUSH2 0x5330 DUP2 DUP12 PUSH2 0x520E JUMP JUMPDEST SWAP1 POP DUP2 DUP2 SUB PUSH1 0x80 DUP4 ADD MSTORE PUSH2 0x5344 DUP2 DUP11 PUSH2 0x520E JUMP JUMPDEST SWAP1 POP DUP2 DUP2 SUB PUSH1 0xA0 DUP4 ADD MSTORE PUSH2 0x5358 DUP2 DUP10 PUSH2 0x520E JUMP JUMPDEST SWAP1 POP DUP2 DUP2 SUB PUSH1 0xC0 DUP4 ADD MSTORE PUSH2 0x536C DUP2 DUP9 PUSH2 0x520E JUMP JUMPDEST SWAP1 POP DUP2 DUP2 SUB PUSH1 0xE0 DUP4 ADD MSTORE PUSH2 0x5380 DUP2 DUP8 PUSH2 0x520E JUMP JUMPDEST SWAP1 POP DUP2 DUP2 SUB PUSH2 0x100 DUP4 ADD MSTORE PUSH2 0x5395 DUP2 DUP7 PUSH2 0x520E JUMP JUMPDEST SWAP1 POP DUP2 DUP2 SUB PUSH2 0x120 DUP4 ADD MSTORE PUSH2 0x53AA DUP2 DUP6 PUSH2 0x520E JUMP JUMPDEST SWAP1 POP DUP2 DUP2 SUB PUSH2 0x140 DUP4 ADD MSTORE PUSH2 0x53BF DUP2 DUP5 PUSH2 0x5247 JUMP JUMPDEST SWAP1 POP SWAP13 SWAP12 POP POP POP POP POP POP POP POP POP POP POP POP JUMP JUMPDEST PUSH1 0x0 PUSH1 0xA0 DUP4 ADD PUSH1 0x0 DUP4 ADD MLOAD DUP5 DUP3 SUB PUSH1 0x0 DUP7 ADD MSTORE PUSH2 0x53EE DUP3 DUP3 PUSH2 0x50C3 JUMP JUMPDEST SWAP2 POP POP PUSH1 0x20 DUP4 ADD MLOAD DUP5 DUP3 SUB PUSH1 0x20 DUP7 ADD MSTORE PUSH2 0x5408 DUP3 DUP3 PUSH2 0x50C3 JUMP JUMPDEST SWAP2 POP POP PUSH1 0x40 DUP4 ADD MLOAD DUP5 DUP3 SUB PUSH1 0x40 DUP7 ADD MSTORE PUSH2 0x5422 DUP3 DUP3 PUSH2 0x50C3 JUMP JUMPDEST SWAP2 POP POP PUSH1 0x60 DUP4 ADD MLOAD DUP5 DUP3 SUB PUSH1 0x60 DUP7 ADD MSTORE PUSH2 0x543C DUP3 DUP3 PUSH2 0x50C3 JUMP JUMPDEST SWAP2 POP POP PUSH1 0x80 DUP4 ADD MLOAD DUP5 DUP3 SUB PUSH1 0x80 DUP7 ADD MSTORE PUSH2 0x5456 DUP3 DUP3 PUSH2 0x50C3 JUMP JUMPDEST SWAP2 POP POP DUP1 SWAP2 POP POP SWAP3 SWAP2 POP POP JUMP JUMPDEST PUSH1 0x0 PUSH2 0x160 DUP4 ADD PUSH1 0x0 DUP4 ADD MLOAD DUP5 DUP3 SUB PUSH1 0x0 DUP7 ADD MSTORE PUSH2 0x5481 DUP3 DUP3 PUSH2 0x50C3 JUMP JUMPDEST SWAP2 POP POP PUSH1 0x20 DUP4 ADD MLOAD DUP5 DUP3 SUB PUSH1 0x20 DUP7 ADD MSTORE PUSH2 0x549B DUP3 DUP3 PUSH2 0x50C3 JUMP JUMPDEST SWAP2 POP POP PUSH1 0x40 DUP4 ADD MLOAD DUP5 DUP3 SUB PUSH1 0x40 DUP7 ADD MSTORE PUSH2 0x54B5 DUP3 DUP3 PUSH2 0x50C3 JUMP JUMPDEST SWAP2 POP POP PUSH1 0x60 DUP4 ADD MLOAD DUP5 DUP3 SUB PUSH1 0x60 DUP7 ADD MSTORE PUSH2 0x54CF DUP3 DUP3 PUSH2 0x50C3 JUMP JUMPDEST SWAP2 POP POP PUSH1 0x80 DUP4 ADD MLOAD DUP5 DUP3 SUB PUSH1 0x80 DUP7 ADD MSTORE PUSH2 0x54E9 DUP3 DUP3 PUSH2 0x50C3 JUMP JUMPDEST SWAP2 POP POP PUSH1 0xA0 DUP4 ADD MLOAD DUP5 DUP3 SUB PUSH1 0xA0 DUP7 ADD MSTORE PUSH2 0x5503 DUP3 DUP3 PUSH2 0x50C3 JUMP JUMPDEST SWAP2 POP POP PUSH1 0xC0 DUP4 ADD MLOAD DUP5 DUP3 SUB PUSH1 0xC0 DUP7 ADD MSTORE PUSH2 0x551D DUP3 DUP3 PUSH2 0x50C3 JUMP JUMPDEST SWAP2 POP POP PUSH1 0xE0 DUP4 ADD MLOAD DUP5 DUP3 SUB PUSH1 0xE0 DUP7 ADD MSTORE PUSH2 0x5537 DUP3 DUP3 PUSH2 0x50C3 JUMP JUMPDEST SWAP2 POP POP PUSH2 0x100 DUP4 ADD MLOAD DUP5 DUP3 SUB PUSH2 0x100 DUP7 ADD MSTORE PUSH2 0x5553 DUP3 DUP3 PUSH2 0x50C3 JUMP JUMPDEST SWAP2 POP POP PUSH2 0x120 DUP4 ADD MLOAD DUP5 DUP3 SUB PUSH2 0x120 DUP7 ADD MSTORE PUSH2 0x556F DUP3 DUP3 PUSH2 0x50C3 JUMP JUMPDEST SWAP2 POP POP PUSH2 0x140 DUP4 ADD MLOAD DUP5 DUP3 SUB PUSH2 0x140 DUP7 ADD MSTORE PUSH2 0x558B DUP3 DUP3 PUSH2 0x53D1 JUMP JUMPDEST SWAP2 POP POP DUP1 SWAP2 POP POP SWAP3 SWAP2 POP POP JUMP JUMPDEST PUSH1 0x0 PUSH1 0x20 DUP3 ADD SWAP1 POP DUP2 DUP2 SUB PUSH1 0x0 DUP4 ADD MSTORE PUSH2 0x55B2 DUP2 DUP5 PUSH2 0x5463 JUMP JUMPDEST SWAP1 POP SWAP3 SWAP2 POP POP JUMP JUMPDEST PUSH1 0x0 DUP1 PUSH1 0x40 DUP4 DUP6 SUB SLT ISZERO PUSH2 0x55D1 JUMPI PUSH2 0x55D0 PUSH2 0x4BAE JUMP JUMPDEST JUMPDEST PUSH1 0x0 DUP4 ADD CALLDATALOAD PUSH8 0xFFFFFFFFFFFFFFFF DUP2 GT ISZERO PUSH2 0x55EF JUMPI PUSH2 0x55EE PUSH2 0x4BB3 JUMP JUMPDEST JUMPDEST PUSH2 0x55FB DUP6 DUP3 DUP7 ADD PUSH2 0x4CD0 JUMP JUMPDEST SWAP3 POP POP PUSH1 0x20 DUP4 ADD CALLDATALOAD PUSH8 0xFFFFFFFFFFFFFFFF DUP2 GT ISZERO PUSH2 0x561C JUMPI PUSH2 0x561B PUSH2 0x4BB3 JUMP JUMPDEST JUMPDEST PUSH2 0x5628 DUP6 DUP3 DUP7 ADD PUSH2 0x4CD0 JUMP JUMPDEST SWAP2 POP POP SWAP3 POP SWAP3 SWAP1 POP JUMP JUMPDEST PUSH1 0x0 DUP2 SWAP1 POP SWAP2 SWAP1 POP JUMP JUMPDEST PUSH2 0x5645 DUP2 PUSH2 0x5632 JUMP JUMPDEST DUP2 EQ PUSH2 0x5650 JUMPI PUSH1 0x0 DUP1 REVERT JUMPDEST POP JUMP JUMPDEST PUSH1 0x0 DUP2 CALLDATALOAD SWAP1 POP PUSH2 0x5662 DUP2 PUSH2 0x563C JUMP JUMPDEST SWAP3 SWAP2 POP POP JUMP JUMPDEST PUSH1 0x0 PUSH1 0x20 DUP3 DUP5 SUB SLT ISZERO PUSH2 0x567E JUMPI PUSH2 0x567D PUSH2 0x4BAE JUMP JUMPDEST JUMPDEST PUSH1 0x0 PUSH2 0x568C DUP5 DUP3 DUP6 ADD PUSH2 0x5653 JUMP JUMPDEST SWAP2 POP POP SWAP3 SWAP2 POP POP JUMP JUMPDEST PUSH1 0x0 PUSH1 0x20 DUP3 ADD SWAP1 POP DUP2 DUP2 SUB PUSH1 0x0 DUP4 ADD MSTORE PUSH2 0x56AF DUP2 DUP5 PUSH2 0x520E JUMP JUMPDEST SWAP1 POP SWAP3 SWAP2 POP POP JUMP JUMPDEST PUSH1 0x0 PUSH1 0x80 DUP3 ADD SWAP1 POP DUP2 DUP2 SUB PUSH1 0x0 DUP4 ADD MSTORE PUSH2 0x56D1 DUP2 DUP8 PUSH2 0x520E JUMP JUMPDEST SWAP1 POP DUP2 DUP2 SUB PUSH1 0x20 DUP4 ADD MSTORE PUSH2 0x56E5 DUP2 DUP7 PUSH2 0x520E JUMP JUMPDEST SWAP1 POP DUP2 DUP2 SUB PUSH1 0x40 DUP4 ADD MSTORE PUSH2 0x56F9 DUP2 DUP6 PUSH2 0x520E JUMP JUMPDEST SWAP1 POP DUP2 DUP2 SUB PUSH1 0x60 DUP4 ADD MSTORE PUSH2 0x570D DUP2 DUP5 PUSH2 0x520E JUMP JUMPDEST SWAP1 POP SWAP6 SWAP5 POP POP POP POP POP JUMP JUMPDEST PUSH2 0x5721 DUP2 PUSH2 0x5632 JUMP JUMPDEST DUP3 MSTORE POP POP JUMP JUMPDEST PUSH1 0x0 PUSH1 0x20 DUP3 ADD SWAP1 POP PUSH2 0x573C PUSH1 0x0 DUP4 ADD DUP5 PUSH2 0x5718 JUMP JUMPDEST SWAP3 SWAP2 POP POP JUMP JUMPDEST PUSH1 0x0 DUP1 PUSH1 0x0 DUP1 PUSH1 0x80 DUP6 DUP8 SUB SLT ISZERO PUSH2 0x575C JUMPI PUSH2 0x575B PUSH2 0x4BAE JUMP JUMPDEST JUMPDEST PUSH1 0x0 DUP6 ADD CALLDATALOAD PUSH8 0xFFFFFFFFFFFFFFFF DUP2 GT ISZERO PUSH2 0x577A JUMPI PUSH2 0x5779 PUSH2 0x4BB3 JUMP JUMPDEST JUMPDEST PUSH2 0x5786 DUP8 DUP3 DUP9 ADD PUSH2 0x4CD0 JUMP JUMPDEST SWAP5 POP POP PUSH1 0x20 DUP6 ADD CALLDATALOAD PUSH8 0xFFFFFFFFFFFFFFFF DUP2 GT ISZERO PUSH2 0x57A7 JUMPI PUSH2 0x57A6 PUSH2 0x4BB3 JUMP JUMPDEST JUMPDEST PUSH2 0x57B3 DUP8 DUP3 DUP9 ADD PUSH2 0x4CD0 JUMP JUMPDEST SWAP4 POP POP PUSH1 0x40 DUP6 ADD CALLDATALOAD PUSH8 0xFFFFFFFFFFFFFFFF DUP2 GT ISZERO PUSH2 0x57D4 JUMPI PUSH2 0x57D3 PUSH2 0x4BB3 JUMP JUMPDEST JUMPDEST PUSH2 0x57E0 DUP8 DUP3 DUP9 ADD PUSH2 0x4CD0 JUMP JUMPDEST SWAP3 POP POP PUSH1 0x60 DUP6 ADD CALLDATALOAD PUSH8 0xFFFFFFFFFFFFFFFF DUP2 GT ISZERO PUSH2 0x5801 JUMPI PUSH2 0x5800 PUSH2 0x4BB3 JUMP JUMPDEST JUMPDEST PUSH2 0x580D DUP8 DUP3 DUP9 ADD PUSH2 0x4CD0 JUMP JUMPDEST SWAP2 POP POP SWAP3 SWAP6 SWAP2 SWAP5 POP SWAP3 POP JUMP JUMPDEST PUSH1 0x0 PUSH1 0x40 DUP3 ADD SWAP1 POP DUP2 DUP2 SUB PUSH1 0x0 DUP4 ADD MSTORE PUSH2 0x5833 DUP2 DUP6 PUSH2 0x520E JUMP JUMPDEST SWAP1 POP DUP2 DUP2 SUB PUSH1 0x20 DUP4 ADD MSTORE PUSH2 0x5847 DUP2 DUP5 PUSH2 0x520E JUMP JUMPDEST SWAP1 POP SWAP4 SWAP3 POP POP POP JUMP JUMPDEST PUSH32 0x596F752063616E20757365207468697320636F6E747261637400000000000000 PUSH1 0x0 DUP3 ADD MSTORE POP JUMP JUMPDEST PUSH1 0x0 PUSH2 0x5886 PUSH1 0x19 DUP4 PUSH2 0x51FD JUMP JUMPDEST SWAP2 POP PUSH2 0x5891 DUP3 PUSH2 0x5850 JUMP JUMPDEST PUSH1 0x20 DUP3 ADD SWAP1 POP SWAP2 SWAP1 POP JUMP JUMPDEST PUSH1 0x0 PUSH1 0x20 DUP3 ADD SWAP1 POP DUP2 DUP2 SUB PUSH1 0x0 DUP4 ADD MSTORE PUSH2 0x58B5 DUP2 PUSH2 0x5879 JUMP JUMPDEST SWAP1 POP SWAP2 SWAP1 POP JUMP JUMPDEST PUSH32 0x4E487B7100000000000000000000000000000000000000000000000000000000 PUSH1 0x0 MSTORE PUSH1 0x22 PUSH1 0x4 MSTORE PUSH1 0x24 PUSH1 0x0 REVERT JUMPDEST PUSH1 0x0 PUSH1 0x2 DUP3 DIV SWAP1 POP PUSH1 0x1 DUP3 AND DUP1 PUSH2 0x5903 JUMPI PUSH1 0x7F DUP3 AND SWAP2 POP JUMPDEST PUSH1 0x20 DUP3 LT DUP2 SUB PUSH2 0x5916 JUMPI PUSH2 0x5915 PUSH2 0x58BC JUMP JUMPDEST JUMPDEST POP SWAP2 SWAP1 POP JUMP JUMPDEST PUSH1 0x0 DUP2 SWAP1 POP SWAP3 SWAP2 POP POP JUMP JUMPDEST POP JUMP JUMPDEST PUSH1 0x0 PUSH2 0x5937 PUSH1 0x0 DUP4 PUSH2 0x591C JUMP JUMPDEST SWAP2 POP PUSH2 0x5942 DUP3 PUSH2 0x5927 JUMP JUMPDEST PUSH1 0x0 DUP3 ADD SWAP1 POP SWAP2 SWAP1 POP JUMP JUMPDEST PUSH1 0x0 PUSH2 0x5958 DUP3 PUSH2 0x592A JUMP JUMPDEST SWAP2 POP DUP2 SWAP1 POP SWAP2 SWAP1 POP JUMP JUMPDEST PUSH1 0x0 PUSH2 0x596D DUP3 PUSH2 0x5074 JUMP JUMPDEST PUSH2 0x5977 DUP2 DUP6 PUSH2 0x591C JUMP JUMPDEST SWAP4 POP PUSH2 0x5987 DUP2 DUP6 PUSH1 0x20 DUP7 ADD PUSH2 0x5090 JUMP JUMPDEST DUP1 DUP5 ADD SWAP2 POP POP SWAP3 SWAP2 POP POP JUMP JUMPDEST PUSH1 0x0 PUSH2 0x599F DUP3 DUP5 PUSH2 0x5962 JUMP JUMPDEST SWAP2 POP DUP2 SWAP1 POP SWAP3 SWAP2 POP POP JUMP JUMPDEST PUSH1 0x0 DUP2 SWAP1 POP DUP2 PUSH1 0x0 MSTORE PUSH1 0x20 PUSH1 0x0 KECCAK256 SWAP1 POP SWAP2 SWAP1 POP JUMP JUMPDEST PUSH1 0x0 DUP2 SLOAD PUSH2 0x59CC DUP2 PUSH2 0x58EB JUMP JUMPDEST PUSH2 0x59D6 DUP2 DUP7 PUSH2 0x591C JUMP JUMPDEST SWAP5 POP PUSH1 0x1 DUP3 AND PUSH1 0x0 DUP2 EQ PUSH2 0x59F1 JUMPI PUSH1 0x1 DUP2 EQ PUSH2 0x5A02 JUMPI PUSH2 0x5A35 JUMP JUMPDEST PUSH1 0xFF NOT DUP4 AND DUP7 MSTORE DUP2 DUP7 ADD SWAP4 POP PUSH2 0x5A35 JUMP JUMPDEST PUSH2 0x5A0B DUP6 PUSH2 0x59AA JUMP JUMPDEST PUSH1 0x0 JUMPDEST DUP4 DUP2 LT ISZERO PUSH2 0x5A2D JUMPI DUP2 SLOAD DUP2 DUP10 ADD MSTORE PUSH1 0x1 DUP3 ADD SWAP2 POP PUSH1 0x20 DUP2 ADD SWAP1 POP PUSH2 0x5A0E JUMP JUMPDEST DUP4 DUP9 ADD SWAP6 POP POP POP JUMPDEST POP POP POP SWAP3 SWAP2 POP POP JUMP JUMPDEST PUSH1 0x0 PUSH2 0x5A4A DUP3 DUP5 PUSH2 0x59BF JUMP JUMPDEST SWAP2 POP DUP2 SWAP1 POP SWAP3 SWAP2 POP POP JUMP JUMPDEST PUSH32 0x74686973206D656D62657220697320616C726561647920657869737420696E20 PUSH1 0x0 DUP3 ADD MSTORE PUSH32 0x6368616E67650000000000000000000000000000000000000000000000000000 PUSH1 0x20 DUP3 ADD MSTORE POP JUMP JUMPDEST PUSH1 0x0 PUSH2 0x5AB1 PUSH1 0x26 DUP4 PUSH2 0x51FD JUMP JUMPDEST SWAP2 POP PUSH2 0x5ABC DUP3 PUSH2 0x5A55 JUMP JUMPDEST PUSH1 0x40 DUP3 ADD SWAP1 POP SWAP2 SWAP1 POP JUMP JUMPDEST PUSH1 0x0 PUSH1 0x20 DUP3 ADD SWAP1 POP DUP2 DUP2 SUB PUSH1 0x0 DUP4 ADD MSTORE PUSH2 0x5AE0 DUP2 PUSH2 0x5AA4 JUMP JUMPDEST SWAP1 POP SWAP2 SWAP1 POP JUMP JUMPDEST PUSH32 0x74686973206E616D6520697320616C726561647920657869737420696E206368 PUSH1 0x0 DUP3 ADD MSTORE PUSH32 0x616E676500000000000000000000000000000000000000000000000000000000 PUSH1 0x20 DUP3 ADD MSTORE POP JUMP JUMPDEST PUSH1 0x0 PUSH2 0x5B43 PUSH1 0x24 DUP4 PUSH2 0x51FD JUMP JUMPDEST SWAP2 POP PUSH2 0x5B4E DUP3 PUSH2 0x5AE7 JUMP JUMPDEST PUSH1 0x40 DUP3 ADD SWAP1 POP SWAP2 SWAP1 POP JUMP JUMPDEST PUSH1 0x0 PUSH1 0x20 DUP3 ADD SWAP1 POP DUP2 DUP2 SUB PUSH1 0x0 DUP4 ADD MSTORE PUSH2 0x5B72 DUP2 PUSH2 0x5B36 JUMP JUMPDEST SWAP1 POP SWAP2 SWAP1 POP JUMP JUMPDEST PUSH32 0x4E487B7100000000000000000000000000000000000000000000000000000000 PUSH1 0x0 MSTORE PUSH1 0x32 PUSH1 0x4 MSTORE PUSH1 0x24 PUSH1 0x0 REVERT JUMPDEST PUSH32 0x4E487B7100000000000000000000000000000000000000000000000000000000 PUSH1 0x0 MSTORE PUSH1 0x11 PUSH1 0x4 MSTORE PUSH1 0x24 PUSH1 0x0 REVERT JUMPDEST PUSH1 0x0 PUSH2 0x5BE2 DUP3 PUSH2 0x5632 JUMP JUMPDEST SWAP2 POP PUSH2 0x5BED DUP4 PUSH2 0x5632 JUMP JUMPDEST SWAP3 POP DUP3 DUP3 LT ISZERO PUSH2 0x5C00 JUMPI PUSH2 0x5BFF PUSH2 0x5BA8 JUMP JUMPDEST JUMPDEST DUP3 DUP3 SUB SWAP1 POP SWAP3 SWAP2 POP POP JUMP JUMPDEST PUSH32 0x4E487B7100000000000000000000000000000000000000000000000000000000 PUSH1 0x0 MSTORE PUSH1 0x31 PUSH1 0x4 MSTORE PUSH1 0x24 PUSH1 0x0 REVERT JUMPDEST PUSH1 0x0 PUSH2 0x5C45 DUP3 PUSH2 0x5632 JUMP JUMPDEST SWAP2 POP PUSH2 0x5C50 DUP4 PUSH2 0x5632 JUMP JUMPDEST SWAP3 POP DUP3 PUSH32 0xFFFFFFFFFFFFFFFFFFFFFFFFFFFFFFFFFFFFFFFFFFFFFFFFFFFFFFFFFFFFFFFF SUB DUP3 GT ISZERO PUSH2 0x5C85 JUMPI PUSH2 0x5C84 PUSH2 0x5BA8 JUMP JUMPDEST JUMPDEST DUP3 DUP3 ADD SWAP1 POP SWAP3 SWAP2 POP POP JUMP JUMPDEST PUSH1 0x0 PUSH2 0x5C9B DUP3 PUSH2 0x5632 JUMP JUMPDEST SWAP2 POP PUSH32 0xFFFFFFFFFFFFFFFFFFFFFFFFFFFFFFFFFFFFFFFFFFFFFFFFFFFFFFFFFFFFFFFF DUP3 SUB PUSH2 0x5CCD JUMPI PUSH2 0x5CCC PUSH2 0x5BA8 JUMP JUMPDEST JUMPDEST PUSH1 0x1 DUP3 ADD SWAP1 POP SWAP2 SWAP1 POP JUMP JUMPDEST PUSH32 0x74686973206D616E6167657220697320616C7265616479206578697374000000 PUSH1 0x0 DUP3 ADD MSTORE POP JUMP JUMPDEST PUSH1 0x0 PUSH2 0x5D0E PUSH1 0x1D DUP4 PUSH2 0x51FD JUMP JUMPDEST SWAP2 POP PUSH2 0x5D19 DUP3 PUSH2 0x5CD8 JUMP JUMPDEST PUSH1 0x20 DUP3 ADD SWAP1 POP SWAP2 SWAP1 POP JUMP JUMPDEST PUSH1 0x0 PUSH1 0x20 DUP3 ADD SWAP1 POP DUP2 DUP2 SUB PUSH1 0x0 DUP4 ADD MSTORE PUSH2 0x5D3D DUP2 PUSH2 0x5D01 JUMP JUMPDEST SWAP1 POP SWAP2 SWAP1 POP JUMP JUMPDEST PUSH32 0x74686973206D656D62657220697320616C726561647920657869737420696E20 PUSH1 0x0 DUP3 ADD MSTORE PUSH32 0x6164640000000000000000000000000000000000000000000000000000000000 PUSH1 0x20 DUP3 ADD MSTORE POP JUMP JUMPDEST PUSH1 0x0 PUSH2 0x5DA0 PUSH1 0x23 DUP4 PUSH2 0x51FD JUMP JUMPDEST SWAP2 POP PUSH2 0x5DAB DUP3 PUSH2 0x5D44 JUMP JUMPDEST PUSH1 0x40 DUP3 ADD SWAP1 POP SWAP2 SWAP1 POP JUMP JUMPDEST PUSH1 0x0 PUSH1 0x20 DUP3 ADD SWAP1 POP DUP2 DUP2 SUB PUSH1 0x0 DUP4 ADD MSTORE PUSH2 0x5DCF DUP2 PUSH2 0x5D93 JUMP JUMPDEST SWAP1 POP SWAP2 SWAP1 POP JUMP JUMPDEST PUSH32 0x74686973206E616D6520697320616C726561647920657869737420696E206164 PUSH1 0x0 DUP3 ADD MSTORE PUSH32 0x6400000000000000000000000000000000000000000000000000000000000000 PUSH1 0x20 DUP3 ADD MSTORE POP JUMP JUMPDEST PUSH1 0x0 PUSH2 0x5E32 PUSH1 0x21 DUP4 PUSH2 0x51FD JUMP JUMPDEST SWAP2 POP PUSH2 0x5E3D DUP3 PUSH2 0x5DD6 JUMP JUMPDEST PUSH1 0x40 DUP3 ADD SWAP1 POP SWAP2 SWAP1 POP JUMP JUMPDEST PUSH1 0x0 PUSH1 0x20 DUP3 ADD SWAP1 POP DUP2 DUP2 SUB PUSH1 0x0 DUP4 ADD MSTORE PUSH2 0x5E61 DUP2 PUSH2 0x5E25 JUMP JUMPDEST SWAP1 POP SWAP2 SWAP1 POP JUMP INVALID LOG2 PUSH5 0x6970667358 0x22 SLT KECCAK256 0xC8 DUP10 0xC5 PUSH11 0xC394DF62E023C18F8D22E8 PUSH19 0x15F28917B9E934C78D4E6E4AD3717D7E64736F PUSH13 0x634300080E0033000000000000 "
		},
		"gasEstimates": {
			"creation": {
				"codeDepositCost": "4844400",
				"executionCost": "29978",
				"totalCost": "4874378"
			},
			"external": {
				"Emp(string)": "infinite",
				"addEmp(string,string,string,string,string,string,string,string,string,string,(string,string,string,string,string))": "infinite",
				"addis(string,string,string,string)": "infinite",
				"changeEmp(string,string,string,string,string,string,string,string,string,string,(string,string,string,string,string))": "infinite",
				"changeSalStatus(string,string)": "infinite",
				"changeStatus(string,string)": "infinite",
				"delEmp(string)": "infinite",
				"delMag(string)": "infinite",
				"deldis(string)": "infinite",
				"dis(string)": "infinite",
				"forName(string)": "infinite",
				"getDisKeys()": "infinite",
				"getKeys()": "infinite",
				"getMag(string)": "infinite",
				"hetstore()": "2548",
				"interview(string)": "infinite",
				"mag(string)": "infinite",
				"prEno()": "infinite",
				"queryEmp(string)": "infinite",
				"setMag(string,string)": "infinite",
				"store(uint256)": "22587"
			}
		},
		"methodIdentifiers": {
			"Emp(string)": "7b5a1be2",
			"addEmp(string,string,string,string,string,string,string,string,string,string,(string,string,string,string,string))": "fd2e5e61",
			"addis(string,string,string,string)": "aeac0bb1",
			"changeEmp(string,string,string,string,string,string,string,string,string,string,(string,string,string,string,string))": "192ff1ca",
			"changeSalStatus(string,string)": "dc3f11d9",
			"changeStatus(string,string)": "60160b2f",
			"delEmp(string)": "7ba8e3d2",
			"delMag(string)": "2fed5620",
			"deldis(string)": "7f1d1006",
			"dis(string)": "66773ee3",
			"forName(string)": "2ca80a61",
			"getDisKeys()": "3d7e8e2f",
			"getKeys()": "2150c518",
			"getMag(string)": "73a8bb3b",
			"hetstore()": "98649088",
			"interview(string)": "db9f0b57",
			"mag(string)": "cf65daea",
			"prEno()": "63ce15bb",
			"queryEmp(string)": "5f102c42",
			"setMag(string,string)": "a526eece",
			"store(uint256)": "6057361d"
		}
	},
	"abi": [
		{
			"inputs": [],
			"stateMutability": "nonpayable",
			"type": "constructor"
		},
		{
			"inputs": [
				{
					"internalType": "string",
					"name": "",
					"type": "string"
				}
			],
			"name": "Emp",
			"outputs": [
				{
					"internalType": "string",
					"name": "eno",
					"type": "string"
				},
				{
					"internalType": "string",
					"name": "name",
					"type": "string"
				},
				{
					"internalType": "string",
					"name": "sex",
					"type": "string"
				},
				{
					"internalType": "string",
					"name": "age",
					"type": "string"
				},
				{
					"internalType": "string",
					"name": "country",
					"type": "string"
				},
				{
					"internalType": "string",
					"name": "position",
					"type": "string"
				},
				{
					"internalType": "string",
					"name": "code",
					"type": "string"
				},
				{
					"internalType": "string",
					"name": "major",
					"type": "string"
				},
				{
					"internalType": "string",
					"name": "time",
					"type": "string"
				},
				{
					"internalType": "string",
					"name": "phone",
					"type": "string"
				},
				{
					"components": [
						{
							"internalType": "string",
							"name": "status",
							"type": "string"
						},
						{
							"internalType": "string",
							"name": "edu",
							"type": "string"
						},
						{
							"internalType": "string",
							"name": "beginTime",
							"type": "string"
						},
						{
							"internalType": "string",
							"name": "endTime",
							"type": "string"
						},
						{
							"internalType": "string",
							"name": "school",
							"type": "string"
						}
					],
					"internalType": "struct manageDB.empStructF",
					"name": "ff",
					"type": "tuple"
				}
			],
			"stateMutability": "view",
			"type": "function"
		},
		{
			"inputs": [
				{
					"internalType": "string",
					"name": "_eno",
					"type": "string"
				},
				{
					"internalType": "string",
					"name": "_name",
					"type": "string"
				},
				{
					"internalType": "string",
					"name": "_sex",
					"type": "string"
				},
				{
					"internalType": "string",
					"name": "_age",
					"type": "string"
				},
				{
					"internalType": "string",
					"name": "_country",
					"type": "string"
				},
				{
					"internalType": "string",
					"name": "_position",
					"type": "string"
				},
				{
					"internalType": "string",
					"name": "_code",
					"type": "string"
				},
				{
					"internalType": "string",
					"name": "_major",
					"type": "string"
				},
				{
					"internalType": "string",
					"name": "_time",
					"type": "string"
				},
				{
					"internalType": "string",
					"name": "_phone",
					"type": "string"
				},
				{
					"components": [
						{
							"internalType": "string",
							"name": "status",
							"type": "string"
						},
						{
							"internalType": "string",
							"name": "edu",
							"type": "string"
						},
						{
							"internalType": "string",
							"name": "beginTime",
							"type": "string"
						},
						{
							"internalType": "string",
							"name": "endTime",
							"type": "string"
						},
						{
							"internalType": "string",
							"name": "school",
							"type": "string"
						}
					],
					"internalType": "struct manageDB.empStructF",
					"name": "stf",
					"type": "tuple"
				}
			],
			"name": "addEmp",
			"outputs": [],
			"stateMutability": "nonpayable",
			"type": "function"
		},
		{
			"inputs": [
				{
					"internalType": "string",
					"name": "_deno",
					"type": "string"
				},
				{
					"internalType": "string",
					"name": "_dname",
					"type": "string"
				},
				{
					"internalType": "string",
					"name": "_dtime",
					"type": "string"
				},
				{
					"internalType": "string",
					"name": "_sal_status",
					"type": "string"
				}
			],
			"name": "addis",
			"outputs": [],
			"stateMutability": "nonpayable",
			"type": "function"
		},
		{
			"inputs": [
				{
					"internalType": "string",
					"name": "_eno",
					"type": "string"
				},
				{
					"internalType": "string",
					"name": "_name",
					"type": "string"
				},
				{
					"internalType": "string",
					"name": "_sex",
					"type": "string"
				},
				{
					"internalType": "string",
					"name": "_age",
					"type": "string"
				},
				{
					"internalType": "string",
					"name": "_country",
					"type": "string"
				},
				{
					"internalType": "string",
					"name": "_position",
					"type": "string"
				},
				{
					"internalType": "string",
					"name": "_code",
					"type": "string"
				},
				{
					"internalType": "string",
					"name": "_major",
					"type": "string"
				},
				{
					"internalType": "string",
					"name": "_time",
					"type": "string"
				},
				{
					"internalType": "string",
					"name": "_phone",
					"type": "string"
				},
				{
					"components": [
						{
							"internalType": "string",
							"name": "status",
							"type": "string"
						},
						{
							"internalType": "string",
							"name": "edu",
							"type": "string"
						},
						{
							"internalType": "string",
							"name": "beginTime",
							"type": "string"
						},
						{
							"internalType": "string",
							"name": "endTime",
							"type": "string"
						},
						{
							"internalType": "string",
							"name": "school",
							"type": "string"
						}
					],
					"internalType": "struct manageDB.empStructF",
					"name": "stf",
					"type": "tuple"
				}
			],
			"name": "changeEmp",
			"outputs": [],
			"stateMutability": "nonpayable",
			"type": "function"
		},
		{
			"inputs": [
				{
					"internalType": "string",
					"name": "_eno",
					"type": "string"
				},
				{
					"internalType": "string",
					"name": "_status",
					"type": "string"
				}
			],
			"name": "changeSalStatus",
			"outputs": [],
			"stateMutability": "nonpayable",
			"type": "function"
		},
		{
			"inputs": [
				{
					"internalType": "string",
					"name": "_eno",
					"type": "string"
				},
				{
					"internalType": "string",
					"name": "_status",
					"type": "string"
				}
			],
			"name": "changeStatus",
			"outputs": [],
			"stateMutability": "nonpayable",
			"type": "function"
		},
		{
			"inputs": [
				{
					"internalType": "string",
					"name": "_eno",
					"type": "string"
				}
			],
			"name": "delEmp",
			"outputs": [],
			"stateMutability": "nonpayable",
			"type": "function"
		},
		{
			"inputs": [
				{
					"internalType": "string",
					"name": "_Aname",
					"type": "string"
				}
			],
			"name": "delMag",
			"outputs": [],
			"stateMutability": "nonpayable",
			"type": "function"
		},
		{
			"inputs": [
				{
					"internalType": "string",
					"name": "_deno",
					"type": "string"
				}
			],
			"name": "deldis",
			"outputs": [],
			"stateMutability": "nonpayable",
			"type": "function"
		},
		{
			"inputs": [
				{
					"internalType": "string",
					"name": "",
					"type": "string"
				}
			],
			"name": "dis",
			"outputs": [
				{
					"internalType": "string",
					"name": "deno",
					"type": "string"
				},
				{
					"internalType": "string",
					"name": "dname",
					"type": "string"
				},
				{
					"internalType": "string",
					"name": "dtime",
					"type": "string"
				},
				{
					"internalType": "string",
					"name": "sal_status",
					"type": "string"
				}
			],
			"stateMutability": "view",
			"type": "function"
		},
		{
			"inputs": [
				{
					"internalType": "string",
					"name": "",
					"type": "string"
				}
			],
			"name": "forName",
			"outputs": [
				{
					"internalType": "string",
					"name": "eno",
					"type": "string"
				},
				{
					"internalType": "string",
					"name": "name",
					"type": "string"
				},
				{
					"internalType": "string",
					"name": "sex",
					"type": "string"
				},
				{
					"internalType": "string",
					"name": "age",
					"type": "string"
				},
				{
					"internalType": "string",
					"name": "country",
					"type": "string"
				},
				{
					"internalType": "string",
					"name": "position",
					"type": "string"
				},
				{
					"internalType": "string",
					"name": "code",
					"type": "string"
				},
				{
					"internalType": "string",
					"name": "major",
					"type": "string"
				},
				{
					"internalType": "string",
					"name": "time",
					"type": "string"
				},
				{
					"internalType": "string",
					"name": "phone",
					"type": "string"
				},
				{
					"components": [
						{
							"internalType": "string",
							"name": "status",
							"type": "string"
						},
						{
							"internalType": "string",
							"name": "edu",
							"type": "string"
						},
						{
							"internalType": "string",
							"name": "beginTime",
							"type": "string"
						},
						{
							"internalType": "string",
							"name": "endTime",
							"type": "string"
						},
						{
							"internalType": "string",
							"name": "school",
							"type": "string"
						}
					],
					"internalType": "struct manageDB.empStructF",
					"name": "ff",
					"type": "tuple"
				}
			],
			"stateMutability": "view",
			"type": "function"
		},
		{
			"inputs": [],
			"name": "getDisKeys",
			"outputs": [
				{
					"internalType": "string[]",
					"name": "",
					"type": "string[]"
				}
			],
			"stateMutability": "view",
			"type": "function"
		},
		{
			"inputs": [],
			"name": "getKeys",
			"outputs": [
				{
					"internalType": "string[]",
					"name": "",
					"type": "string[]"
				}
			],
			"stateMutability": "view",
			"type": "function"
		},
		{
			"inputs": [
				{
					"internalType": "string",
					"name": "_Aname",
					"type": "string"
				}
			],
			"name": "getMag",
			"outputs": [
				{
					"internalType": "string",
					"name": "",
					"type": "string"
				}
			],
			"stateMutability": "view",
			"type": "function"
		},
		{
			"inputs": [],
			"name": "hetstore",
			"outputs": [
				{
					"internalType": "uint256",
					"name": "",
					"type": "uint256"
				}
			],
			"stateMutability": "view",
			"type": "function"
		},
		{
			"inputs": [
				{
					"internalType": "string",
					"name": "",
					"type": "string"
				}
			],
			"name": "interview",
			"outputs": [
				{
					"internalType": "string",
					"name": "eno",
					"type": "string"
				},
				{
					"internalType": "string",
					"name": "name",
					"type": "string"
				},
				{
					"internalType": "string",
					"name": "sex",
					"type": "string"
				},
				{
					"internalType": "string",
					"name": "age",
					"type": "string"
				},
				{
					"internalType": "string",
					"name": "country",
					"type": "string"
				},
				{
					"internalType": "string",
					"name": "position",
					"type": "string"
				},
				{
					"internalType": "string",
					"name": "code",
					"type": "string"
				},
				{
					"internalType": "string",
					"name": "major",
					"type": "string"
				},
				{
					"internalType": "string",
					"name": "time",
					"type": "string"
				},
				{
					"internalType": "string",
					"name": "phone",
					"type": "string"
				},
				{
					"components": [
						{
							"internalType": "string",
							"name": "status",
							"type": "string"
						},
						{
							"internalType": "string",
							"name": "edu",
							"type": "string"
						},
						{
							"internalType": "string",
							"name": "beginTime",
							"type": "string"
						},
						{
							"internalType": "string",
							"name": "endTime",
							"type": "string"
						},
						{
							"internalType": "string",
							"name": "school",
							"type": "string"
						}
					],
					"internalType": "struct manageDB.empStructF",
					"name": "ff",
					"type": "tuple"
				}
			],
			"stateMutability": "view",
			"type": "function"
		},
		{
			"inputs": [
				{
					"internalType": "string",
					"name": "",
					"type": "string"
				}
			],
			"name": "mag",
			"outputs": [
				{
					"internalType": "string",
					"name": "Aname",
					"type": "string"
				},
				{
					"internalType": "string",
					"name": "password",
					"type": "string"
				}
			],
			"stateMutability": "view",
			"type": "function"
		},
		{
			"inputs": [],
			"name": "prEno",
			"outputs": [
				{
					"internalType": "string",
					"name": "",
					"type": "string"
				}
			],
			"stateMutability": "view",
			"type": "function"
		},
		{
			"inputs": [
				{
					"internalType": "string",
					"name": "_eno",
					"type": "string"
				}
			],
			"name": "queryEmp",
			"outputs": [
				{
					"components": [
						{
							"internalType": "string",
							"name": "eno",
							"type": "string"
						},
						{
							"internalType": "string",
							"name": "name",
							"type": "string"
						},
						{
							"internalType": "string",
							"name": "sex",
							"type": "string"
						},
						{
							"internalType": "string",
							"name": "age",
							"type": "string"
						},
						{
							"internalType": "string",
							"name": "country",
							"type": "string"
						},
						{
							"internalType": "string",
							"name": "position",
							"type": "string"
						},
						{
							"internalType": "string",
							"name": "code",
							"type": "string"
						},
						{
							"internalType": "string",
							"name": "major",
							"type": "string"
						},
						{
							"internalType": "string",
							"name": "time",
							"type": "string"
						},
						{
							"internalType": "string",
							"name": "phone",
							"type": "string"
						},
						{
							"components": [
								{
									"internalType": "string",
									"name": "status",
									"type": "string"
								},
								{
									"internalType": "string",
									"name": "edu",
									"type": "string"
								},
								{
									"internalType": "string",
									"name": "beginTime",
									"type": "string"
								},
								{
									"internalType": "string",
									"name": "endTime",
									"type": "string"
								},
								{
									"internalType": "string",
									"name": "school",
									"type": "string"
								}
							],
							"internalType": "struct manageDB.empStructF",
							"name": "ff",
							"type": "tuple"
						}
					],
					"internalType": "struct manageDB.empStruct",
					"name": "",
					"type": "tuple"
				}
			],
			"stateMutability": "nonpayable",
			"type": "function"
		},
		{
			"inputs": [
				{
					"internalType": "string",
					"name": "_Aname",
					"type": "string"
				},
				{
					"internalType": "string",
					"name": "_password",
					"type": "string"
				}
			],
			"name": "setMag",
			"outputs": [],
			"stateMutability": "nonpayable",
			"type": "function"
		},
		{
			"inputs": [
				{
					"internalType": "uint256",
					"name": "num",
					"type": "uint256"
				}
			],
			"name": "store",
			"outputs": [],
			"stateMutability": "nonpayable",
			"type": "function"
		}
	]
}